{
  "contractName": "TenderOnChain",
  "abi": [
    {
      "inputs": [],
      "stateMutability": "nonpayable",
      "type": "constructor"
    },
    {
      "anonymous": false,
      "inputs": [
        {
          "indexed": false,
          "internalType": "uint256",
          "name": "indexAO",
          "type": "uint256"
        },
        {
          "indexed": false,
          "internalType": "address",
          "name": "user",
          "type": "address"
        }
      ],
      "name": "AoCreated",
      "type": "event"
    },
    {
      "anonymous": false,
      "inputs": [
        {
          "indexed": false,
          "internalType": "uint256",
          "name": "indexAO",
          "type": "uint256"
        },
        {
          "indexed": false,
          "internalType": "uint256",
          "name": "indexLOT",
          "type": "uint256"
        },
        {
          "indexed": false,
          "internalType": "address",
          "name": "user",
          "type": "address"
        }
      ],
      "name": "LotCreated",
      "type": "event"
    },
    {
      "anonymous": false,
      "inputs": [
        {
          "indexed": true,
          "internalType": "address",
          "name": "previousOwner",
          "type": "address"
        },
        {
          "indexed": true,
          "internalType": "address",
          "name": "newOwner",
          "type": "address"
        }
      ],
      "name": "OwnershipTransferred",
      "type": "event"
    },
    {
      "anonymous": false,
      "inputs": [
        {
          "indexed": false,
          "internalType": "uint256",
          "name": "value",
          "type": "uint256"
        },
        {
          "indexed": false,
          "internalType": "address",
          "name": "user",
          "type": "address"
        }
      ],
      "name": "argentRecu",
      "type": "event"
    },
    {
      "anonymous": false,
      "inputs": [
        {
          "indexed": false,
          "internalType": "address",
          "name": "user",
          "type": "address"
        }
      ],
      "name": "requestAuditor",
      "type": "event"
    },
    {
      "anonymous": false,
      "inputs": [
        {
          "indexed": false,
          "internalType": "address",
          "name": "user",
          "type": "address"
        }
      ],
      "name": "requestValide",
      "type": "event"
    },
    {
      "anonymous": false,
      "inputs": [
        {
          "indexed": false,
          "internalType": "uint256",
          "name": "codeAction",
          "type": "uint256"
        },
        {
          "indexed": false,
          "internalType": "address",
          "name": "user",
          "type": "address"
        }
      ],
      "name": "transferSecu",
      "type": "event"
    },
    {
      "anonymous": false,
      "inputs": [
        {
          "indexed": false,
          "internalType": "address",
          "name": "user",
          "type": "address"
        },
        {
          "indexed": false,
          "internalType": "string",
          "name": "name",
          "type": "string"
        }
      ],
      "name": "userAdded",
      "type": "event"
    },
    {
      "anonymous": false,
      "inputs": [
        {
          "indexed": false,
          "internalType": "address",
          "name": "user",
          "type": "address"
        },
        {
          "indexed": false,
          "internalType": "address",
          "name": "auditor",
          "type": "address"
        },
        {
          "indexed": false,
          "internalType": "uint256",
          "name": "time",
          "type": "uint256"
        }
      ],
      "name": "userAudited",
      "type": "event"
    },
    {
      "anonymous": false,
      "inputs": [
        {
          "indexed": false,
          "internalType": "address",
          "name": "user",
          "type": "address"
        }
      ],
      "name": "userAuditor",
      "type": "event"
    },
    {
      "anonymous": false,
      "inputs": [
        {
          "indexed": false,
          "internalType": "address",
          "name": "user",
          "type": "address"
        }
      ],
      "name": "userDeleted",
      "type": "event"
    },
    {
      "anonymous": false,
      "inputs": [
        {
          "indexed": false,
          "internalType": "address",
          "name": "user",
          "type": "address"
        },
        {
          "indexed": false,
          "internalType": "string",
          "name": "name",
          "type": "string"
        }
      ],
      "name": "userUpdated",
      "type": "event"
    },
    {
      "inputs": [],
      "name": "owner",
      "outputs": [
        {
          "internalType": "address",
          "name": "",
          "type": "address"
        }
      ],
      "stateMutability": "view",
      "type": "function",
      "constant": true
    },
    {
      "inputs": [],
      "name": "renounceOwnership",
      "outputs": [],
      "stateMutability": "nonpayable",
      "type": "function"
    },
    {
      "inputs": [
        {
          "internalType": "uint256",
          "name": "",
          "type": "uint256"
        }
      ],
      "name": "tableauAO",
      "outputs": [
        {
          "internalType": "address",
          "name": "adressDDO",
          "type": "address"
        },
        {
          "internalType": "string",
          "name": "aoName",
          "type": "string"
        },
        {
          "internalType": "bool",
          "name": "isPaid",
          "type": "bool"
        },
        {
          "internalType": "uint256",
          "name": "createdAt",
          "type": "uint256"
        }
      ],
      "stateMutability": "view",
      "type": "function",
      "constant": true
    },
    {
      "inputs": [
        {
          "internalType": "uint256",
          "name": "",
          "type": "uint256"
        }
      ],
      "name": "tableauLots",
      "outputs": [
        {
          "internalType": "uint256",
          "name": "idAO",
          "type": "uint256"
        },
        {
          "internalType": "uint256",
          "name": "idLot",
          "type": "uint256"
        },
        {
          "internalType": "string",
          "name": "description",
          "type": "string"
        },
        {
          "internalType": "uint256",
          "name": "TsCloture",
          "type": "uint256"
        },
        {
          "internalType": "address",
          "name": "winner",
          "type": "address"
        },
        {
          "internalType": "bool",
          "name": "isNftAttributionEmit",
          "type": "bool"
        },
        {
          "internalType": "bool",
          "name": "isNftRealisationEmit",
          "type": "bool"
        },
        {
          "internalType": "uint8",
          "name": "idEtapeLot",
          "type": "uint8"
        },
        {
          "internalType": "string",
          "name": "URIPDF",
          "type": "string"
        }
      ],
      "stateMutability": "view",
      "type": "function",
      "constant": true
    },
    {
      "inputs": [
        {
          "internalType": "address",
          "name": "newOwner",
          "type": "address"
        }
      ],
      "name": "transferOwnership",
      "outputs": [],
      "stateMutability": "nonpayable",
      "type": "function"
    },
    {
      "inputs": [],
      "name": "BalanceContrat",
      "outputs": [
        {
          "internalType": "uint256",
          "name": "",
          "type": "uint256"
        }
      ],
      "stateMutability": "view",
      "type": "function",
      "constant": true
    },
    {
      "inputs": [
        {
          "internalType": "uint256",
          "name": "_nouveauPrix",
          "type": "uint256"
        }
      ],
      "name": "setAOprice",
      "outputs": [
        {
          "internalType": "uint256",
          "name": "",
          "type": "uint256"
        }
      ],
      "stateMutability": "nonpayable",
      "type": "function"
    },
    {
      "inputs": [
        {
          "internalType": "uint256",
          "name": "_nouveauPrix",
          "type": "uint256"
        }
      ],
      "name": "setLotprice",
      "outputs": [
        {
          "internalType": "uint256",
          "name": "",
          "type": "uint256"
        }
      ],
      "stateMutability": "nonpayable",
      "type": "function"
    },
    {
      "inputs": [
        {
          "internalType": "string",
          "name": "_name",
          "type": "string"
        }
      ],
      "name": "createAccount",
      "outputs": [],
      "stateMutability": "nonpayable",
      "type": "function"
    },
    {
      "inputs": [
        {
          "internalType": "address",
          "name": "_addr",
          "type": "address"
        },
        {
          "internalType": "string",
          "name": "_name",
          "type": "string"
        }
      ],
      "name": "editAccount",
      "outputs": [],
      "stateMutability": "nonpayable",
      "type": "function"
    },
    {
      "inputs": [
        {
          "internalType": "address",
          "name": "_addr",
          "type": "address"
        }
      ],
      "name": "requestNewAuditor",
      "outputs": [],
      "stateMutability": "nonpayable",
      "type": "function"
    },
    {
      "inputs": [
        {
          "internalType": "address",
          "name": "_addr",
          "type": "address"
        }
      ],
      "name": "requestAcountValidation",
      "outputs": [],
      "stateMutability": "nonpayable",
      "type": "function"
    },
    {
      "inputs": [
        {
          "internalType": "address",
          "name": "_addr",
          "type": "address"
        }
      ],
      "name": "getAccount",
      "outputs": [
        {
          "components": [
            {
              "internalType": "string",
              "name": "name",
              "type": "string"
            },
            {
              "internalType": "bool",
              "name": "isRegistred",
              "type": "bool"
            },
            {
              "internalType": "bool",
              "name": "isAuditor",
              "type": "bool"
            },
            {
              "internalType": "bool",
              "name": "isApproval",
              "type": "bool"
            },
            {
              "internalType": "address",
              "name": "adresseValidateur",
              "type": "address"
            },
            {
              "internalType": "uint256",
              "name": "dateApprouval",
              "type": "uint256"
            }
          ],
          "internalType": "struct TenderOnChain.Users",
          "name": "",
          "type": "tuple"
        }
      ],
      "stateMutability": "view",
      "type": "function",
      "constant": true
    },
    {
      "inputs": [
        {
          "internalType": "address",
          "name": "_addr",
          "type": "address"
        }
      ],
      "name": "getAccountForOwner",
      "outputs": [
        {
          "components": [
            {
              "internalType": "string",
              "name": "name",
              "type": "string"
            },
            {
              "internalType": "bool",
              "name": "isRegistred",
              "type": "bool"
            },
            {
              "internalType": "bool",
              "name": "isAuditor",
              "type": "bool"
            },
            {
              "internalType": "bool",
              "name": "isApproval",
              "type": "bool"
            },
            {
              "internalType": "address",
              "name": "adresseValidateur",
              "type": "address"
            },
            {
              "internalType": "uint256",
              "name": "dateApprouval",
              "type": "uint256"
            }
          ],
          "internalType": "struct TenderOnChain.Users",
          "name": "",
          "type": "tuple"
        }
      ],
      "stateMutability": "view",
      "type": "function",
      "constant": true
    },
    {
      "inputs": [
        {
          "internalType": "address",
          "name": "_addr",
          "type": "address"
        }
      ],
      "name": "updateAcountToAuditor",
      "outputs": [
        {
          "components": [
            {
              "internalType": "string",
              "name": "name",
              "type": "string"
            },
            {
              "internalType": "bool",
              "name": "isRegistred",
              "type": "bool"
            },
            {
              "internalType": "bool",
              "name": "isAuditor",
              "type": "bool"
            },
            {
              "internalType": "bool",
              "name": "isApproval",
              "type": "bool"
            },
            {
              "internalType": "address",
              "name": "adresseValidateur",
              "type": "address"
            },
            {
              "internalType": "uint256",
              "name": "dateApprouval",
              "type": "uint256"
            }
          ],
          "internalType": "struct TenderOnChain.Users",
          "name": "",
          "type": "tuple"
        }
      ],
      "stateMutability": "nonpayable",
      "type": "function"
    },
    {
      "inputs": [
        {
          "internalType": "address",
          "name": "_addr",
          "type": "address"
        }
      ],
      "name": "deleteAccount",
      "outputs": [],
      "stateMutability": "nonpayable",
      "type": "function"
    },
    {
      "inputs": [
        {
          "internalType": "address",
          "name": "_addr",
          "type": "address"
        }
      ],
      "name": "updateAcountToApproval",
      "outputs": [],
      "stateMutability": "nonpayable",
      "type": "function"
    },
    {
      "inputs": [
        {
          "internalType": "address",
          "name": "_addr",
          "type": "address"
        },
        {
          "internalType": "string",
          "name": "_name",
          "type": "string"
        }
      ],
      "name": "createAO",
      "outputs": [],
      "stateMutability": "payable",
      "type": "function",
      "payable": true
    },
    {
      "inputs": [
        {
          "internalType": "uint256",
          "name": "_index",
          "type": "uint256"
        },
        {
          "internalType": "string",
          "name": "_name",
          "type": "string"
        }
      ],
      "name": "editAO",
      "outputs": [],
      "stateMutability": "nonpayable",
      "type": "function"
    },
    {
      "inputs": [
        {
          "internalType": "string",
          "name": "_name",
          "type": "string"
        },
        {
          "internalType": "uint256",
          "name": "_numeroAO",
          "type": "uint256"
        }
      ],
      "name": "addLOT",
      "outputs": [],
      "stateMutability": "nonpayable",
      "type": "function"
    },
    {
      "inputs": [
        {
          "internalType": "uint256",
          "name": "_idx",
          "type": "uint256"
        },
        {
          "internalType": "string",
          "name": "_name",
          "type": "string"
        }
      ],
      "name": "editLOT",
      "outputs": [],
      "stateMutability": "nonpayable",
      "type": "function"
    },
    {
      "inputs": [
        {
          "internalType": "uint256",
          "name": "_idx",
          "type": "uint256"
        }
      ],
      "name": "getAO",
      "outputs": [
        {
          "internalType": "string",
          "name": "_nom",
          "type": "string"
        },
        {
          "internalType": "address",
          "name": "_addrDDO",
          "type": "address"
        },
        {
          "internalType": "bool",
          "name": "_isPaid",
          "type": "bool"
        }
      ],
      "stateMutability": "view",
      "type": "function",
      "constant": true
    },
    {
      "inputs": [
        {
          "internalType": "address",
          "name": "_addr",
          "type": "address"
        }
      ],
      "name": "transfertBalanceSecu",
      "outputs": [],
      "stateMutability": "nonpayable",
      "type": "function"
    },
    {
      "inputs": [
        {
          "internalType": "uint256",
          "name": "_idlot",
          "type": "uint256"
        }
      ],
      "name": "createParticipation",
      "outputs": [],
      "stateMutability": "nonpayable",
      "type": "function"
    },
    {
      "inputs": [
        {
          "internalType": "address",
          "name": "_addr",
          "type": "address"
        },
        {
          "internalType": "uint256",
          "name": "_index",
          "type": "uint256"
        }
      ],
      "name": "getParticipation",
      "outputs": [
        {
          "components": [
            {
              "internalType": "uint256",
              "name": "idLot",
              "type": "uint256"
            },
            {
              "internalType": "uint256",
              "name": "Tsprice1",
              "type": "uint256"
            },
            {
              "internalType": "uint256",
              "name": "price1",
              "type": "uint256"
            },
            {
              "internalType": "uint256",
              "name": "Tsprice2",
              "type": "uint256"
            },
            {
              "internalType": "uint256",
              "name": "price2",
              "type": "uint256"
            }
          ],
          "internalType": "struct TenderOnChain.Participation",
          "name": "",
          "type": "tuple"
        }
      ],
      "stateMutability": "view",
      "type": "function",
      "constant": true
    },
    {
      "inputs": [
        {
          "internalType": "address",
          "name": "_addr",
          "type": "address"
        }
      ],
      "name": "getParticipationLength",
      "outputs": [
        {
          "internalType": "uint256",
          "name": "",
          "type": "uint256"
        }
      ],
      "stateMutability": "view",
      "type": "function",
      "constant": true
    },
    {
      "inputs": [
        {
          "internalType": "address",
          "name": "_addr",
          "type": "address"
        },
        {
          "internalType": "uint256",
          "name": "_index",
          "type": "uint256"
        }
      ],
      "name": "removeParticipation",
      "outputs": [],
      "stateMutability": "nonpayable",
      "type": "function"
    }
  ],
  "bytecode": "0x60806040523480156200001157600080fd5b5062000032620000266200007260201b60201c565b6200007a60201b60201c565b601e600060146101000a81548160ff021916908360ff160217905550670de0b6b3a764000060018190555067016345785d8a00006002819055506200013e565b600033905090565b60008060009054906101000a900473ffffffffffffffffffffffffffffffffffffffff169050816000806101000a81548173ffffffffffffffffffffffffffffffffffffffff021916908373ffffffffffffffffffffffffffffffffffffffff1602179055508173ffffffffffffffffffffffffffffffffffffffff168173ffffffffffffffffffffffffffffffffffffffff167f8be0079c531659141344cd1fd0a4f28419497f9722a3daafe3b4186f6b6457e060405160405180910390a35050565b613852806200014e6000396000f3fe60806040526004361061019c5760003560e01c8063b1c70971116100ec578063d1a52a0a1161008a578063e2d7aaa111610064578063e2d7aaa1146105df578063e8f86cd11461061f578063f2fde38b14610648578063fbcbc0f1146106715761019c565b8063d1a52a0a1461054e578063de1c449814610577578063deda3d89146105a05761019c565b8063be2b27d1116100c6578063be2b27d114610482578063c4cfe2c7146104bf578063c6dde4da146104e8578063ccfba830146105115761019c565b8063b1c70971146103f3578063b785cc311461041c578063b9e19ded146104595761019c565b806359e203e11161015957806394d9c30f1161013357806394d9c30f1461030b57806395666de314610334578063a247363114610371578063abaeeebd146103b65761019c565b806359e203e1146102a0578063715018a6146102c95780638da5cb5b146102e05761019c565b806316b53e31146101a15780631df46a29146101ca5780632413cab6146101e6578063298daf5b146102235780633cef69c11461024c5780634c1b64cb14610277575b600080fd5b3480156101ad57600080fd5b506101c860048036038101906101c39190612814565b6106ae565b005b6101e460048036038101906101df919061299a565b61073c565b005b3480156101f257600080fd5b5061020d600480360381019061020891906129f6565b61093a565b60405161021a9190612b64565b60405180910390f35b34801561022f57600080fd5b5061024a60048036038101906102459190612b86565b610ade565b005b34801561025857600080fd5b50610261610ce7565b60405161026e9190612bde565b60405180910390f35b34801561028357600080fd5b5061029e600480360381019061029991906129f6565b610cf7565b005b3480156102ac57600080fd5b506102c760048036038101906102c2919061299a565b610e8f565b005b3480156102d557600080fd5b506102de611037565b005b3480156102ec57600080fd5b506102f561104b565b6040516103029190612c08565b60405180910390f35b34801561031757600080fd5b50610332600480360381019061032d9190612c23565b611074565b005b34801561034057600080fd5b5061035b600480360381019061035691906129f6565b611148565b6040516103689190612b64565b60405180910390f35b34801561037d57600080fd5b5061039860048036038101906103939190612c23565b61137e565b6040516103ad99989796959493929190612cc5565b60405180910390f35b3480156103c257600080fd5b506103dd60048036038101906103d89190612814565b611533565b6040516103ea9190612dc8565b60405180910390f35b3480156103ff57600080fd5b5061041a60048036038101906104159190612de3565b6115df565b005b34801561042857600080fd5b50610443600480360381019061043e91906129f6565b611867565b6040516104509190612bde565b60405180910390f35b34801561046557600080fd5b50610480600480360381019061047b91906129f6565b6118b3565b005b34801561048e57600080fd5b506104a960048036038101906104a49190612c23565b61197c565b6040516104b69190612bde565b60405180910390f35b3480156104cb57600080fd5b506104e660048036038101906104e19190612e3f565b611997565b005b3480156104f457600080fd5b5061050f600480360381019061050a91906129f6565b611b10565b005b34801561051d57600080fd5b5061053860048036038101906105339190612c23565b611bd9565b6040516105459190612bde565b60405180910390f35b34801561055a57600080fd5b5061057560048036038101906105709190612e3f565b611bf4565b005b34801561058357600080fd5b5061059e600480360381019061059991906129f6565b611d6d565b005b3480156105ac57600080fd5b506105c760048036038101906105c29190612c23565b611f5d565b6040516105d693929190612e9b565b60405180910390f35b3480156105eb57600080fd5b5061060660048036038101906106019190612c23565b612099565b6040516106169493929190612ed9565b60405180910390f35b34801561062b57600080fd5b50610646600480360381019061064191906129f6565b61218e565b005b34801561065457600080fd5b5061066f600480360381019061066a91906129f6565b612199565b005b34801561067d57600080fd5b50610698600480360381019061069391906129f6565b61221c565b6040516106a59190612b64565b60405180910390f35b600660008373ffffffffffffffffffffffffffffffffffffffff1673ffffffffffffffffffffffffffffffffffffffff16815260200190815260200160002081815481106106ff576106fe612f25565b5b9060005260206000209060050201600080820160009055600182016000905560028201600090556003820160009055600482016000905550505050565b600360003373ffffffffffffffffffffffffffffffffffffffff1673ffffffffffffffffffffffffffffffffffffffff16815260200190815260200160002060010160009054906101000a900460ff166107cb576040517f08c379a00000000000000000000000000000000000000000000000000000000081526004016107c290612fa0565b60405180910390fd5b600154341015610810576040517f08c379a00000000000000000000000000000000000000000000000000000000081526004016108079061300c565b60405180910390fd5b610818612591565b81816020018190525082816000019073ffffffffffffffffffffffffffffffffffffffff16908173ffffffffffffffffffffffffffffffffffffffff168152505042816080018181525050600481908060018154018082558091505060019003906000526020600020906005020160009091909190915060008201518160000160006101000a81548173ffffffffffffffffffffffffffffffffffffffff021916908373ffffffffffffffffffffffffffffffffffffffff16021790555060208201518160010190816108eb9190613238565b5060408201518160020160006101000a81548160ff02191690831515021790555060608201518160030190805190602001906109289291906125d8565b50608082015181600401555050505050565b610942612625565b61094a612447565b600360008373ffffffffffffffffffffffffffffffffffffffff1673ffffffffffffffffffffffffffffffffffffffff1681526020019081526020016000206040518060c00160405290816000820180546109a49061305b565b80601f01602080910402602001604051908101604052809291908181526020018280546109d09061305b565b8015610a1d5780601f106109f257610100808354040283529160200191610a1d565b820191906000526020600020905b815481529060010190602001808311610a0057829003601f168201915b505050505081526020016001820160009054906101000a900460ff161515151581526020016001820160019054906101000a900460ff161515151581526020016001820160029054906101000a900460ff161515151581526020016001820160039054906101000a900473ffffffffffffffffffffffffffffffffffffffff1673ffffffffffffffffffffffffffffffffffffffff1673ffffffffffffffffffffffffffffffffffffffff1681526020016002820154815250509050919050565b60011515600360003373ffffffffffffffffffffffffffffffffffffffff1673ffffffffffffffffffffffffffffffffffffffff16815260200190815260200160002060010160009054906101000a900460ff16151503610b74576040517f08c379a0000000000000000000000000000000000000000000000000000000008152600401610b6b90613356565b60405180910390fd5b604051602001610b839061339c565b6040516020818303038152906040528051906020012081604051602001610baa91906133bc565b6040516020818303038152906040528051906020012003610c00576040517f08c379a0000000000000000000000000000000000000000000000000000000008152600401610bf79061342a565b60405180910390fd5b6001600360003373ffffffffffffffffffffffffffffffffffffffff1673ffffffffffffffffffffffffffffffffffffffff16815260200190815260200160002060010160006101000a81548160ff02191690831515021790555080600360003373ffffffffffffffffffffffffffffffffffffffff1673ffffffffffffffffffffffffffffffffffffffff1681526020019081526020016000206000019081610caa9190613238565b507f613fa353b26ebe46477a0a021dfe1ee36cebcda84c794fc0623bef188295a3533382604051610cdc92919061344a565b60405180910390a150565b6000610cf1612447565b47905090565b610cff612447565b6001600360008373ffffffffffffffffffffffffffffffffffffffff1673ffffffffffffffffffffffffffffffffffffffff16815260200190815260200160002060010160006101000a81548160ff0219169083151502179055610d98576040517f08c379a0000000000000000000000000000000000000000000000000000000008152600401610d8f906134c6565b60405180910390fd5b600360008273ffffffffffffffffffffffffffffffffffffffff1673ffffffffffffffffffffffffffffffffffffffff16815260200190815260200160002060008082016000610de89190612677565b6001820160006101000a81549060ff02191690556001820160016101000a81549060ff02191690556001820160026101000a81549060ff02191690556001820160036101000a81549073ffffffffffffffffffffffffffffffffffffffff0219169055600282016000905550507fc21b9cfcceff9f2d82efde7cd64d3fe7bfd7f14b9b0020ed54eb6ae56056e9ac81604051610e849190612c08565b60405180910390a150565b600360003373ffffffffffffffffffffffffffffffffffffffff1673ffffffffffffffffffffffffffffffffffffffff16815260200190815260200160002060010160009054906101000a900460ff16610f1e576040517f08c379a0000000000000000000000000000000000000000000000000000000008152600401610f1590612fa0565b60405180910390fd5b604051602001610f2d9061339c565b6040516020818303038152906040528051906020012081604051602001610f5491906133bc565b6040516020818303038152906040528051906020012003610faa576040517f08c379a0000000000000000000000000000000000000000000000000000000008152600401610fa19061342a565b60405180910390fd5b80600360008473ffffffffffffffffffffffffffffffffffffffff1673ffffffffffffffffffffffffffffffffffffffff1681526020019081526020016000206000019081610ff99190613238565b507fe99ebf891ecf1848497e78549bd314016c4d1cb85202983ee2949410bc3e6056828260405161102b92919061344a565b60405180910390a15050565b61103f612447565b61104960006124c5565b565b60008060009054906101000a900473ffffffffffffffffffffffffffffffffffffffff16905090565b600660003373ffffffffffffffffffffffffffffffffffffffff1673ffffffffffffffffffffffffffffffffffffffff1681526020019081526020016000206040518060a0016040528083815260200142815260200160058152602001600a426110de9190613515565b8152602001600a81525090806001815401808255809150506001900390600052602060002090600502016000909190919091506000820151816000015560208201518160010155604082015181600201556060820151816003015560808201518160040155505050565b611150612625565b611158612447565b6001600360008473ffffffffffffffffffffffffffffffffffffffff1673ffffffffffffffffffffffffffffffffffffffff16815260200190815260200160002060010160016101000a81548160ff0219169083151502179055507f50f5507c2428baff49ee7875d073bd487f89a04190c499d0344dfe7a91bfa654826040516111e29190612c08565b60405180910390a1600360008373ffffffffffffffffffffffffffffffffffffffff1673ffffffffffffffffffffffffffffffffffffffff1681526020019081526020016000206040518060c00160405290816000820180546112449061305b565b80601f01602080910402602001604051908101604052809291908181526020018280546112709061305b565b80156112bd5780601f10611292576101008083540402835291602001916112bd565b820191906000526020600020905b8154815290600101906020018083116112a057829003601f168201915b505050505081526020016001820160009054906101000a900460ff161515151581526020016001820160019054906101000a900460ff161515151581526020016001820160029054906101000a900460ff161515151581526020016001820160039054906101000a900473ffffffffffffffffffffffffffffffffffffffff1673ffffffffffffffffffffffffffffffffffffffff1673ffffffffffffffffffffffffffffffffffffffff1681526020016002820154815250509050919050565b6005818154811061138e57600080fd5b90600052602060002090600602016000915090508060000154908060010154908060020180546113bd9061305b565b80601f01602080910402602001604051908101604052809291908181526020018280546113e99061305b565b80156114365780601f1061140b57610100808354040283529160200191611436565b820191906000526020600020905b81548152906001019060200180831161141957829003601f168201915b5050505050908060030154908060040160009054906101000a900473ffffffffffffffffffffffffffffffffffffffff16908060040160149054906101000a900460ff16908060040160159054906101000a900460ff16908060040160169054906101000a900460ff16908060050180546114b09061305b565b80601f01602080910402602001604051908101604052809291908181526020018280546114dc9061305b565b80156115295780601f106114fe57610100808354040283529160200191611529565b820191906000526020600020905b81548152906001019060200180831161150c57829003601f168201915b5050505050905089565b61153b6126b7565b600660008473ffffffffffffffffffffffffffffffffffffffff1673ffffffffffffffffffffffffffffffffffffffff168152602001908152602001600020828154811061158c5761158b612f25565b5b90600052602060002090600502016040518060a001604052908160008201548152602001600182015481526020016002820154815260200160038201548152602001600482015481525050905092915050565b600360003373ffffffffffffffffffffffffffffffffffffffff1673ffffffffffffffffffffffffffffffffffffffff16815260200190815260200160002060010160009054906101000a900460ff1661166e576040517f08c379a000000000000000000000000000000000000000000000000000000000815260040161166590612fa0565b60405180910390fd5b600081116116b1576040517f08c379a00000000000000000000000000000000000000000000000000000000081526004016116a890613595565b60405180910390fd5b60006001826116c091906135b5565b90506116ca6126e6565b838160400181905250818160000181815250506005819080600181540180825580915050600190039060005260206000209060060201600090919091909150600082015181600001556020820151816001015560408201518160020190816117329190613238565b506060820151816003015560808201518160040160006101000a81548173ffffffffffffffffffffffffffffffffffffffff021916908373ffffffffffffffffffffffffffffffffffffffff16021790555060a08201518160040160146101000a81548160ff02191690831515021790555060c08201518160040160156101000a81548160ff02191690831515021790555060e08201518160040160166101000a81548160ff021916908360ff1602179055506101008201518160050190816117fb9190613238565b5050506000600160058054905061181291906135b5565b90506004838154811061182857611827612f25565b5b90600052602060002090600502016003018190806001815401808255809150506001900390600052602060002001600090919091909150555050505050565b6000600660008373ffffffffffffffffffffffffffffffffffffffff1673ffffffffffffffffffffffffffffffffffffffff168152602001908152602001600020805490509050919050565b600360003373ffffffffffffffffffffffffffffffffffffffff1673ffffffffffffffffffffffffffffffffffffffff16815260200190815260200160002060010160009054906101000a900460ff16611942576040517f08c379a000000000000000000000000000000000000000000000000000000000815260040161193990612fa0565b60405180910390fd5b7faf0ea5a986d535a6d485f06d0956f5737418735d3ea67305e75152b58b8bc80c816040516119719190612c08565b60405180910390a150565b6000611986612447565b816002819055506002549050919050565b600360003373ffffffffffffffffffffffffffffffffffffffff1673ffffffffffffffffffffffffffffffffffffffff16815260200190815260200160002060010160009054906101000a900460ff16611a26576040517f08c379a0000000000000000000000000000000000000000000000000000000008152600401611a1d90612fa0565b60405180910390fd5b3373ffffffffffffffffffffffffffffffffffffffff1660048381548110611a5157611a50612f25565b5b906000526020600020906005020160000160009054906101000a900473ffffffffffffffffffffffffffffffffffffffff1673ffffffffffffffffffffffffffffffffffffffff1614611ad9576040517f08c379a0000000000000000000000000000000000000000000000000000000008152600401611ad09061365b565b60405180910390fd5b8060048381548110611aee57611aed612f25565b5b90600052602060002090600502016001019081611b0b9190613238565b505050565b600360003373ffffffffffffffffffffffffffffffffffffffff1673ffffffffffffffffffffffffffffffffffffffff16815260200190815260200160002060010160009054906101000a900460ff16611b9f576040517f08c379a0000000000000000000000000000000000000000000000000000000008152600401611b9690612fa0565b60405180910390fd5b7fafe92cf1e686d40d9fe75324acc5793ff623b23896e8b1edd5b36f2a1bed7c2081604051611bce9190612c08565b60405180910390a150565b6000611be3612447565b816001819055506001549050919050565b600360003373ffffffffffffffffffffffffffffffffffffffff1673ffffffffffffffffffffffffffffffffffffffff16815260200190815260200160002060010160009054906101000a900460ff16611c83576040517f08c379a0000000000000000000000000000000000000000000000000000000008152600401611c7a90612fa0565b60405180910390fd5b3373ffffffffffffffffffffffffffffffffffffffff1660048381548110611cae57611cad612f25565b5b906000526020600020906005020160000160009054906101000a900473ffffffffffffffffffffffffffffffffffffffff1673ffffffffffffffffffffffffffffffffffffffff1614611d36576040517f08c379a0000000000000000000000000000000000000000000000000000000008152600401611d2d9061365b565b60405180910390fd5b8060048381548110611d4b57611d4a612f25565b5b90600052602060002090600502016001019081611d689190613238565b505050565b600360003373ffffffffffffffffffffffffffffffffffffffff1673ffffffffffffffffffffffffffffffffffffffff16815260200190815260200160002060010160019054906101000a900460ff16611dfc576040517f08c379a0000000000000000000000000000000000000000000000000000000008152600401611df3906136c7565b60405180910390fd5b6001600360008373ffffffffffffffffffffffffffffffffffffffff1673ffffffffffffffffffffffffffffffffffffffff16815260200190815260200160002060010160026101000a81548160ff02191690831515021790555033600360008373ffffffffffffffffffffffffffffffffffffffff1673ffffffffffffffffffffffffffffffffffffffff16815260200190815260200160002060010160036101000a81548173ffffffffffffffffffffffffffffffffffffffff021916908373ffffffffffffffffffffffffffffffffffffffff16021790555042600360008373ffffffffffffffffffffffffffffffffffffffff1673ffffffffffffffffffffffffffffffffffffffff168152602001908152602001600020600201819055507f8374119f2a4546ccc495a5cd8d55d891b8c64e342d10ebfd6f7db0fdf141bbb1813342604051611f52939291906136e7565b60405180910390a150565b606060008060048481548110611f7657611f75612f25565b5b906000526020600020906005020160010160048581548110611f9b57611f9a612f25565b5b906000526020600020906005020160000160009054906101000a900473ffffffffffffffffffffffffffffffffffffffff1660048681548110611fe157611fe0612f25565b5b906000526020600020906005020160020160009054906101000a900460ff1682805461200c9061305b565b80601f01602080910402602001604051908101604052809291908181526020018280546120389061305b565b80156120855780601f1061205a57610100808354040283529160200191612085565b820191906000526020600020905b81548152906001019060200180831161206857829003601f168201915b505050505092509250925092509193909250565b600481815481106120a957600080fd5b90600052602060002090600502016000915090508060000160009054906101000a900473ffffffffffffffffffffffffffffffffffffffff16908060010180546120f29061305b565b80601f016020809104026020016040519081016040528092919081815260200182805461211e9061305b565b801561216b5780601f106121405761010080835404028352916020019161216b565b820191906000526020600020905b81548152906001019060200180831161214e57829003601f168201915b5050505050908060020160009054906101000a900460ff16908060040154905084565b612196612447565b50565b6121a1612447565b600073ffffffffffffffffffffffffffffffffffffffff168173ffffffffffffffffffffffffffffffffffffffff1603612210576040517f08c379a000000000000000000000000000000000000000000000000000000000815260040161220790613790565b60405180910390fd5b612219816124c5565b50565b612224612625565b600360003373ffffffffffffffffffffffffffffffffffffffff1673ffffffffffffffffffffffffffffffffffffffff16815260200190815260200160002060010160009054906101000a900460ff166122b3576040517f08c379a00000000000000000000000000000000000000000000000000000000081526004016122aa90612fa0565b60405180910390fd5b600360008373ffffffffffffffffffffffffffffffffffffffff1673ffffffffffffffffffffffffffffffffffffffff1681526020019081526020016000206040518060c001604052908160008201805461230d9061305b565b80601f01602080910402602001604051908101604052809291908181526020018280546123399061305b565b80156123865780601f1061235b57610100808354040283529160200191612386565b820191906000526020600020905b81548152906001019060200180831161236957829003601f168201915b505050505081526020016001820160009054906101000a900460ff161515151581526020016001820160019054906101000a900460ff161515151581526020016001820160029054906101000a900460ff161515151581526020016001820160039054906101000a900473ffffffffffffffffffffffffffffffffffffffff1673ffffffffffffffffffffffffffffffffffffffff1673ffffffffffffffffffffffffffffffffffffffff1681526020016002820154815250509050919050565b61244f612589565b73ffffffffffffffffffffffffffffffffffffffff1661246d61104b565b73ffffffffffffffffffffffffffffffffffffffff16146124c3576040517f08c379a00000000000000000000000000000000000000000000000000000000081526004016124ba906137fc565b60405180910390fd5b565b60008060009054906101000a900473ffffffffffffffffffffffffffffffffffffffff169050816000806101000a81548173ffffffffffffffffffffffffffffffffffffffff021916908373ffffffffffffffffffffffffffffffffffffffff1602179055508173ffffffffffffffffffffffffffffffffffffffff168173ffffffffffffffffffffffffffffffffffffffff167f8be0079c531659141344cd1fd0a4f28419497f9722a3daafe3b4186f6b6457e060405160405180910390a35050565b600033905090565b6040518060a00160405280600073ffffffffffffffffffffffffffffffffffffffff1681526020016060815260200160001515815260200160608152602001600081525090565b828054828255906000526020600020908101928215612614579160200282015b828111156126135782518255916020019190600101906125f8565b5b509050612621919061274f565b5090565b6040518060c0016040528060608152602001600015158152602001600015158152602001600015158152602001600073ffffffffffffffffffffffffffffffffffffffff168152602001600081525090565b5080546126839061305b565b6000825580601f1061269557506126b4565b601f0160209004906000526020600020908101906126b3919061274f565b5b50565b6040518060a0016040528060008152602001600081526020016000815260200160008152602001600081525090565b60405180610120016040528060008152602001600081526020016060815260200160008152602001600073ffffffffffffffffffffffffffffffffffffffff168152602001600015158152602001600015158152602001600060ff168152602001606081525090565b5b80821115612768576000816000905550600101612750565b5090565b6000604051905090565b600080fd5b600080fd5b600073ffffffffffffffffffffffffffffffffffffffff82169050919050565b60006127ab82612780565b9050919050565b6127bb816127a0565b81146127c657600080fd5b50565b6000813590506127d8816127b2565b92915050565b6000819050919050565b6127f1816127de565b81146127fc57600080fd5b50565b60008135905061280e816127e8565b92915050565b6000806040838503121561282b5761282a612776565b5b6000612839858286016127c9565b925050602061284a858286016127ff565b9150509250929050565b600080fd5b600080fd5b6000601f19601f8301169050919050565b7f4e487b7100000000000000000000000000000000000000000000000000000000600052604160045260246000fd5b6128a78261285e565b810181811067ffffffffffffffff821117156128c6576128c561286f565b5b80604052505050565b60006128d961276c565b90506128e5828261289e565b919050565b600067ffffffffffffffff8211156129055761290461286f565b5b61290e8261285e565b9050602081019050919050565b82818337600083830152505050565b600061293d612938846128ea565b6128cf565b90508281526020810184848401111561295957612958612859565b5b61296484828561291b565b509392505050565b600082601f83011261298157612980612854565b5b813561299184826020860161292a565b91505092915050565b600080604083850312156129b1576129b0612776565b5b60006129bf858286016127c9565b925050602083013567ffffffffffffffff8111156129e0576129df61277b565b5b6129ec8582860161296c565b9150509250929050565b600060208284031215612a0c57612a0b612776565b5b6000612a1a848285016127c9565b91505092915050565b600081519050919050565b600082825260208201905092915050565b60005b83811015612a5d578082015181840152602081019050612a42565b60008484015250505050565b6000612a7482612a23565b612a7e8185612a2e565b9350612a8e818560208601612a3f565b612a978161285e565b840191505092915050565b60008115159050919050565b612ab781612aa2565b82525050565b612ac6816127a0565b82525050565b612ad5816127de565b82525050565b600060c0830160008301518482036000860152612af88282612a69565b9150506020830151612b0d6020860182612aae565b506040830151612b206040860182612aae565b506060830151612b336060860182612aae565b506080830151612b466080860182612abd565b5060a0830151612b5960a0860182612acc565b508091505092915050565b60006020820190508181036000830152612b7e8184612adb565b905092915050565b600060208284031215612b9c57612b9b612776565b5b600082013567ffffffffffffffff811115612bba57612bb961277b565b5b612bc68482850161296c565b91505092915050565b612bd8816127de565b82525050565b6000602082019050612bf36000830184612bcf565b92915050565b612c02816127a0565b82525050565b6000602082019050612c1d6000830184612bf9565b92915050565b600060208284031215612c3957612c38612776565b5b6000612c47848285016127ff565b91505092915050565b600082825260208201905092915050565b6000612c6c82612a23565b612c768185612c50565b9350612c86818560208601612a3f565b612c8f8161285e565b840191505092915050565b612ca381612aa2565b82525050565b600060ff82169050919050565b612cbf81612ca9565b82525050565b600061012082019050612cdb600083018c612bcf565b612ce8602083018b612bcf565b8181036040830152612cfa818a612c61565b9050612d096060830189612bcf565b612d166080830188612bf9565b612d2360a0830187612c9a565b612d3060c0830186612c9a565b612d3d60e0830185612cb6565b818103610100830152612d508184612c61565b90509a9950505050505050505050565b60a082016000820151612d766000850182612acc565b506020820151612d896020850182612acc565b506040820151612d9c6040850182612acc565b506060820151612daf6060850182612acc565b506080820151612dc26080850182612acc565b50505050565b600060a082019050612ddd6000830184612d60565b92915050565b60008060408385031215612dfa57612df9612776565b5b600083013567ffffffffffffffff811115612e1857612e1761277b565b5b612e248582860161296c565b9250506020612e35858286016127ff565b9150509250929050565b60008060408385031215612e5657612e55612776565b5b6000612e64858286016127ff565b925050602083013567ffffffffffffffff811115612e8557612e8461277b565b5b612e918582860161296c565b9150509250929050565b60006060820190508181036000830152612eb58186612c61565b9050612ec46020830185612bf9565b612ed16040830184612c9a565b949350505050565b6000608082019050612eee6000830187612bf9565b8181036020830152612f008186612c61565b9050612f0f6040830185612c9a565b612f1c6060830184612bcf565b95945050505050565b7f4e487b7100000000000000000000000000000000000000000000000000000000600052603260045260246000fd5b7f596f75277265206e6f7420612075736572000000000000000000000000000000600082015250565b6000612f8a601183612c50565b9150612f9582612f54565b602082019050919050565b60006020820190508181036000830152612fb981612f7d565b9050919050565b7f566575696c6c657a206d6574747265206c6520626f6e206d6f6e74616e740000600082015250565b6000612ff6601e83612c50565b915061300182612fc0565b602082019050919050565b6000602082019050818103600083015261302581612fe9565b9050919050565b7f4e487b7100000000000000000000000000000000000000000000000000000000600052602260045260246000fd5b6000600282049050600182168061307357607f821691505b6020821081036130865761308561302c565b5b50919050565b60008190508160005260206000209050919050565b60006020601f8301049050919050565b600082821b905092915050565b6000600883026130ee7fffffffffffffffffffffffffffffffffffffffffffffffffffffffffffffffff826130b1565b6130f886836130b1565b95508019841693508086168417925050509392505050565b6000819050919050565b600061313561313061312b846127de565b613110565b6127de565b9050919050565b6000819050919050565b61314f8361311a565b61316361315b8261313c565b8484546130be565b825550505050565b600090565b61317861316b565b613183818484613146565b505050565b5b818110156131a75761319c600082613170565b600181019050613189565b5050565b601f8211156131ec576131bd8161308c565b6131c6846130a1565b810160208510156131d5578190505b6131e96131e1856130a1565b830182613188565b50505b505050565b600082821c905092915050565b600061320f600019846008026131f1565b1980831691505092915050565b600061322883836131fe565b9150826002028217905092915050565b61324182612a23565b67ffffffffffffffff81111561325a5761325961286f565b5b613264825461305b565b61326f8282856131ab565b600060209050601f8311600181146132a25760008415613290578287015190505b61329a858261321c565b865550613302565b601f1984166132b08661308c565b60005b828110156132d8578489015182556001820191506020850194506020810190506132b3565b868310156132f557848901516132f1601f8916826131fe565b8355505b6001600288020188555050505b505050505050565b7f416c726561647920726567697374657265640000000000000000000000000000600082015250565b6000613340601283612c50565b915061334b8261330a565b602082019050919050565b6000602082019050818103600083015261336f81613333565b9050919050565b50565b6000613386600083612c50565b915061339182613376565b600082019050919050565b600060208201905081810360008301526133b581613379565b9050919050565b600060208201905081810360008301526133d68184612c61565b905092915050565b7f596f752063616e277420707574206e6f7468696e672061732061206e616d6500600082015250565b6000613414601f83612c50565b915061341f826133de565b602082019050919050565b6000602082019050818103600083015261344381613407565b9050919050565b600060408201905061345f6000830185612bf9565b81810360208301526134718184612c61565b90509392505050565b7f75736572206e6f74207265676973746572656400000000000000000000000000600082015250565b60006134b0601383612c50565b91506134bb8261347a565b602082019050919050565b600060208201905081810360008301526134df816134a3565b9050919050565b7f4e487b7100000000000000000000000000000000000000000000000000000000600052601160045260246000fd5b6000613520826127de565b915061352b836127de565b9250828201905080821115613543576135426134e6565b5b92915050565b7f566575696c6c657a20696e64697175657220756e206e756d65726f20414f0000600082015250565b600061357f601e83612c50565b915061358a82613549565b602082019050919050565b600060208201905081810360008301526135ae81613572565b9050919050565b60006135c0826127de565b91506135cb836127de565b92508282039050818111156135e3576135e26134e6565b5b92915050565b7f766f7573206574657320706173206c652044444f20646520636574204170706560008201527f6c2064206f666672650000000000000000000000000000000000000000000000602082015250565b6000613645602983612c50565b9150613650826135e9565b604082019050919050565b6000602082019050818103600083015261367481613638565b9050919050565b7f596f75277265206e6f7420612061756469746f72000000000000000000000000600082015250565b60006136b1601483612c50565b91506136bc8261367b565b602082019050919050565b600060208201905081810360008301526136e0816136a4565b9050919050565b60006060820190506136fc6000830186612bf9565b6137096020830185612bf9565b6137166040830184612bcf565b949350505050565b7f4f776e61626c653a206e6577206f776e657220697320746865207a65726f206160008201527f6464726573730000000000000000000000000000000000000000000000000000602082015250565b600061377a602683612c50565b91506137858261371e565b604082019050919050565b600060208201905081810360008301526137a98161376d565b9050919050565b7f4f776e61626c653a2063616c6c6572206973206e6f7420746865206f776e6572600082015250565b60006137e6602083612c50565b91506137f1826137b0565b602082019050919050565b60006020820190508181036000830152613815816137d9565b905091905056fea264697066735822122050445d863ec79203ffd41b8d1a80e5e7fdf9eaaf28e34e9679546ba80386f47964736f6c63430008110033",
  "immutableReferences": {},
  "source": "// SPDX-License-Identifier: BUSL-1.1\npragma solidity 0.8.17;\nimport \"../node_modules/@openzeppelin/contracts/access/Ownable.sol\";\n\n/// @title TenderOnChain\n/// @author Swuib and Sebastien HOFF\n/// @notice This contract ...\ncontract TenderOnChain is Ownable {\n\n  constructor() {\n    maxLot = 30;\n    priceAO = 1 ether;\n    priceLot = 100000000000000000 wei; \n  }\n\n\n  uint8 maxLot ; //defini le nombre de lot max que peut contenir un lot\n  uint priceAO ; //defini le montant  virer pour la creation de l'AO\n  uint priceLot ; //defini le montant  virer pour la participation  un lot\n  \n  /// @notice  structure des utilisateurs\n  /// @dev  structure des utilisateurs\n  struct Users {\n    string name; //raison sociale de la societ \n    //(a voir si plus de data ncessaire que juste le name)\n    bool isRegistred;// vrai si l'utilisateur est enregistr\n    bool isAuditor; // vrai si l'utilisateur est un validateur d'autentification de societs\n    //controle du profil financier par un tiers\n    bool isApproval; //est vrai si l'auditeur a fait le contrle de cette socit\n    address adresseValidateur; //adresse du controleur qui a verifi la situation du DDO\n    uint dateApprouval; // timestamp de la validation ou devalidation du DDO\n  }\n  //on cree un mapping adresse/user\n  mapping(address => Users) mappingUsers;\n\n  struct AO {\n    address adressDDO ; //adresse du DDO qui va creer AO\n    string  aoName;  // nom de AO\n    bool    isPaid; // c'est le booleen qui dit qui  bien payer pour AO (a voir ..)\n    uint[]  lotDeLAO; //contient les index des lots constituant l'ao\n    uint createdAt; // date de la creation de AO\n  }\n  //creation du tableau des appels d'offre\n  AO[] public tableauAO;\n\n  //on ne peut pas faire de mapping AO/user ou AO /adress car on ne respecte plus le le critere d'unicit\n  struct LOT {\n    uint idAO;\n    uint idLot;\n    string description;\n    uint TsCloture; //timeStampCloture\n    address winner; //adress de l'attributaire du lot\n    bool isNftAttributionEmit;\n    bool isNftRealisationEmit;\n    uint8 idEtapeLot;\n    string URIPDF; //URL du PDF du IPFS ou sur une SGBD dentralise \n  }\n  //creation du tableau des lots\n  //il a t choisi de stocker les lots dans un tableau car nous devons parcourir le tableau pour recuperer avec le frontend la liste des lots\n  LOT[] public tableauLots; \n\n  struct Participation {\n    uint idLot;\n    uint Tsprice1; //timestamp\n    uint price1;\n    uint Tsprice2; //timestamp\n    uint price2;\n  }\n  // a soluce .... \n  // Soumissions[] public tableauSoum;\n  mapping(address => Participation[]) mappingParticipation; // soumi / adress\n  // A TEST ::::::::::::::::::::::::::::::::::::::::::::::::::::::::::::::::::\n\n  // enum etapeAO {\n  //   definitionAO,\n  //   definitionLOT,\n  //   reponseAO,\n  //   depouillementAO,\n  //   aoClos\n  // }\n\n\n  //####################################\n  // The events\n  //####################################\n  event transferSecu(uint codeAction, address user); // ???? je sais pas ce que tu  voulu faire !\n  //un utilisateur a t ajout au tableau des utilisateurs\n  event userAdded(address user, string name);\n  event userUpdated(address user, string name);\n  event requestAuditor(address user);\n  event requestValide(address user);\n  event userAuditor(address user);\n  event userDeleted(address user);\n  event userAudited(address user, address auditor, uint time);\n  // nouvel Appel Offre\n  event AoCreated(uint indexAO , address user);\n  // nouveau lot cree\n  event LotCreated(uint indexAO , uint indexLOT , address user);\n  // argent recu\n  event argentRecu(uint value , address user);\n\n  //####################################\n  // Modifier\n  //####################################\n\n  // verifie si l'utilisateur  bien creer son compte.\n  modifier isRegistred() {\n    require(mappingUsers[msg.sender].isRegistred, \"You're not a user\");\n    _;\n  }\n\n  // verifie si l'utilisateur est un utilisateur verificateur.\n  modifier isAuditor() {\n    require(mappingUsers[msg.sender].isAuditor, \"You're not a auditor\");\n    _;\n  }\n\n  //####################################\n  // The functions\n  //####################################\n  // :::::::::::::::::::::::::::::::::::::::::::: PRICE :::::::::::::::::::::::::::::::::::::::::::: //\n\n  /// @dev afficher la balance du contrat\n  function BalanceContrat() public view onlyOwner returns (uint){\n    return address(this).balance;\n  }\n\n  /// @dev change le prix pour la creation d'un Appel d'offre\n  function setAOprice(uint _nouveauPrix) external onlyOwner returns(uint) {\n    priceAO = _nouveauPrix; \n    return priceAO ; \n  }\n\n  /// @dev change le prix pour la creation d'un lot\n  function setLotprice(uint _nouveauPrix) external onlyOwner returns(uint) {\n    priceLot = _nouveauPrix; \n    return priceLot ; \n  }\n\n  // ::::::::::::::::::::::::::::::::::::::::::::: USER ::::::::::::::::::::::::::::::::::::::::::::: //\n\n  // ------------------------------------------------------\n  // User functions for manipulation account: \n  // ------------------------------------------------------\n\n  // creation de compte utilisateur.\n  function createAccount(string memory _name) external {\n    require(mappingUsers[msg.sender].isRegistred != true, \"Already registered\");\n    require(keccak256(abi.encode(_name)) != keccak256(abi.encode(\"\")), \"You can't put nothing as a name\");\n    mappingUsers[msg.sender].isRegistred = true;\n    mappingUsers[msg.sender].name = _name;\n    emit userAdded(msg.sender,_name);\n  }\n\n  // modification du compte utilisateur.\n  function editAccount(address _addr, string memory _name) external isRegistred {\n    require(keccak256(abi.encode(_name)) != keccak256(abi.encode(\"\")), \"You can't put nothing as a name\");\n    mappingUsers[_addr].name = _name;\n    emit userUpdated(_addr,_name);\n  }\n\n  // A VERIF\n  // demande de passage au statut auditeur. (a voir pour plus d'info pour contacter l'utilisateur)\n  function requestNewAuditor(address _addr) external isRegistred {\n    emit requestAuditor(_addr);\n  }\n\n  // A VERIF\n  // demande de validation des dones du compte par un auditeur. (a voir pour plus d'info pour contacter l'utilisateur)\n  function requestAcountValidation(address _addr) external isRegistred {\n    emit requestValide(_addr);\n  }\n\n  // recuperation des information d'un utilisateur.\n  function getAccount(address _addr) external isRegistred view returns (Users memory) {\n    return mappingUsers[_addr];\n  }\n\n  // ------------------------------------------------------\n  // Owner fuctions for user manipulations :\n  // ------------------------------------------------------\n\n  // recuperation des information d'un utilisateur.\n  function getAccountForOwner(address _addr) external onlyOwner view returns (Users memory) {\n    return mappingUsers[_addr];\n  }\n\n  // passage d'un utilisateur => verificateur.\n  function updateAcountToAuditor(address _addr) external onlyOwner returns (Users memory) {\n    mappingUsers[_addr].isAuditor = true;\n    emit userAuditor(_addr);\n    return mappingUsers[_addr];\n  }\n\n  // supprimer un compte au cas ou !\n  function deleteAccount(address _addr) external onlyOwner {\n    require(mappingUsers[_addr].isRegistred = true, \"user not registered\");\n    delete mappingUsers[_addr];\n    emit userDeleted(_addr);\n  }\n\n  // fonction transfer addr en cas de perte 0x... d'un user \n\n  // ------------------------------------------------------\n  // Auditor fuctions for user manipulations :\n  // ------------------------------------------------------\n\n  // mise a jour des donns de l'utilisateur (vrification utilisateur)\n  function updateAcountToApproval(address _addr) external isAuditor {\n    mappingUsers[_addr].isApproval = true;\n    mappingUsers[_addr].adresseValidateur = msg.sender;\n    mappingUsers[_addr].dateApprouval = block.timestamp;\n    emit userAudited(_addr, msg.sender, block.timestamp);\n  }\n\n\n  // ::::::::::::::::::::::::::::::::::::::::::::: AO ::::::::::::::::::::::::::::::::::::::::::::: //\n\n  function createAO(address _addr, string memory _name) external isRegistred payable {\n    require(msg.value >= priceAO , \"Veuillez mettre le bon montant\");\n    //require le montant de la transaction est ok\n    AO memory ao; \n    ao.aoName = _name;\n    ao.adressDDO = _addr;\n    ao.createdAt = block.timestamp;\n    tableauAO.push(ao);\n  }\n\n  function editAO(uint _index, string memory _name) external isRegistred {\n    require(tableauAO[_index].adressDDO == msg.sender,\"vous etes pas le DDO de cet Appel d offre\");\n    tableauAO[_index].aoName = _name;\n  }\n\n  // ::::::::::::::::::::::::::::::::::::::::::::: LOT ::::::::::::::::::::::::::::::::::::::::::::: //\n\n  // ajoute un lot\n  function addLOT(string memory _name, uint _numeroAO) external isRegistred  {\n    //le 0 tant l'index de depart on transmet un numeroAO = 1 pour index 0\n    //controle des requires\n    require(_numeroAO > 0 , \"Veuillez indiquer un numero AO\");\n    //on verifie que le nombre de lot max est pas atteint\n    // require(tableauAO[idAOmem].lotDeLAO.lengh < maxLot , \"Vous avez atteint la limite du nombre de lots\");\n    uint  idAOmem = _numeroAO-1 ;\n    //on cree un tableau en memory pour recuperer les infos transmise pour la creation du lot\n    LOT memory lot;\n    lot.description = _name;\n    lot.idAO = idAOmem;\n    //on l'ajout au tableau des lots\n    tableauLots.push(lot);\n    //on capte l'index de ce nouveau lot\n    uint indexNouveauLot = tableauLots.length -1 ;\n    //on le stocke galement dans la definition des idex des lots de l'AO\n    tableauAO[idAOmem].lotDeLAO.push(indexNouveauLot);\n    //on emet l'event ddi\n    //emit LOTcree(idAOmem, indexNouveauLot, emetteur) ;\n  }\n\n  \n  function editLOT(uint _idx, string memory _name) external isRegistred {\n    require( tableauAO[_idx].adressDDO == msg.sender,\"vous etes pas le DDO de cet Appel d offre\");\n    tableauAO[_idx].aoName = _name ;\n  }\n\n\n  function getAO(uint _idx) public view returns (string memory _nom, address _addrDDO, bool _isPaid ) {\n    return (tableauAO[_idx].aoName , tableauAO[_idx].adressDDO , tableauAO[_idx].isPaid ) ;\n  }\n\n  function transfertBalanceSecu (address _addr)external onlyOwner {\n    //fonction de securite admin pour transfrer tous les fonds vers une adresse de secours\n  }\n// ::::::::::::::::::::::::::::::::::::::::::::: PARTICIPATION ::::::::::::::::::::::::::::::::::::::::::::: //\n\n\n  function createParticipation(uint _idlot) external {\n    mappingParticipation[msg.sender].push(Participation(_idlot,block.timestamp,5,block.timestamp + 10,10));\n  }\n\n  function getParticipation(address _addr,uint _index) external view returns (Participation memory) {\n    return mappingParticipation[_addr][_index];\n  }\n\n  function getParticipationLength(address _addr) external view returns (uint) {\n    return mappingParticipation[_addr].length;\n  }\n\n  function removeParticipation(address _addr, uint _index) external{\n    delete mappingParticipation[_addr][_index];\n  }\n\n\n\n// :::::::::::::::::::::::::::::::::::::::::::::::::: NFT :::::::::::::::::::::::::::::::::::::::::::::::::: //\n\n// require pour que le createur de AO ne puisse pas participer a son AO\n// le soum a bien payer\n  // function createNftForLot() {\n    \n  // }\n\n  // function createNftForParticipation() {\n\n  // }\n\n  // function createNftForWinner() {\n\n  // }\n\n  // function createNftForWinnerAndAchivment() {\n\n  // }\n\n}\n",
  "sourcePath": "/Users/sebastienjeanneditdenis/Desktop/Alyra/cours/Semaine-08 Projet Final/Projet#4/truffle/contracts/TenderOnChain.sol",
  "compiler": {
    "name": "solc",
    "version": "0.8.17+commit.8df45f5f.Emscripten.clang"
  },
  "schemaVersion": "3.4.10",
  "updatedAt": "2022-11-29T15:25:43.059Z",
  "networkType": "ethereum",
  "devdoc": {
    "author": "Swuib and Sebastien HOFF",
    "kind": "dev",
    "methods": {
      "BalanceContrat()": {
        "details": "afficher la balance du contrat"
      },
      "owner()": {
        "details": "Returns the address of the current owner."
      },
      "renounceOwnership()": {
        "details": "Leaves the contract without owner. It will not be possible to call `onlyOwner` functions anymore. Can only be called by the current owner. NOTE: Renouncing ownership will leave the contract without an owner, thereby removing any functionality that is only available to the owner."
      },
      "setAOprice(uint256)": {
        "details": "change le prix pour la creation d'un Appel d'offre"
      },
      "setLotprice(uint256)": {
        "details": "change le prix pour la creation d'un lot"
      },
      "transferOwnership(address)": {
        "details": "Transfers ownership of the contract to a new account (`newOwner`). Can only be called by the current owner."
      }
    },
    "title": "TenderOnChain",
    "version": 1
  },
  "userdoc": {
    "kind": "user",
    "methods": {},
    "notice": "This contract ...",
    "version": 1
  }
}