{
  "contractName": "TenderOnChain",
  "abi": [
    {
      "inputs": [],
      "stateMutability": "nonpayable",
      "type": "constructor"
    },
    {
      "anonymous": false,
      "inputs": [
        {
          "indexed": false,
          "internalType": "uint256",
          "name": "indexAO",
          "type": "uint256"
        },
        {
          "indexed": false,
          "internalType": "string",
          "name": "name",
          "type": "string"
        },
        {
          "indexed": false,
          "internalType": "address",
          "name": "user",
          "type": "address"
        }
      ],
      "name": "AoCreated",
      "type": "event"
    },
    {
      "anonymous": false,
      "inputs": [
        {
          "indexed": false,
          "internalType": "uint256",
          "name": "indexAO",
          "type": "uint256"
        },
        {
          "indexed": false,
          "internalType": "string",
          "name": "name",
          "type": "string"
        },
        {
          "indexed": false,
          "internalType": "address",
          "name": "user",
          "type": "address"
        }
      ],
      "name": "AoEddited",
      "type": "event"
    },
    {
      "anonymous": false,
      "inputs": [
        {
          "indexed": true,
          "internalType": "address",
          "name": "owner",
          "type": "address"
        },
        {
          "indexed": true,
          "internalType": "address",
          "name": "approved",
          "type": "address"
        },
        {
          "indexed": true,
          "internalType": "uint256",
          "name": "tokenId",
          "type": "uint256"
        }
      ],
      "name": "Approval",
      "type": "event"
    },
    {
      "anonymous": false,
      "inputs": [
        {
          "indexed": true,
          "internalType": "address",
          "name": "owner",
          "type": "address"
        },
        {
          "indexed": true,
          "internalType": "address",
          "name": "operator",
          "type": "address"
        },
        {
          "indexed": false,
          "internalType": "bool",
          "name": "approved",
          "type": "bool"
        }
      ],
      "name": "ApprovalForAll",
      "type": "event"
    },
    {
      "anonymous": false,
      "inputs": [
        {
          "indexed": false,
          "internalType": "uint256",
          "name": "indexAO",
          "type": "uint256"
        },
        {
          "indexed": false,
          "internalType": "uint256",
          "name": "indexLOT",
          "type": "uint256"
        },
        {
          "indexed": false,
          "internalType": "address",
          "name": "user",
          "type": "address"
        },
        {
          "indexed": false,
          "internalType": "uint256",
          "name": "NftId",
          "type": "uint256"
        },
        {
          "indexed": false,
          "internalType": "string",
          "name": "name",
          "type": "string"
        }
      ],
      "name": "LotCreated",
      "type": "event"
    },
    {
      "anonymous": false,
      "inputs": [
        {
          "indexed": false,
          "internalType": "uint256",
          "name": "indexAO",
          "type": "uint256"
        },
        {
          "indexed": false,
          "internalType": "uint256",
          "name": "indexLOT",
          "type": "uint256"
        },
        {
          "indexed": false,
          "internalType": "address",
          "name": "winner",
          "type": "address"
        },
        {
          "indexed": false,
          "internalType": "uint256",
          "name": "NftId",
          "type": "uint256"
        }
      ],
      "name": "RealisationAttribution",
      "type": "event"
    },
    {
      "anonymous": false,
      "inputs": [
        {
          "indexed": true,
          "internalType": "address",
          "name": "from",
          "type": "address"
        },
        {
          "indexed": true,
          "internalType": "address",
          "name": "to",
          "type": "address"
        },
        {
          "indexed": true,
          "internalType": "uint256",
          "name": "tokenId",
          "type": "uint256"
        }
      ],
      "name": "Transfer",
      "type": "event"
    },
    {
      "anonymous": false,
      "inputs": [
        {
          "indexed": false,
          "internalType": "uint256",
          "name": "value",
          "type": "uint256"
        },
        {
          "indexed": false,
          "internalType": "address",
          "name": "user",
          "type": "address"
        }
      ],
      "name": "argentRecu",
      "type": "event"
    },
    {
      "anonymous": false,
      "inputs": [
        {
          "indexed": false,
          "internalType": "uint256",
          "name": "indexLOT",
          "type": "uint256"
        },
        {
          "indexed": false,
          "internalType": "address",
          "name": "user",
          "type": "address"
        },
        {
          "indexed": false,
          "internalType": "uint256",
          "name": "NftId",
          "type": "uint256"
        }
      ],
      "name": "participation",
      "type": "event"
    },
    {
      "anonymous": false,
      "inputs": [
        {
          "indexed": false,
          "internalType": "address",
          "name": "user",
          "type": "address"
        }
      ],
      "name": "requestAuditor",
      "type": "event"
    },
    {
      "anonymous": false,
      "inputs": [
        {
          "indexed": false,
          "internalType": "address",
          "name": "user",
          "type": "address"
        }
      ],
      "name": "requestValide",
      "type": "event"
    },
    {
      "anonymous": false,
      "inputs": [
        {
          "indexed": false,
          "internalType": "address",
          "name": "user",
          "type": "address"
        },
        {
          "indexed": false,
          "internalType": "string",
          "name": "name",
          "type": "string"
        }
      ],
      "name": "userAdded",
      "type": "event"
    },
    {
      "anonymous": false,
      "inputs": [
        {
          "indexed": false,
          "internalType": "address",
          "name": "user",
          "type": "address"
        },
        {
          "indexed": false,
          "internalType": "address",
          "name": "auditor",
          "type": "address"
        },
        {
          "indexed": false,
          "internalType": "uint256",
          "name": "time",
          "type": "uint256"
        }
      ],
      "name": "userAudited",
      "type": "event"
    },
    {
      "anonymous": false,
      "inputs": [
        {
          "indexed": false,
          "internalType": "address",
          "name": "user",
          "type": "address"
        }
      ],
      "name": "userAuditor",
      "type": "event"
    },
    {
      "anonymous": false,
      "inputs": [
        {
          "indexed": false,
          "internalType": "address",
          "name": "user",
          "type": "address"
        }
      ],
      "name": "userDeleted",
      "type": "event"
    },
    {
      "anonymous": false,
      "inputs": [
        {
          "indexed": false,
          "internalType": "address",
          "name": "user",
          "type": "address"
        },
        {
          "indexed": false,
          "internalType": "string",
          "name": "name",
          "type": "string"
        }
      ],
      "name": "userUpdated",
      "type": "event"
    },
    {
      "anonymous": false,
      "inputs": [
        {
          "indexed": false,
          "internalType": "uint256",
          "name": "indexAO",
          "type": "uint256"
        },
        {
          "indexed": false,
          "internalType": "uint256",
          "name": "indexLOT",
          "type": "uint256"
        },
        {
          "indexed": false,
          "internalType": "address",
          "name": "winner",
          "type": "address"
        },
        {
          "indexed": false,
          "internalType": "uint256",
          "name": "NftId",
          "type": "uint256"
        }
      ],
      "name": "winnerAttribution",
      "type": "event"
    },
    {
      "inputs": [],
      "name": "aoLength",
      "outputs": [
        {
          "internalType": "uint256",
          "name": "",
          "type": "uint256"
        }
      ],
      "stateMutability": "view",
      "type": "function",
      "constant": true
    },
    {
      "inputs": [
        {
          "internalType": "address",
          "name": "to",
          "type": "address"
        },
        {
          "internalType": "uint256",
          "name": "tokenId",
          "type": "uint256"
        }
      ],
      "name": "approve",
      "outputs": [],
      "stateMutability": "nonpayable",
      "type": "function"
    },
    {
      "inputs": [
        {
          "internalType": "uint256",
          "name": "",
          "type": "uint256"
        }
      ],
      "name": "arrayAO",
      "outputs": [
        {
          "internalType": "address",
          "name": "adressDDO",
          "type": "address"
        },
        {
          "internalType": "string",
          "name": "aoName",
          "type": "string"
        },
        {
          "internalType": "uint8",
          "name": "lastLotId",
          "type": "uint8"
        },
        {
          "internalType": "uint256",
          "name": "createdAt",
          "type": "uint256"
        },
        {
          "internalType": "bool",
          "name": "isOpen",
          "type": "bool"
        }
      ],
      "stateMutability": "view",
      "type": "function",
      "constant": true
    },
    {
      "inputs": [
        {
          "internalType": "address",
          "name": "owner",
          "type": "address"
        }
      ],
      "name": "balanceOf",
      "outputs": [
        {
          "internalType": "uint256",
          "name": "",
          "type": "uint256"
        }
      ],
      "stateMutability": "view",
      "type": "function",
      "constant": true
    },
    {
      "inputs": [],
      "name": "dev",
      "outputs": [
        {
          "internalType": "address payable",
          "name": "",
          "type": "address"
        }
      ],
      "stateMutability": "view",
      "type": "function",
      "constant": true
    },
    {
      "inputs": [
        {
          "internalType": "uint256",
          "name": "tokenId",
          "type": "uint256"
        }
      ],
      "name": "getApproved",
      "outputs": [
        {
          "internalType": "address",
          "name": "",
          "type": "address"
        }
      ],
      "stateMutability": "view",
      "type": "function",
      "constant": true
    },
    {
      "inputs": [
        {
          "internalType": "address",
          "name": "owner",
          "type": "address"
        },
        {
          "internalType": "address",
          "name": "operator",
          "type": "address"
        }
      ],
      "name": "isApprovedForAll",
      "outputs": [
        {
          "internalType": "bool",
          "name": "",
          "type": "bool"
        }
      ],
      "stateMutability": "view",
      "type": "function",
      "constant": true
    },
    {
      "inputs": [],
      "name": "lotLength",
      "outputs": [
        {
          "internalType": "uint256",
          "name": "",
          "type": "uint256"
        }
      ],
      "stateMutability": "view",
      "type": "function",
      "constant": true
    },
    {
      "inputs": [],
      "name": "name",
      "outputs": [
        {
          "internalType": "string",
          "name": "",
          "type": "string"
        }
      ],
      "stateMutability": "view",
      "type": "function",
      "constant": true
    },
    {
      "inputs": [],
      "name": "owner",
      "outputs": [
        {
          "internalType": "address",
          "name": "",
          "type": "address"
        }
      ],
      "stateMutability": "view",
      "type": "function",
      "constant": true
    },
    {
      "inputs": [
        {
          "internalType": "uint256",
          "name": "tokenId",
          "type": "uint256"
        }
      ],
      "name": "ownerOf",
      "outputs": [
        {
          "internalType": "address",
          "name": "",
          "type": "address"
        }
      ],
      "stateMutability": "view",
      "type": "function",
      "constant": true
    },
    {
      "inputs": [],
      "name": "priceAO",
      "outputs": [
        {
          "internalType": "uint256",
          "name": "",
          "type": "uint256"
        }
      ],
      "stateMutability": "view",
      "type": "function",
      "constant": true
    },
    {
      "inputs": [],
      "name": "priceLot",
      "outputs": [
        {
          "internalType": "uint256",
          "name": "",
          "type": "uint256"
        }
      ],
      "stateMutability": "view",
      "type": "function",
      "constant": true
    },
    {
      "inputs": [
        {
          "internalType": "address",
          "name": "from",
          "type": "address"
        },
        {
          "internalType": "address",
          "name": "to",
          "type": "address"
        },
        {
          "internalType": "uint256",
          "name": "tokenId",
          "type": "uint256"
        }
      ],
      "name": "safeTransferFrom",
      "outputs": [],
      "stateMutability": "nonpayable",
      "type": "function"
    },
    {
      "inputs": [
        {
          "internalType": "address",
          "name": "from",
          "type": "address"
        },
        {
          "internalType": "address",
          "name": "to",
          "type": "address"
        },
        {
          "internalType": "uint256",
          "name": "tokenId",
          "type": "uint256"
        },
        {
          "internalType": "bytes",
          "name": "data",
          "type": "bytes"
        }
      ],
      "name": "safeTransferFrom",
      "outputs": [],
      "stateMutability": "nonpayable",
      "type": "function"
    },
    {
      "inputs": [
        {
          "internalType": "address",
          "name": "operator",
          "type": "address"
        },
        {
          "internalType": "bool",
          "name": "approved",
          "type": "bool"
        }
      ],
      "name": "setApprovalForAll",
      "outputs": [],
      "stateMutability": "nonpayable",
      "type": "function"
    },
    {
      "inputs": [
        {
          "internalType": "bytes4",
          "name": "interfaceId",
          "type": "bytes4"
        }
      ],
      "name": "supportsInterface",
      "outputs": [
        {
          "internalType": "bool",
          "name": "",
          "type": "bool"
        }
      ],
      "stateMutability": "view",
      "type": "function",
      "constant": true
    },
    {
      "inputs": [],
      "name": "symbol",
      "outputs": [
        {
          "internalType": "string",
          "name": "",
          "type": "string"
        }
      ],
      "stateMutability": "view",
      "type": "function",
      "constant": true
    },
    {
      "inputs": [
        {
          "internalType": "uint256",
          "name": "tokenId",
          "type": "uint256"
        }
      ],
      "name": "tokenURI",
      "outputs": [
        {
          "internalType": "string",
          "name": "",
          "type": "string"
        }
      ],
      "stateMutability": "view",
      "type": "function",
      "constant": true
    },
    {
      "inputs": [
        {
          "internalType": "address",
          "name": "from",
          "type": "address"
        },
        {
          "internalType": "address",
          "name": "to",
          "type": "address"
        },
        {
          "internalType": "uint256",
          "name": "tokenId",
          "type": "uint256"
        }
      ],
      "name": "transferFrom",
      "outputs": [],
      "stateMutability": "nonpayable",
      "type": "function"
    },
    {
      "inputs": [],
      "name": "userLength",
      "outputs": [
        {
          "internalType": "uint256",
          "name": "",
          "type": "uint256"
        }
      ],
      "stateMutability": "view",
      "type": "function",
      "constant": true
    },
    {
      "inputs": [],
      "name": "BalanceContrat",
      "outputs": [
        {
          "internalType": "uint256",
          "name": "",
          "type": "uint256"
        }
      ],
      "stateMutability": "view",
      "type": "function",
      "constant": true
    },
    {
      "inputs": [
        {
          "internalType": "uint256",
          "name": "_nouveauPrix",
          "type": "uint256"
        }
      ],
      "name": "setAOprice",
      "outputs": [
        {
          "internalType": "uint256",
          "name": "",
          "type": "uint256"
        }
      ],
      "stateMutability": "nonpayable",
      "type": "function"
    },
    {
      "inputs": [
        {
          "internalType": "uint256",
          "name": "_nouveauPrix",
          "type": "uint256"
        }
      ],
      "name": "setLotprice",
      "outputs": [
        {
          "internalType": "uint256",
          "name": "",
          "type": "uint256"
        }
      ],
      "stateMutability": "nonpayable",
      "type": "function"
    },
    {
      "inputs": [],
      "name": "destroy",
      "outputs": [],
      "stateMutability": "nonpayable",
      "type": "function"
    },
    {
      "inputs": [
        {
          "internalType": "address",
          "name": "_to",
          "type": "address"
        }
      ],
      "name": "transfertBalanceSecu",
      "outputs": [],
      "stateMutability": "nonpayable",
      "type": "function"
    },
    {
      "inputs": [
        {
          "internalType": "address",
          "name": "_to",
          "type": "address"
        },
        {
          "internalType": "uint256",
          "name": "_amount",
          "type": "uint256"
        }
      ],
      "name": "transfertBalanceSecuAmount",
      "outputs": [],
      "stateMutability": "nonpayable",
      "type": "function"
    },
    {
      "inputs": [
        {
          "internalType": "string",
          "name": "_name",
          "type": "string"
        }
      ],
      "name": "createAccount",
      "outputs": [],
      "stateMutability": "nonpayable",
      "type": "function"
    },
    {
      "inputs": [
        {
          "internalType": "address",
          "name": "_addr",
          "type": "address"
        },
        {
          "internalType": "string",
          "name": "_name",
          "type": "string"
        }
      ],
      "name": "editAccount",
      "outputs": [],
      "stateMutability": "nonpayable",
      "type": "function"
    },
    {
      "inputs": [],
      "name": "requestNewAuditor",
      "outputs": [],
      "stateMutability": "nonpayable",
      "type": "function"
    },
    {
      "inputs": [],
      "name": "requestAcountValidation",
      "outputs": [],
      "stateMutability": "nonpayable",
      "type": "function"
    },
    {
      "inputs": [
        {
          "internalType": "address",
          "name": "_addr",
          "type": "address"
        }
      ],
      "name": "getAccount",
      "outputs": [
        {
          "components": [
            {
              "internalType": "bool",
              "name": "isRegistred",
              "type": "bool"
            },
            {
              "internalType": "bool",
              "name": "reqIsAuditor",
              "type": "bool"
            },
            {
              "internalType": "bool",
              "name": "isAuditor",
              "type": "bool"
            },
            {
              "internalType": "bool",
              "name": "reqIsApproval",
              "type": "bool"
            },
            {
              "internalType": "bool",
              "name": "isApproval",
              "type": "bool"
            },
            {
              "internalType": "uint256",
              "name": "dateApprouval",
              "type": "uint256"
            },
            {
              "internalType": "uint256",
              "name": "countNFTWinner",
              "type": "uint256"
            },
            {
              "internalType": "uint256",
              "name": "countNFTReal",
              "type": "uint256"
            },
            {
              "internalType": "uint256",
              "name": "countParticipation",
              "type": "uint256"
            },
            {
              "internalType": "address",
              "name": "adresseValidateur",
              "type": "address"
            },
            {
              "internalType": "string",
              "name": "name",
              "type": "string"
            }
          ],
          "internalType": "struct TenderOnChain.Users",
          "name": "",
          "type": "tuple"
        }
      ],
      "stateMutability": "view",
      "type": "function",
      "constant": true
    },
    {
      "inputs": [
        {
          "internalType": "address",
          "name": "_addr",
          "type": "address"
        }
      ],
      "name": "getAccountForOwner",
      "outputs": [
        {
          "components": [
            {
              "internalType": "bool",
              "name": "isRegistred",
              "type": "bool"
            },
            {
              "internalType": "bool",
              "name": "reqIsAuditor",
              "type": "bool"
            },
            {
              "internalType": "bool",
              "name": "isAuditor",
              "type": "bool"
            },
            {
              "internalType": "bool",
              "name": "reqIsApproval",
              "type": "bool"
            },
            {
              "internalType": "bool",
              "name": "isApproval",
              "type": "bool"
            },
            {
              "internalType": "uint256",
              "name": "dateApprouval",
              "type": "uint256"
            },
            {
              "internalType": "uint256",
              "name": "countNFTWinner",
              "type": "uint256"
            },
            {
              "internalType": "uint256",
              "name": "countNFTReal",
              "type": "uint256"
            },
            {
              "internalType": "uint256",
              "name": "countParticipation",
              "type": "uint256"
            },
            {
              "internalType": "address",
              "name": "adresseValidateur",
              "type": "address"
            },
            {
              "internalType": "string",
              "name": "name",
              "type": "string"
            }
          ],
          "internalType": "struct TenderOnChain.Users",
          "name": "",
          "type": "tuple"
        }
      ],
      "stateMutability": "view",
      "type": "function",
      "constant": true
    },
    {
      "inputs": [
        {
          "internalType": "address",
          "name": "_addr",
          "type": "address"
        }
      ],
      "name": "updateAcountToAuditor",
      "outputs": [
        {
          "components": [
            {
              "internalType": "bool",
              "name": "isRegistred",
              "type": "bool"
            },
            {
              "internalType": "bool",
              "name": "reqIsAuditor",
              "type": "bool"
            },
            {
              "internalType": "bool",
              "name": "isAuditor",
              "type": "bool"
            },
            {
              "internalType": "bool",
              "name": "reqIsApproval",
              "type": "bool"
            },
            {
              "internalType": "bool",
              "name": "isApproval",
              "type": "bool"
            },
            {
              "internalType": "uint256",
              "name": "dateApprouval",
              "type": "uint256"
            },
            {
              "internalType": "uint256",
              "name": "countNFTWinner",
              "type": "uint256"
            },
            {
              "internalType": "uint256",
              "name": "countNFTReal",
              "type": "uint256"
            },
            {
              "internalType": "uint256",
              "name": "countParticipation",
              "type": "uint256"
            },
            {
              "internalType": "address",
              "name": "adresseValidateur",
              "type": "address"
            },
            {
              "internalType": "string",
              "name": "name",
              "type": "string"
            }
          ],
          "internalType": "struct TenderOnChain.Users",
          "name": "",
          "type": "tuple"
        }
      ],
      "stateMutability": "nonpayable",
      "type": "function"
    },
    {
      "inputs": [
        {
          "internalType": "address",
          "name": "_addr",
          "type": "address"
        }
      ],
      "name": "deleteAccount",
      "outputs": [],
      "stateMutability": "nonpayable",
      "type": "function"
    },
    {
      "inputs": [
        {
          "internalType": "address",
          "name": "_oldAddress",
          "type": "address"
        },
        {
          "internalType": "address",
          "name": "_newAddress",
          "type": "address"
        }
      ],
      "name": "updateAccount",
      "outputs": [
        {
          "internalType": "bool",
          "name": "",
          "type": "bool"
        }
      ],
      "stateMutability": "nonpayable",
      "type": "function"
    },
    {
      "inputs": [
        {
          "internalType": "address",
          "name": "_addr",
          "type": "address"
        },
        {
          "internalType": "bool",
          "name": "_result",
          "type": "bool"
        }
      ],
      "name": "updateAcountToApproval",
      "outputs": [],
      "stateMutability": "nonpayable",
      "type": "function"
    },
    {
      "inputs": [
        {
          "internalType": "string",
          "name": "_name",
          "type": "string"
        }
      ],
      "name": "createAO",
      "outputs": [],
      "stateMutability": "payable",
      "type": "function",
      "payable": true
    },
    {
      "inputs": [
        {
          "internalType": "uint256",
          "name": "_index",
          "type": "uint256"
        },
        {
          "internalType": "string",
          "name": "_name",
          "type": "string"
        }
      ],
      "name": "editAO",
      "outputs": [],
      "stateMutability": "nonpayable",
      "type": "function"
    },
    {
      "inputs": [
        {
          "internalType": "uint256",
          "name": "_index",
          "type": "uint256"
        },
        {
          "internalType": "string",
          "name": "_desc",
          "type": "string"
        },
        {
          "internalType": "uint256",
          "name": "_ts",
          "type": "uint256"
        },
        {
          "internalType": "string",
          "name": "_cat",
          "type": "string"
        },
        {
          "internalType": "string",
          "name": "_suscat",
          "type": "string"
        },
        {
          "internalType": "uint256",
          "name": "_min",
          "type": "uint256"
        },
        {
          "internalType": "uint256",
          "name": "_max",
          "type": "uint256"
        },
        {
          "internalType": "string",
          "name": "_uriJson",
          "type": "string"
        },
        {
          "internalType": "string",
          "name": "_uriLinkFile",
          "type": "string"
        }
      ],
      "name": "createLot",
      "outputs": [],
      "stateMutability": "nonpayable",
      "type": "function"
    },
    {
      "inputs": [
        {
          "internalType": "uint256",
          "name": "_index",
          "type": "uint256"
        }
      ],
      "name": "getArrayLots",
      "outputs": [
        {
          "components": [
            {
              "internalType": "bool",
              "name": "isNftAttributionEmit",
              "type": "bool"
            },
            {
              "internalType": "bool",
              "name": "isNftRealisationEmit",
              "type": "bool"
            },
            {
              "internalType": "uint256",
              "name": "idAO",
              "type": "uint256"
            },
            {
              "internalType": "uint256",
              "name": "TsCloture",
              "type": "uint256"
            },
            {
              "internalType": "uint256",
              "name": "TsAtt",
              "type": "uint256"
            },
            {
              "internalType": "uint256",
              "name": "minprice",
              "type": "uint256"
            },
            {
              "internalType": "uint256",
              "name": "maxprice",
              "type": "uint256"
            },
            {
              "internalType": "uint256",
              "name": "partLengt",
              "type": "uint256"
            },
            {
              "internalType": "address",
              "name": "winner",
              "type": "address"
            },
            {
              "internalType": "address",
              "name": "adressDDO",
              "type": "address"
            },
            {
              "internalType": "string",
              "name": "description",
              "type": "string"
            },
            {
              "internalType": "string",
              "name": "categorie",
              "type": "string"
            },
            {
              "internalType": "string",
              "name": "susCategorie",
              "type": "string"
            },
            {
              "internalType": "string",
              "name": "URIPDF",
              "type": "string"
            }
          ],
          "internalType": "struct TenderOnChain.LOT",
          "name": "",
          "type": "tuple"
        }
      ],
      "stateMutability": "view",
      "type": "function",
      "constant": true
    },
    {
      "inputs": [
        {
          "internalType": "uint256",
          "name": "_idlot",
          "type": "uint256"
        },
        {
          "internalType": "uint256",
          "name": "_price",
          "type": "uint256"
        },
        {
          "internalType": "string",
          "name": "_uri",
          "type": "string"
        }
      ],
      "name": "createParticipation",
      "outputs": [],
      "stateMutability": "payable",
      "type": "function",
      "payable": true
    },
    {
      "inputs": [
        {
          "internalType": "uint256",
          "name": "_index",
          "type": "uint256"
        }
      ],
      "name": "getMyParticipation",
      "outputs": [
        {
          "components": [
            {
              "internalType": "uint256",
              "name": "idLot",
              "type": "uint256"
            },
            {
              "internalType": "uint256",
              "name": "Tsprice1",
              "type": "uint256"
            },
            {
              "internalType": "uint256",
              "name": "price1",
              "type": "uint256"
            },
            {
              "internalType": "bool",
              "name": "isWinner",
              "type": "bool"
            },
            {
              "internalType": "bool",
              "name": "isRealisation",
              "type": "bool"
            }
          ],
          "internalType": "struct TenderOnChain.Participation",
          "name": "",
          "type": "tuple"
        }
      ],
      "stateMutability": "view",
      "type": "function",
      "constant": true
    },
    {
      "inputs": [
        {
          "internalType": "address",
          "name": "_addr",
          "type": "address"
        },
        {
          "internalType": "uint256",
          "name": "_index",
          "type": "uint256"
        },
        {
          "internalType": "uint256",
          "name": "_indexAo",
          "type": "uint256"
        }
      ],
      "name": "getParticipation",
      "outputs": [
        {
          "components": [
            {
              "internalType": "uint256",
              "name": "idLot",
              "type": "uint256"
            },
            {
              "internalType": "uint256",
              "name": "Tsprice1",
              "type": "uint256"
            },
            {
              "internalType": "uint256",
              "name": "price1",
              "type": "uint256"
            },
            {
              "internalType": "bool",
              "name": "isWinner",
              "type": "bool"
            },
            {
              "internalType": "bool",
              "name": "isRealisation",
              "type": "bool"
            }
          ],
          "internalType": "struct TenderOnChain.Participation",
          "name": "",
          "type": "tuple"
        }
      ],
      "stateMutability": "view",
      "type": "function",
      "constant": true
    },
    {
      "inputs": [
        {
          "internalType": "address",
          "name": "_addr",
          "type": "address"
        },
        {
          "internalType": "uint256",
          "name": "_index",
          "type": "uint256"
        }
      ],
      "name": "getParticipationOwner",
      "outputs": [
        {
          "components": [
            {
              "internalType": "uint256",
              "name": "idLot",
              "type": "uint256"
            },
            {
              "internalType": "uint256",
              "name": "Tsprice1",
              "type": "uint256"
            },
            {
              "internalType": "uint256",
              "name": "price1",
              "type": "uint256"
            },
            {
              "internalType": "bool",
              "name": "isWinner",
              "type": "bool"
            },
            {
              "internalType": "bool",
              "name": "isRealisation",
              "type": "bool"
            }
          ],
          "internalType": "struct TenderOnChain.Participation",
          "name": "",
          "type": "tuple"
        }
      ],
      "stateMutability": "view",
      "type": "function",
      "constant": true
    },
    {
      "inputs": [
        {
          "internalType": "address",
          "name": "_addr",
          "type": "address"
        }
      ],
      "name": "getParticipationLength",
      "outputs": [
        {
          "internalType": "uint256",
          "name": "",
          "type": "uint256"
        }
      ],
      "stateMutability": "view",
      "type": "function",
      "constant": true
    },
    {
      "inputs": [
        {
          "internalType": "address",
          "name": "_addr",
          "type": "address"
        },
        {
          "internalType": "uint256",
          "name": "_index",
          "type": "uint256"
        }
      ],
      "name": "removeParticipation",
      "outputs": [],
      "stateMutability": "nonpayable",
      "type": "function"
    },
    {
      "inputs": [
        {
          "internalType": "uint256",
          "name": "_niveau",
          "type": "uint256"
        },
        {
          "internalType": "uint256",
          "name": "_indexAo",
          "type": "uint256"
        },
        {
          "internalType": "uint256",
          "name": "_indexLot",
          "type": "uint256"
        },
        {
          "internalType": "uint256",
          "name": "_index",
          "type": "uint256"
        },
        {
          "internalType": "address",
          "name": "_addr",
          "type": "address"
        },
        {
          "internalType": "string",
          "name": "_uriJson",
          "type": "string"
        }
      ],
      "name": "attribution",
      "outputs": [],
      "stateMutability": "nonpayable",
      "type": "function"
    }
  ],
  "bytecode": "0x60803462000361576001600160401b0390604090808201838111828210176200034b578252600d81526020926c2a22a72222a927a721a420a4a760991b848301528251838101818110838211176200034b5784526003815262544f4360e81b858201528251908282116200034b5760008054926001958685811c9516801562000340575b898610146200032c578190601f95868111620002d9575b5089908683116001146200027557849262000269575b5050600019600383901b1c191690861b1781555b8151938411620002555784548581811c911680156200024a575b888210146200023657838111620001ee575b508692841160011462000188578394959650926200017c575b5050600019600383901b1c191690821b1790555b600780546001600160a01b03191633179055600880546001600160a81b031916741e9b35fa8639bb06712600840184c3707f0ebbf012179055670de0b6b3a7640000600a5567016345785d8a0000600b55516143439081620003678239f35b01519050388062000109565b9190601f1984169685845280842093905b888210620001d65750508385969710620001bc575b505050811b0190556200011d565b015160001960f88460031b161c19169055388080620001ae565b80878596829496860151815501950193019062000199565b8582528782208480870160051c8201928a88106200022c575b0160051c019086905b82811062000220575050620000f0565b83815501869062000210565b9250819262000207565b634e487b7160e01b82526022600452602482fd5b90607f1690620000de565b634e487b7160e01b81526041600452602490fd5b015190503880620000b0565b8480528a85208994509190601f198416865b8d828210620002c25750508411620002a8575b505050811b018155620000c4565b015160001960f88460031b161c191690553880806200029a565b8385015186558c9790950194938401930162000287565b9091508380528984208680850160051c8201928c861062000322575b918a91869594930160051c01915b828110620003135750506200009a565b8681558594508a910162000303565b92508192620002f5565b634e487b7160e01b83526022600452602483fd5b94607f169462000083565b634e487b7160e01b600052604160045260246000fd5b600080fdfe608080604052600436101561001357600080fd5b60003560e01c90816301ffc9a7146133475750806306fdde03146132a4578063081812fc14613286578063095ea7b31461310c5780630d3e0822146127c057806316b53e31146127555780631be6ddee1461255c5780632293ca1a1461250157806323b872dd146124d85780632413cab614612400578063256da24f146123e2578063298daf5b1461217d5780632f69098f14611d9657806339eb509114611d785780633cef69c114611d4757806342842e0e14611d1f5780634c1b64cb14611c9e5780635136dc8514611b9a57806359e203e1146119a25780635c8b1f69146119845780636352211e1461195457806370a08231146118bd578063756f1c7d1461189f57806382d6ea091461153357806383197ef0146115035780638da5cb5b146114da57806391cca3db146114b157806395666de31461139257806395d89b41146112b35780639639b20214611295578063970cbeac14611170578063983df4c814610dd5578063a22cb46514610d10578063b785cc3114610cbd578063b88d4fde14610c5c578063bdfd060814610be0578063be2b27d114610ba9578063c68fdbd514610a84578063c87b56dd14610a12578063cababc711461099c578063ccfba83014610965578063d1a52a0a14610788578063e1eb044e146104ee578063e8f86cd11461048b578063e985e9c514610435578063ea71159c146103c3578063f31bddca1461032b5763fbcbc0f11461022f57600080fd5b346103265760203660031901126103265761032261024b6133f2565b61025361387a565b50336000526011602052610310600660ff92610275846040600020541661382e565b60018060a01b0380911660005260116020526040600020906040519461029a8661343a565b825481811615158752818160081c1615156020880152818160101c1615156040880152818160181c161515606088015260201c1615156080860152600182015460a0860152600282015460c0860152600382015460e08601526004820154610100860152600582015416610120850152016136a7565b6101408201526040519182918261356d565b0390f35b600080fd5b3461032657602036600319011261032657610344613ad2565b5033600052601160205261035f60ff6040600020541661382e565b33600052601260205261032261038461037e6004356040600020613ab6565b50613afd565b6040519182918291909160808060a083019480518452602081015160208501526040810151604085015260608101511515606085015201511515910152565b34610326576000366003190112610326573360005260116020526103ee60ff6040600020541661382e565b336000526011602052604060002061010061ff00198254161790557fafe92cf1e686d40d9fe75324acc5793ff623b23896e8b1edd5b36f2a1bed7c206020604051338152a1005b346103265760403660031901126103265761044e6133f2565b610456613408565b9060018060a01b03809116600052600560205260406000209116600052602052602060ff604060002054166040519015158152f35b346103265760203660031901126103265760008080806104a96133f2565b6007546001600160a01b0391906104c3908316331461374d565b4791839183156104e4575b1690f1156104d857005b6040513d6000823e3d90fd5b6108fc92506104ce565b6060366003190112610326576004356044356001600160401b0381116103265761051c90369060040161351a565b3360005260119060209082825261053a60ff6040600020541661382e565b610548600b5434101561393c565b600261055385613a7b565b50015442101561074357600080808060018060a01b036008541681903415610739575b3491f1156104d85733600052601282526040600020906040519161059983613456565b85835283830190428252604084019360249485358152606082019360008552608083019360008552805490600160401b82101561072457906105e091600182018155613ab6565b93909361070f579261061b926003926106329796955183555160018301555160028201550192511515839060ff801983541691151516179055565b51815461ff00191690151560081b61ff0016179055565b600661063d86613a7b565b500154600181018091116106fb57600661065687613a7b565b50015533600052838352600460406000200154600181018091116106fb579061069d913360005285855260046040600020015561069560095430613dfb565b60095461417f565b60095492600184018094116106e9577f19b660527d3ef255bfadfa50d3789ce4bf60be85b6828729ff4cfdf633b8ff0460608686868160095560405192835233908301526040820152a1005b634e487b7160e01b6000526004526000fd5b8285634e487b7160e01b6000526004526000fd5b87634e487b7160e01b60005260006004526000fd5b88634e487b7160e01b60005260416004526000fd5b6108fc9150610576565b60405162461bcd60e51b815260048101839052601b60248201527f6c27617070656c2064276f6666726520657374207465726d696e6500000000006044820152606490fd5b34610326576040366003190112610326576001600160401b03600435602435828111610326576107bc90369060040161351a565b33600052602092601184526107d860ff6040600020541661382e565b6107f66107e484613632565b50546001600160a01b031633146139b6565b6107ff83613632565b5090600180920191835191821161094f5761081a835461366d565b601f8111610914575b5085601f831160011461089057508180917f42abd43d969acccaa5e8a072e53c639ce3617513087edde559a847b9fd47c8c797600093610885575b501b916000199060031b1c19161790555b610880604051928392339184613988565b0390a1005b86015192508861085e565b601f929192198216968460005281600020916000905b8982106108fd575050827f42abd43d969acccaa5e8a072e53c639ce3617513087edde559a847b9fd47c8c798106108e4575b5050811b01905561086f565b85015160001960f88460031b161c1916905586806108d8565b808684958294958b015181550194019201906108a6565b61093f908460005287600020601f850160051c810191898610610945575b601f0160051c01906137f5565b86610823565b9091508190610932565b634e487b7160e01b600052604160045260246000fd5b3461032657602036600319011261032657602060043561099060018060a01b0360075416331461374d565b80600a55604051908152f35b34610326576000366003190112610326573360005260116020526109c760ff6040600020541661382e565b3360005260116020526040600020630100000063ff000000198254161790557faf0ea5a986d535a6d485f06d0956f5737418735d3ea67305e75152b58b8bc80c6020604051338152a1005b3461032657602036600319011261032657600435600081815260026020526040902054610a49906001600160a01b03161515613b97565b6000526006602052610322610a6160406000206136a7565b6000604051610a6f81613471565b526040519182916020835260208301906133b2565b3461032657602036600319011261032657600435600f5481101561032657600f6000526006027f8d1108e10bcb7c27dddfc02ed9d693a074039d026cf4ea4240b40f7d581ac8028101546001600160a01b0316610b027f8d1108e10bcb7c27dddfc02ed9d693a074039d026cf4ea4240b40f7d581ac80383016136a7565b9160ff7f8d1108e10bcb7c27dddfc02ed9d693a074039d026cf4ea4240b40f7d581ac804820154169060ff7f8d1108e10bcb7c27dddfc02ed9d693a074039d026cf4ea4240b40f7d581ac8077f8d1108e10bcb7c27dddfc02ed9d693a074039d026cf4ea4240b40f7d581ac8068301549201541690610b93604051958695865260a0602087015260a08601906133b2565b9260408501526060840152151560808301520390f35b34610326576020366003190112610326576020600435610bd460018060a01b0360075416331461374d565b80600b55604051908152f35b3461032657606036600319011261032657610bf96133f2565b610c01613ad2565b50336000526011602052610c1c60ff6040600020541661382e565b610c366002610c2c604435613a7b565b5001544211613b41565b60018060a01b0316600052601260205261032261038461037e6024356040600020613ab6565b3461032657608036600319011261032657610c756133f2565b610c7d613408565b606435916001600160401b038311610326573660238401121561032657610cb1610cbb9336906024816004013591016134e3565b9160443591613ca6565b005b3461032657602036600319011261032657610cd66133f2565b336000526011602052610cf060ff6040600020541661382e565b60018060a01b031660005260126020526020604060002054604051908152f35b3461032657610d1e36613603565b6001600160a01b0390911690338214610d9057336000526005602052604060002082600052602052610d608160406000209060ff801983541691151516179055565b60405190151581527f17307eab39ab6107e8899845ad3d59bd9653f200f220920489ca2b5937696c3160203392a3005b60405162461bcd60e51b815260206004820152601960248201527f4552433732313a20617070726f766520746f2063616c6c6572000000000000006044820152606490fd5b6020366003190112610326576004356001600160401b03811161032657610e0090369060040161351a565b336000526011602052610e1a60ff6040600020541661382e565b610e28600a5434101561393c565b610e83604051602081019060208252610e5681610e4860408201876133b2565b03601f1981018352826134a7565b5190206040516020810190602082526000604082015260408152610e798161348c565b5190201415613798565b6040519060c082018281106001600160401b0382111761094f576040526020820160006040840152606080840152818152338352426080840152600060a0840152600f54600160401b81101561094f57806001610ee39201600f55613632565b91909161115a57835182546001600160a01b0319166001600160a01b03919091161782555180519093906001600160401b03811161094f57610f28600184015461366d565b601f8111611125575b506020601f82116001146110b65781929394956000926110ab575b50508160011b916000199060031b1c19161760018301555b6002820160ff60408301511660ff19825416179055600382016060820151908151916001600160401b03831161094f57600160401b831161094f57602090825484845580851061108e575b500190600052602060002060005b83811061107a5786610fef87600560a089608081015160048501550151151591019060ff801983541691151516179055565b600080808060018060a01b036008541681903415611070575b3491f1156104d8577fb74032044d2ea8b30e2d9d13f59a2de56d7c7727582e5c17133251d5b2101dbb611047600c549260405191829133908684613988565b0390a16001810180911161105a57600c55005b634e487b7160e01b600052601160045260246000fd5b6108fc9150611008565b600190602084519401938184015501610fbd565b6110a59084600052858460002091820191016137f5565b87610faf565b015190508580610f4c565b6001840160005260206000209060005b601f198416811061110d575060019394959683601f198116106110f4575b505050811b016001830155610f64565b015160001960f88460031b161c191690558580806110e4565b9091602060018192858b0151815501930191016110c6565b61115490600185016000526020600020601f840160051c8101916020851061094557601f0160051c01906137f5565b85610f31565b634e487b7160e01b600052600060045260246000fd5b34610326576040366003190112610326576111896133f2565b60243560018060a01b036111a28160075416331461374d565b8115611238578147106111c15760008080938193861682f1156104d857005b60a460405162461bcd60e51b815260206004820152604460248201527f4c6520636f6e74726174206e27612070617320737566666973616d6d656e742060448201527f646520666f6e647320706f757220656666656374756572206c65207472616e7360648201526319995c9d60e21b6084820152fd5b60405162461bcd60e51b815260206004820152602f60248201527f4c65206d6f6e74616e74206465207472616e736665727420646f69742065747260448201526e065207375706572696575722061203608c1b6064820152608490fd5b34610326576000366003190112610326576020600d54604051908152f35b3461032657600036600319011261032657604051600060018054906112d78261366d565b8085529181811690811561136b5750600114611312575b610322846112fe818603826134a7565b6040519182916020835260208301906133b2565b600081815292507fb10e2d527612073b26eecdfd717e6a320cf44b4afac2b0732d9fcbe2b7fa0cf65b8284106113535750505081016020016112fe826112ee565b8054602085870181019190915290930192810161133b565b60ff191660208087019190915292151560051b850190920192506112fe91508390506112ee565b3461032657602080600319360112610326576103229061031060066113b56133f2565b6113bd61387a565b506007546001600160a01b039182916113d9908316331461374d565b16600081815260118652604090819020805462ffff00191662010000179055518181527f50f5507c2428baff49ee7875d073bd487f89a04190c499d0344dfe7a91bfa654908690a16000526011845260406000209060ff6040519561143d8761343a565b83549082821615158852828260081c16151581890152828260101c1615156040890152828260181c16151560608901521c1615156080860152600182015460a0860152600282015460c0860152600382015460e08601526004820154610100860152600582015416610120850152016136a7565b34610326576000366003190112610326576008546040516001600160a01b039091168152602090f35b34610326576000366003190112610326576007546040516001600160a01b039091168152602090f35b34610326576000366003190112610326576007546001600160a01b039061152d908216331461374d565b60085416ff5b346103265760403660031901126103265761154c6133f2565b611554613408565b61156960018060a01b0360075416331461374d565b6001600160a01b03821660009081526011602052604090205460ff929083161561183e5760018060a01b038116600052601160205261163260066040600020604051956115b58761343a565b815481811615158852818160081c1615156020890152818160101c1615156040890152818160181c161515606089015260201c1615156080870152600181015460a0870152600281015460c0870152600381015460e0870152600481015461010087015260018060a01b03600582015416610120870152016136a7565b6101408401526001600160a01b03166000908152601160205260409020611658906138cc565b60018060a01b031660005260116020526101406006604060002061168b84511515829060ff801983541691151516179055565b6020840151815461ff00191690151560081b61ff0016178155604084015181546060860151608087015164ffffff00001990921692151560101b62ff0000169290921791151560181b63ff000000169190911790151560201b64ff000000001617815560a0840151600182015560c0840151600282015560e0840151600382015561010084015160048201556005810160018060a01b03610120860151166001600160601b0360a01b825416179055019101519081516001600160401b03811161094f57611759825461366d565b601f811161180c575b50602092601f82116001146117a8579281929360009261179d575b50508160011b916000199060031b1c19161790555b602060405160018152f35b01519050838061177d565b601f198216938360005260206000209160005b8681106117f457508360019596106117db575b505050811b019055611792565b015160001960f88460031b161c191690558380806117ce565b919260206001819286850151815501940192016117bb565b61183890836000526020600020601f840160051c8101916020851061094557601f0160051c01906137f5565b83611762565b60405162461bcd60e51b815260206004820152603360248201527f4c277574696c69736174657572207370656369666965206e27657869737465206044820152727061732064616e73206c65206d617070696e6760681b6064820152608490fd5b34610326576000366003190112610326576020600c54604051908152f35b34610326576020366003190112610326576001600160a01b036118de6133f2565b1680156118fd5760005260036020526020604060002054604051908152f35b60405162461bcd60e51b815260206004820152602960248201527f4552433732313a2061646472657373207a65726f206973206e6f7420612076616044820152683634b21037bbb732b960b91b6064820152608490fd5b34610326576020366003190112610326576020611972600435613be3565b6040516001600160a01b039091168152f35b34610326576000366003190112610326576020600a54604051908152f35b34610326576040366003190112610326576119bb6133f2565b6001600160401b0390602435828111610326576119dc90369060040161351a565b90336000526020601181526119f860ff6040600020541661382e565b60405193611a4882860183815286611a1360408201886133b2565b0396611a27601f19988981018352826134a7565b519020604051848101908582526000604082015260408152610e798161348c565b60018060a01b03831660005260118252600660406000200191845191821161094f57611a74835461366d565b601f8111611b6a575b508095601f8311600114611ae6575050807fe99ebf891ecf1848497e78549bd314016c4d1cb85202983ee2949410bc3e605695600091611adb575b508160011b916000199060031b1c19161790555b6108806040519283928361380c565b905084015186611ab8565b60008481528281209792918416915b828210611b515750509582916001937fe99ebf891ecf1848497e78549bd314016c4d1cb85202983ee2949410bc3e60569810611b38575b5050811b019055611acc565b86015160001960f88460031b161c191690558680611b2c565b8388015189556001909801979283019290810190611af5565b611b94908460005282600020601f850160051c81019184861061094557601f0160051c01906137f5565b86611a7d565b3461032657611ba836613603565b9033600052601160205260ff60406000205460101c1615611c59576001600160a01b03166000818152601160209081526040909120805464ffff000000191693151590911b64ff0000000016929092179091557f8374119f2a4546ccc495a5cd8d55d891b8c64e342d10ebfd6f7db0fdf141bbb1906060906005604060002001336001600160601b0360a01b82541617905542600160406000200155604051908152336020820152426040820152a1005b60405162461bcd60e51b815260206004820152601b60248201527f566f7573206e27657465732070617320756e20617564697465757200000000006044820152606490fd5b34610326576020366003190112610326577fc21b9cfcceff9f2d82efde7cd64d3fe7bfd7f14b9b0020ed54eb6ae56056e9ac6020611cda6133f2565b6007546001600160a01b039190611cf4908316331461374d565b1660008181526011835260409020805460ff19166001178155611d16906138cc565b604051908152a1005b3461032657610cbb611d3036613538565b9060405192611d3e84613471565b60008452613ca6565b3461032657600036600319011261032657611d6d60018060a01b0360075416331461374d565b602047604051908152f35b34610326576000366003190112610326576020600b54604051908152f35b346103265760c03660031901126103265760843560246001600160a01b0360043560643583356044358487168088036103265760a4356001600160401b03811161032657611de890369060040161351a565b9133600052601196611e1d602091898352611e0a60ff6040600020541661382e565b611e1387613632565b50541633146139b6565b861561212e576003808810156120e057611e3b6002610c2c88613a7b565b600197808903611fa9575060ff611e5187613a7b565b505416611f6557908891846000526012825280611e72896040600020613ab6565b500160ff19908a8282541617905589611e8a86613a7b565b5091825416179055611e9b84613a7b565b50904291015583600052526002604060002001805490878201809211611f5157611ef17f567cd139ee8a0e5c99190969ecad58a0c13e04b86b8071ec6843d56c02deffb997969593611f11959360079355613a7b565b5001906001600160601b0360a01b82541617905561069560095430613dfb565b6009546040805192835260208301939093526001600160a01b03979097169181019190915260608101869052608090a183018093116106e9575050600955005b8989634e487b7160e01b6000526004526000fd5b60405162461bcd60e51b815260048101839052601c818c01527f6c6520676167616e74206573742064656a6120617474697262756572000000006044820152606490fd5b9093919290600214806120b6575b611fbd57005b60ff611fc887613a7b565b505460081c166120725790889291816000526012835284611fed896040600020613ab6565b5001906120096101009161ff0019938385825416179055613a7b565b50918254161790556000525260406000200180549085820180921161205e5791611f11917f833a49d19eb691ffcb62e4d246610f43015ff591e67344eec6852e1b2d3eccae9594935561069560095430613dfb565b8787634e487b7160e01b6000526004526000fd5b60405162461bcd60e51b815260048101849052601d818c01527f6c61207265616c69736174696f6e206573742064656a612066616974650000006044820152606490fd5b508160005260128352836120ce886040600020613ab6565b5001805460ff19168917905587611fb7565b60405162461bcd60e51b8152600481018390526021818c01527f4c65206e697665617520646f6974206574726520696e666572696575722061206044820152603360f81b6064820152608490fd5b608490896040519162461bcd60e51b83526004830152808201527f4c65206e697665617520646f69742065747265207375706572696575722061206044820152637a65726f60e01b6064820152fd5b3461032657602080600319360112610326576001600160401b03600435818111610326576121af90369060040161351a565b9160018060a01b036007541633146123b25733600052601181526001918260ff60406000205416151514612374576040519161222d818401828152846121f860408201896133b2565b039461220c601f19968781018352826134a7565b519020604051838101908482526000604082015260408152610e798161348c565b336000526011815260406000208460ff19825416179055600660406000200192855192831161094f578291612262855461366d565b601f8111612344575b508091601f84116001146122e35750506000916122d8575b50600019600383901b1c191690831b1790555b600e5490810180911161105a57600e556040517f613fa353b26ebe46477a0a021dfe1ee36cebcda84c794fc0623bef188295a35391819061088090338361380c565b905084015185612283565b8694929192168560005282600020926000905b82821061232b5750508311612312575b5050811b019055612296565b86015160001960f88460031b161c191690558580612306565b838a0151855588969094019392830192908101906122f6565b61236e908660005282600020601f860160051c81019184871061094557601f0160051c01906137f5565b8761226b565b60405162461bcd60e51b8152600481018390526016602482015275159bdd5cc8195d195cc819195a98481a5b9cd8dc9a5d60521b6044820152606490fd5b6064906040519062461bcd60e51b8252600482015260096024820152683830b99037bbb732b960b91b6044820152fd5b34610326576000366003190112610326576020600e54604051908152f35b346103265760203660031901126103265761032261241c6133f2565b61242461387a565b506007546001600160a01b03918291612440908316331461374d565b16600052601160205261031060066040600020604051936124608561343a565b60ff825481811615158752818160081c1615156020880152818160101c1615156040880152818160181c161515606088015260201c1615156080860152600182015460a0860152600282015460c0860152600382015460e08601526004820154610100860152600582015416610120850152016136a7565b3461032657610cbb6124e936613538565b916124fc6124f78433613d41565b613c44565b613f49565b346103265760403660031901126103265761251a6133f2565b612522613ad2565b506007546001600160a01b03919061253d908316331461374d565b16600052601260205261032261038461037e6024356040600020613ab6565b3461032657602036600319011261032657612575613a14565b5033600052601160205261259060ff6040600020541661382e565b61032261259e600435613a7b565b50612662600c604051926125b18461341e565b805460ff81811615158652600891821c1615156020860152600182015460408601526002820154606086015260038201546080860152600482015460a0860152600582015460c0860152600682015460e086015260078201546001600160a01b039081166101008701529082015416610120850152612632600982016136a7565b610140850152612644600a82016136a7565b610160850152612656600b82016136a7565b610180850152016136a7565b6101a0820152604051918291602083528051151560208401526020810151151560408401526040810151606084015260608101516080840152608081015160a084015260a081015160c084015260c081015160e084015260e081015161010084015260018060a01b036101008201511661012084015260018060a01b036101208201511661014084015261014081015161270b6101c091826101608701526101e08601906133b2565b906101a061274461273061016086015194601f1995868a8303016101808b01526133b2565b6101808601518589830301848a01526133b2565b9301519185840301908501526133b2565b346103265760403660031901126103265761276e6133f2565b6007546001600160a01b039190612788908316331461374d565b1660005260126020526127a16024356040600020613ab6565b61115a5760038160008093558260018201558260028201550155600080f35b346103265761012080600319360112610326576024356001600160401b038111610326576127f290369060040161351a565b60649182356001600160401b0381116103265761281390369060040161351a565b90608480356001600160401b0381116103265761283490369060040161351a565b60e4356001600160401b0381116103265761285390369060040161351a565b93610104356001600160401b0381116103265761287490369060040161351a565b9233600052601160205261288f60ff6040600020541661382e565b60449742893511156130a55760a435156130545760c435156130035760c43560a4351015612f9c576128c56107e4600435613632565b60036128d2600435613632565b50015460ff60085460a01c161115612f455750506128ee613a14565b96338589015260043560408901528661014089015235606088015261016087015261018086015260a43560a086015260c43560c08601526101a0850152601054600160401b81101561094f5780600161294a9201601055613a7b565b91909161115a5761296a85511515839060ff801983541691151516179055565b6020850151825461ff00191690151560081b61ff001617825560408501516001830155606085015160028301556080850151600383015560a0850151600483015560c0850151600583015560e085015160068301556101008501516007830180546001600160a01b03199081166001600160a01b03938416179091559186015160088401805490931691161790556101408401518051906001600160401b03821161094f578190612a1e600985015461366d565b601f8111612f10575b50602090601f8311600114612e9e57600092612e93575b50508160011b916000199060031b1c19161760098201555b6101608401518051906001600160401b03821161094f578190612a7c600a85015461366d565b601f8111612e5e575b50602090601f8311600114612dec57600092612de1575b50508160011b916000199060031b1c191617600a8201555b6101808401518051906001600160401b03821161094f57612ad8600b84015461366d565b601f8111612dac575b50602090601f8311600114612d365791806101a09492600c94600092612d2b575b50508160011b916000199060031b1c191617600b8201555b019301519283516001600160401b03811161094f57612b39825461366d565b601f8111612cf9575b50602094601f8211600114612c9357948192939495600092612c88575b50508160011b916000199060031b1c19161790555b600160ff6002612b85600435613632565b500154160160ff811161105a5760ff6002612ba1600435613632565b5001911660ff198254161790556003612bbb600435613632565b500190600d548254600160401b81101561094f5760018101808555811015612c7257612bf7936000526020600020015561069560095430613dfb565b600d54907fc3371d02e598f1d0edee6f539d0aed0da9156c093ce0a8f6fe80e3fcece9719c612c5160095492604051918291600435835286602084015233604084015285606084015260a0608084015260a08301906133b2565b0390a16001810180911161105a576009556001810180911161105a57600d55005b634e487b7160e01b600052603260045260246000fd5b015190508580612b5f565b601f198216958360005260206000209160005b888110612ce157508360019596979810612cc8575b505050811b019055612b74565b015160001960f88460031b161c19169055858080612cbb565b91926020600181928685015181550194019201612ca6565b612d2590836000526020600020601f840160051c8101916020851061094557601f0160051c01906137f5565b85612b42565b015190508880612b02565b90600b840160005260206000209160005b601f1985168110612d945750926101a09492600192600c9583601f19811610612d7b575b505050811b01600b820155612b1a565b015160001960f88460031b161c19169055888080612d6b565b91926020600181928685015181550194019201612d47565b612ddb90600b85016000526020600020601f850160051c8101916020861061094557601f0160051c01906137f5565b86612ae1565b015190508680612a9c565b9250600a84016000526020600020906000935b601f1984168510612e43576001945083601f19811610612e2a575b505050811b01600a820155612ab4565b015160001960f88460031b161c19169055868080612e1a565b81810151835560209485019460019093019290910190612dff565b612e8d90600a86016000526020600020601f850160051c8101916020861061094557601f0160051c01906137f5565b87612a85565b015190508680612a3e565b9250600984016000526020600020906000935b601f1984168510612ef5576001945083601f19811610612edc575b505050811b016009820155612a56565b015160001960f88460031b161c19169055868080612ecc565b81810151835560209485019460019093019290910190612eb1565b612f3f90600986016000526020600020601f850160051c8101916020861061094557601f0160051c01906137f5565b87612a27565b6c6f6d627265206465206c6f747360981b89917f566f7573206176657a2061747465696e74206c61206c696d697465206475206e6040519362461bcd60e51b855260206004860152602d6024860152840152820152fd5b7f207375706572696575722061752070726978206d6178696d756d00000000000089917f6c652070726978206d696e696d756d206e6520706575742070617320657472656040519362461bcd60e51b855260206004860152603a6024860152840152820152fd5b660657572206120360cc1b89917f4c652070726978206d6178696d756d20646f69742065747265207375706572696040519362461bcd60e51b85526020600486015260276024860152840152820152fd5b660657572206120360cc1b89917f4c652070726978206d696e696d756d20646f69742065747265207375706572696040519362461bcd60e51b85526020600486015260276024860152840152820152fd5b7f657269657572652061206c6120646174652061637475656c6c6500000000000089917f4c61206461746520646520636c6f7475726520646f69742065747265207375706040519362461bcd60e51b855260206004860152603a6024860152840152820152fd5b34610326576040366003190112610326576131256133f2565b602435906001600160a01b03808061313c85613be3565b1692169180831461323757803314908115613212575b50156131a757600083815260046020526040902080546001600160a01b0319168317905561317f83613be3565b167f8c5be1e5ebec7d5bd14f71427d1e84f3dd0314c0f7b2291e5b200ac8c7c3b925600080a4005b60405162461bcd60e51b815260206004820152603d60248201527f4552433732313a20617070726f76652063616c6c6572206973206e6f7420746f60448201527f6b656e206f776e6572206f7220617070726f76656420666f7220616c6c0000006064820152608490fd5b9050600052600560205260406000203360005260205260ff6040600020541684613152565b60405162461bcd60e51b815260206004820152602160248201527f4552433732313a20617070726f76616c20746f2063757272656e74206f776e656044820152603960f91b6064820152608490fd5b34610326576020366003190112610326576020611972600435613c06565b3461032657600036600319011261032657604051600080546132c58161366d565b8084529060019081811690811561136b57506001146132ee57610322846112fe818603826134a7565b600080805292507f290decd9548b62a8d60345a988386fc84ba6bc95484008f6362f93160ef3e5635b82841061332f5750505081016020016112fe826112ee565b80546020858701810191909152909301928101613317565b34610326576020366003190112610326576004359063ffffffff60e01b8216809203610326576020916380ac58cd60e01b81149081156133a1575b8115613390575b5015158152f35b6301ffc9a760e01b14905083613389565b635b5e139f60e01b81149150613382565b919082519283825260005b8481106133de575050826000602080949584010152601f8019910116010190565b6020818301810151848301820152016133bd565b600435906001600160a01b038216820361032657565b602435906001600160a01b038216820361032657565b6101c081019081106001600160401b0382111761094f57604052565b61016081019081106001600160401b0382111761094f57604052565b60a081019081106001600160401b0382111761094f57604052565b602081019081106001600160401b0382111761094f57604052565b606081019081106001600160401b0382111761094f57604052565b90601f801991011681019081106001600160401b0382111761094f57604052565b6001600160401b03811161094f57601f01601f191660200190565b9291926134ef826134c8565b916134fd60405193846134a7565b829481845281830111610326578281602093846000960137010152565b9080601f8301121561032657816020613535933591016134e3565b90565b6060906003190112610326576001600160a01b0390600435828116810361032657916024359081168103610326579060443590565b61018061353592602083528051151560208401526020810151151560408401526040810151151560608401526060810151151560808401526080810151151560a084015260a081015160c084015260c081015160e084015260e08101516101009081850152810151610120908185015260018060a01b0390820151169061014091828501520151916101608082015201906133b2565b6040906003190112610326576004356001600160a01b0381168103610326579060243580151581036103265790565b600f54811015612c7257600690600f600052027f8d1108e10bcb7c27dddfc02ed9d693a074039d026cf4ea4240b40f7d581ac8020190600090565b90600182811c9216801561369d575b602083101461368757565b634e487b7160e01b600052602260045260246000fd5b91607f169161367c565b90604051918260008254926136bb8461366d565b90818452600194858116908160001461372a57506001146136e7575b50506136e5925003836134a7565b565b9093915060005260209081600020936000915b8183106137125750506136e5935082010138806136d7565b855488840185015294850194879450918301916136fa565b9150506136e594506020925060ff191682840152151560051b82010138806136d7565b1561375457565b606460405162461bcd60e51b815260206004820152602060248201527f4f776e61626c653a2063616c6c6572206973206e6f7420746865206f776e65726044820152fd5b1561379f57565b60405162461bcd60e51b815260206004820152602860248201527f566f7573206e6520706f7576657a20706173206d6574747265207269656e20636044820152676f6d6d65206e6f6d60c01b6064820152608490fd5b818110613800575050565b600081556001016137f5565b6001600160a01b039091168152604060208201819052613535929101906133b2565b1561383557565b60405162461bcd60e51b815260206004820152601e60248201527f566f7573206e27657465732070617320756e207574696c6973617465757200006044820152606490fd5b604051906138878261343a565b606061014083600080825280602083015280604083015280848301528060808301528060a08301528060c08301528060e0830152806101008301526101208201520152565b6006600091828155826001820155826002820155826003820155826004820155826005820155016138fd815461366d565b8061390757505050565b601f8111600114613916575055565b8183526020832061393291601f0160051c8101906001016137f5565b8160208120915555565b1561394357565b60405162461bcd60e51b815260206004820152601e60248201527f566575696c6c657a206d6574747265206c6520626f6e206d6f6e74616e7400006044820152606490fd5b916139a69060409295949584526060602085015260608401906133b2565b6001600160a01b03909416910152565b156139bd57565b60405162461bcd60e51b815260206004820152602960248201527f766f7573206574657320706173206c652044444f2064652063657420417070656044820152686c2064206f6666726560b81b6064820152608490fd5b60405190613a218261341e565b60606101a083600080825280602083015280604083015280848301528060808301528060a08301528060c08301528060e0830152806101008301526101208201528261014082015282610160820152826101808201520152565b601054811015612c7257600d906010600052027f1b6847dc741a1b0cd08d278845f9d819d87b734759afb55fe2de5cb82a9ae6720190600090565b8054821015612c725760005260206000209060021b0190600090565b60405190613adf82613456565b60006080838281528260208201528260408201528260608201520152565b90604051613b0a81613456565b608060ff6003839580548552600181015460208601526002810154604086015201548181161515606085015260081c161515910152565b15613b4857565b60405162461bcd60e51b815260206004820152602160248201527f6c27617070656c2064276f66667265206e2765737420706173207465726d696e6044820152606560f81b6064820152608490fd5b15613b9e57565b60405162461bcd60e51b815260206004820152601860248201527f4552433732313a20696e76616c696420746f6b656e20494400000000000000006044820152606490fd5b6000908152600260205260409020546001600160a01b0316613535811515613b97565b600081815260026020526040902054613c29906001600160a01b03161515613b97565b6000908152600460205260409020546001600160a01b031690565b15613c4b57565b60405162461bcd60e51b815260206004820152602d60248201527f4552433732313a2063616c6c6572206973206e6f7420746f6b656e206f776e6560448201526c1c881bdc88185c1c1c9bdd9959609a1b6064820152608490fd5b90613cca939291613cba6124f78433613d41565b613cc5838383613f49565b61405a565b15613cd157565b60405162461bcd60e51b815280613cea60048201613cee565b0390fd5b60809060208152603260208201527f4552433732313a207472616e7366657220746f206e6f6e20455243373231526560408201527131b2b4bb32b91034b6b83632b6b2b73a32b960711b60608201520190565b906001600160a01b038080613d5584613be3565b16931691838314938415613d88575b508315613d72575b50505090565b613d7e91929350613c06565b1614388080613d6c565b909350600052600560205260406000208260005260205260ff604060002054169238613d64565b15613db657565b60405162461bcd60e51b815260206004820152601c60248201527f4552433732313a20746f6b656e20616c7265616479206d696e746564000000006044820152606490fd5b6001600160a01b03168015613eab57600082815260026020526040902054613e2f906001600160a01b031615155b15613daf565b600082815260026020526040902054613e52906001600160a01b03161515613e29565b600081815260036020526040812060018154019055828152600260205260408120826001600160601b0360a01b8254161790557fddf252ad1be2c89b69c2b068fc378daa952ba7f163c4a11628f55a4df523b3ef8180a4565b606460405162461bcd60e51b815260206004820152602060248201527f4552433732313a206d696e7420746f20746865207a65726f20616464726573736044820152fd5b15613ef657565b60405162461bcd60e51b815260206004820152602560248201527f4552433732313a207472616e736665722066726f6d20696e636f72726563742060448201526437bbb732b960d91b6064820152608490fd5b90613f7191613f5784613be3565b6001600160a01b0393918416928492909183168414613eef565b169182156140095781613f8e91613f8786613be3565b1614613eef565b7fddf252ad1be2c89b69c2b068fc378daa952ba7f163c4a11628f55a4df523b3ef60008481526004602052604081206001600160601b0360a01b9081815416905583825260036020526040822060001981540190558482526040822060018154019055858252600260205284604083209182541617905580a4565b60405162461bcd60e51b8152602060048201526024808201527f4552433732313a207472616e7366657220746f20746865207a65726f206164646044820152637265737360e01b6064820152608490fd5b9293600093909291803b15614174579484916140b49660405180948193630a85bd0160e11b9788845233600485015260018060a01b0380921660248501526044840152608060648401528260209b8c9760848301906133b2565b0393165af1849181614130575b5061411f575050503d600014614117573d6140db816134c8565b906140e960405192836134a7565b81528091833d92013e5b805191826141145760405162461bcd60e51b815280613cea60048201613cee565b01fd5b5060606140f3565b6001600160e01b0319161492509050565b9091508581813d831161416d575b61414881836134a7565b8101031261416957516001600160e01b0319811681036141695790386140c1565b8480fd5b503d61413e565b505050915050600190565b6000818152600260205260409020549192916001600160a01b0316156142b15760009081526020926006845260408220918151916001600160401b03831161429d576141cb845461366d565b601f811161426f575b508591601f841160011461420e57839495965092614203575b50508160011b916000199060031b1c1916179055565b0151905038806141ed565b9190601f1984169685845280842093905b8882106142575750508360019596971061423e575b505050811b019055565b015160001960f88460031b161c19169055388080614234565b8060018596829496860151815501950193019061421f565b61429790858452878420601f860160051c81019189871061094557601f0160051c01906137f5565b386141d4565b634e487b7160e01b82526041600452602482fd5b60405162461bcd60e51b815260206004820152602e60248201527f45524337323155524953746f726167653a2055524920736574206f66206e6f6e60448201526d32bc34b9ba32b73a103a37b5b2b760911b6064820152608490fdfea2646970667358221220fac11d577ac7b4c35ebfb503c8315929e295ea6f363f37a89781bfd162656fdd64736f6c63430008110033",
  "immutableReferences": {},
  "source": "// SPDX-License-Identifier: MIT\npragma solidity 0.8.17;\nimport \"../node_modules/@openzeppelin/contracts/token/ERC721/ERC721.sol\";\nimport \"../node_modules/@openzeppelin/contracts/token/ERC721/extensions/ERC721URIStorage.sol\";\n\n/// @title TenderOnChain\n/// @author Swuib (sorry is public) and Sebastien HOFF\n/// @notice this contract is a contract of connection for the walk of the invitations to tender.\ncontract TenderOnChain is ERC721URIStorage {\n\n  address public owner = msg.sender;                                                // adresse du proprietaire du contract\n  address payable public dev = payable(0x9B35Fa8639bB06712600840184c3707f0eBbF012); // (change adrres for deploy testnet) adrress du developpeur 1\n\n  uint8 private maxLot = 30;                      // defini le nombre de lot max que peut contenir un lot\n  uint private NftId;                             // defini l'id du nft\n  uint public priceAO = 1 ether;                  // (100 wei pour tests unitaires)  defini le montant  virer pour la creation de l'AO\n  uint public priceLot = 100000000000000000 wei;  // (50 wei pour tests unitaires) defini le montant  virer pour la participation  un lot\n  uint public aoLength;                           // defini le nombre total AO\n  uint public lotLength;                          // defini le nombre total de lot\n  uint public userLength;                         // defini le nombre total d'utilisateur\n\n  \n  /// @notice  structure des utilisateurs\n  /// @dev  structure des utilisateurs\n  struct Users {\n    bool isRegistred;           // vrai si l'utilisateur est enregistr\n    bool reqIsAuditor;          // verifie que l'tulisateur  emi la requete \n    bool isAuditor;             // vrai si l'utilisateur est un validateur d'autentification de societs\n    bool reqIsApproval;         // verifie que l'tulisateur  emi la requete \n    bool isApproval;            // est vrai si l'auditeur a fait le contrle de cette socit\n    uint dateApprouval;         // timestamp de la validation ou devalidation du DDO\n    uint countNFTWinner;        // count du nombre de lot gagn\n    uint countNFTReal;          // count du nombre de lot ralis\n    uint countParticipation;    // count du nombre des participations\n    address adresseValidateur;  // adresse du controleur qui a verifi la situation du DDO\n    string name;                // nom de la societ \n  }\n  \n  struct AO {\n    address adressDDO;  // adresse du DDO qui va creer AO\n    string aoName;      // nom de AO\n    uint8 lastLotId;    // le dernier numero de lot creer\n    uint[] lotDeLAO;    // contient les index des lots constituant l'ao\n    uint createdAt;     // date de la creation de AO\n    bool isOpen;        // permet de savoir l'tat de l'AO\n  }\n  \n  struct LOT {\n    bool isNftAttributionEmit;  // si le nft d'attribution  t mit\n    bool isNftRealisationEmit;  // si le nft de ralisation  t mit\n    uint idAO;                  // index de AO\n    uint TsCloture;             // timeStamp Cloture du lot\n    uint TsAtt;                 // timeStamp d'attribution du lot\n    uint minprice;              // prix min du lot \n    uint maxprice;              // prix max du lot \n    uint partLengt;             // longueur du tableau des participans \n    address winner;             // adress de l'attributaire du lot\n    address adressDDO ;         // adresse du DDO qui va creer le lot\n    string description;         // description ou titre du lot \n    string categorie;           // categorie du lot\n    string susCategorie;        // sous categorie du lot\n    string URIPDF;              // URL du PDF du IPFS ou sur une SGBD dentralise \n  }\n  \n  struct Participation {\n    uint idLot;                 // index du lot\n    uint Tsprice1;              // time stamp au moment ou le soumissionaire fait a proposition\n    uint price1;                // prix pour lequel le soumissionaire realisera le lot \n    bool isWinner;              // si il  ramport le lot\n    bool isRealisation;         // si il  ralis le  lot\n  }\n\n  AO[] public arrayAO;\n  LOT[] arrayLots; \n  mapping(address => Users) mappingUsers;\n  mapping(address => Participation[]) mappingParticipation;\n\n  constructor() ERC721(\"TENDERONCHAIN\", \"TOC\") {}\n\n  //###########\n  // The events\n  //###########\n\n  event userAdded(address user, string name);\n  event userUpdated(address user, string name);\n  event requestAuditor(address user);\n  event requestValide(address user);\n  event userAuditor(address user);\n  event userDeleted(address user);\n  event userAudited(address user, address auditor, uint time);\n  event AoCreated(uint indexAO , string name , address user);\n  event AoEddited(uint indexAO , string name , address user);\n  event LotCreated(uint indexAO , uint indexLOT , address user, uint NftId,string name);\n  event argentRecu(uint value , address user);\n  event participation(uint indexLOT , address user, uint NftId);\n  event winnerAttribution(uint indexAO ,uint indexLOT , address winner, uint  NftId);\n  event RealisationAttribution(uint indexAO ,uint indexLOT , address winner, uint  NftId);\n\n  //#########\n  // Modifier\n  //#########\n\n  /**\n  * @dev modifier qui verifie si l'utilisateur est bien le propritaire du contrat\n  */\n  modifier onlyOwner() {\n    require(msg.sender == owner, \"Ownable: caller is not the owner\");\n    _;\n  }\n\n  /**\n  * @dev modifier qui verifie si l'utilisateur  bien creer son compte\n  */\n  modifier isRegistred() {\n    require(mappingUsers[msg.sender].isRegistred, \"Vous n'etes pas un utilisateur\");\n    _;\n  }\n\n  /**\n  * @dev modifier qui verifie si l'utilisateur est un auditeur\n  */\n  modifier isAuditor() {\n    require(mappingUsers[msg.sender].isAuditor, \"Vous n'etes pas un auditeur\");\n    _;\n  }\n\n  //##############\n  // The functions\n  //##############\n  // :::::::::::::::::::::::::::::::::::::::::::: PRICE :::::::::::::::::::::::::::::::::::::::::::: //\n\n  /**\n  * @dev Retourne le solde du contrat\n  * @return uint\n  */\n  function BalanceContrat() public view onlyOwner returns (uint){\n    return address(this).balance;\n  }\n\n  /**\n  * @dev Permet de modifier le prix pour creation l'AO\n  * @param _nouveauPrix Le nouveau prix de l'AO\n  * @return Le nouveau prix de l'AO\n  */\n  function setAOprice(uint _nouveauPrix) external onlyOwner returns(uint) {\n    priceAO = _nouveauPrix; \n    return priceAO ; \n  }\n\n  /**\n  * @dev Permet de modifier le prix pour la creation d'un lot\n  * @param _nouveauPrix le nouveau prix du lot\n  * @return le nouveau prix du lot\n  */\n  function setLotprice(uint _nouveauPrix) external onlyOwner returns(uint) {\n    priceLot = _nouveauPrix; \n    return priceLot ; \n  }\n\n  /**\n  * @dev Permet de dtruire le contrat\n  */\n  function destroy() external onlyOwner {\n    selfdestruct(dev);//a verif\n  }\n\n  /**\n  * @dev Transfert tout le solde du contract vers l'adresse _to\n  * @param _to Adresse de destination\n  */\n  function transfertBalanceSecu(address _to) external onlyOwner {\n    payable (_to).transfer(address(this).balance);\n  }\n\n  /**\n  * @dev Transfre le montant spcifi depuis le contrat vers l'adresse spcifie.\n  * @param _to L'adresse vers laquelle effectuer le transfert.\n  * @param _amount Le montant  transfrer.\n  */\n  function transfertBalanceSecuAmount(address _to, uint _amount) external onlyOwner {\n    require(_amount > 0, \"Le montant de transfert doit etre superieur a 0\");\n    require(address(this).balance >= _amount, \"Le contrat n'a pas suffisamment de fonds pour effectuer le transfert\");\n    payable (_to).transfer(_amount);\n  }\n\n  // ::::::::::::::::::::::::::::::::::::::::::::: USER ::::::::::::::::::::::::::::::::::::::::::::: //\n  // ----------------------------------------\n  // User functions for manipulation account: \n  // ----------------------------------------\n\n  /**\n  * @dev Permet de creer un compte\n  * @param _name Le nom de l'utilisateur\n  */\n  function createAccount(string memory _name) external {\n    require(msg.sender != owner, \"pas owner\");\n    require(mappingUsers[msg.sender].isRegistred != true, \"Vous etes deja inscrit\");\n    require(keccak256(abi.encode(_name)) != keccak256(abi.encode(\"\")), \"Vous ne pouvez pas mettre rien comme nom\");\n    mappingUsers[msg.sender].isRegistred = true;\n    mappingUsers[msg.sender].name = _name;\n    userLength = userLength + 1;\n    emit userAdded(msg.sender,_name);\n  }\n\n  /**\n  * @dev Permet de modifier le nom d'un utilisateur\n  * @param _addr L'adresse de l'utilisateur\n  * @param _name Le nouveau nom de l'utilisateur\n  */\n  function editAccount(address _addr, string memory _name) external isRegistred {\n    require(keccak256(abi.encode(_name)) != keccak256(abi.encode(\"\")), \"Vous ne pouvez pas mettre rien comme nom\");\n    mappingUsers[_addr].name = _name;\n    emit userUpdated(_addr,_name);\n  }\n\n  /**\n  * @dev Demande de passage au statut auditeur\n  */\n  function requestNewAuditor() external isRegistred {\n    mappingUsers[msg.sender].reqIsAuditor = true;\n    emit requestAuditor(msg.sender);\n  }\n\n  /**\n  * @dev Cette fonction permet de demander la validation d'un compte\n  */\n  function requestAcountValidation() external isRegistred {\n    mappingUsers[msg.sender].reqIsApproval = true;\n    emit requestValide(msg.sender);\n  }\n\n  /**\n  * @dev Permet de rcuprer les informations d'un utilisateur\n  * @param _addr Adresse de l'utilisateur\n  * @return Users memory\n  */\n  function getAccount(address _addr) external isRegistred view returns (Users memory) {\n    return mappingUsers[_addr];\n  }\n\n  // ---------------------------------------\n  // Owner fuctions for user manipulations :\n  // ---------------------------------------\n\n  /**\n  * @dev Permet de rcuprer les informations d'un utilisateur\n  * @param _addr Adresse de l'utilisateur\n  * @return Users memory\n  */\n  function getAccountForOwner(address _addr) external onlyOwner view returns (Users memory) {\n    return mappingUsers[_addr];\n  }\n\n  /**\n  * @dev Ajoute un utilisateur  la liste des auditeurs\n  * @param _addr L'adresse de l'utilisateur  ajouter\n  * @return L'utilisateur ajout\n  */\n  function updateAcountToAuditor(address _addr) external onlyOwner returns (Users memory) {\n    mappingUsers[_addr].reqIsAuditor = false;\n    mappingUsers[_addr].isAuditor = true;\n    emit userAuditor(_addr);\n    return mappingUsers[_addr];\n  }\n\n  /**\n  * @dev Supprime un utilisateur\n  * @param _addr Adresse de l'utilisateur  supprimer\n  */\n  function deleteAccount(address _addr) external onlyOwner {\n    require(mappingUsers[_addr].isRegistred = true, \"utilisateur non enregistre\");\n    delete mappingUsers[_addr];\n    emit userDeleted(_addr);\n  }\n\n  /**\n  * @dev Remplace l'adresse d'un utilisateur dans le mapping sans modifier la structure.\n  * @param _oldAddress L'ancienne adresse de l'utilisateur.\n  * @param _newAddress La nouvelle adresse de l'utilisateur.\n  * @return bool True si l'adresse a t mise  jour avec succs, false sinon.\n  */\n  function updateAccount(address _oldAddress, address _newAddress) external onlyOwner returns(bool) {\n    require(mappingUsers[_oldAddress].isRegistred, \"L'utilisateur specifie n'existe pas dans le mapping\");\n    Users memory userData = mappingUsers[_oldAddress];\n    delete mappingUsers[_oldAddress];\n    mappingUsers[_newAddress] = userData;\n    return true;\n  }\n\n  // -----------------------------------------\n  // Auditor fuctions for user manipulations :\n  // -----------------------------------------\n\n  /**\n  * @dev Met  jour le statut d'un utilisateur  approuv\n  * @param _addr Adresse de l'utilisateur  approuver\n  */\n  function updateAcountToApproval(address _addr, bool _result) external isAuditor {\n    mappingUsers[_addr].reqIsApproval = false;\n    mappingUsers[_addr].isApproval = _result;\n    mappingUsers[_addr].adresseValidateur = msg.sender;\n    mappingUsers[_addr].dateApprouval = block.timestamp;\n    emit userAudited(_addr, msg.sender, block.timestamp);\n  }\n\n  // ::::::::::::::::::::::::::::::::::::::::::::: AO ::::::::::::::::::::::::::::::::::::::::::::: //\n\n  /**\n  * @dev Permet de crer un AO\n  * @param _name Nom de l'AO\n  */\n  function createAO(string memory _name) external isRegistred payable {\n    require(msg.value >= priceAO , \"Veuillez mettre le bon montant\");\n    require(keccak256(abi.encode(_name)) != keccak256(abi.encode(\"\")), \"Vous ne pouvez pas mettre rien comme nom\");\n    AO memory ao; \n    ao.aoName = _name;\n    ao.adressDDO = msg.sender;\n    ao.createdAt = block.timestamp;\n    ao.isOpen = false;\n    arrayAO.push(ao);\n    dev.transfer(msg.value);\n    emit AoCreated(aoLength,_name,msg.sender);\n    aoLength = aoLength + 1;\n  }\n\n  /**\n  * @dev permet de modifier le nom d'un appel d'offre\n  * @param _index l'index de l'appel d'offre\n  * @param _name le nouveau nom de l'appel d'offre\n  */\n  function editAO(uint _index, string memory _name) external isRegistred {\n    require(arrayAO[_index].adressDDO == msg.sender,\"vous etes pas le DDO de cet Appel d offre\");\n    arrayAO[_index].aoName = _name;\n    emit AoEddited(_index,_name,msg.sender);\n  }\n\n  // ::::::::::::::::::::::::::::::::::::::::::::: LOT ::::::::::::::::::::::::::::::::::::::::::::: //\n\n  /**\n  * @dev Ajoute un lot  un appel d'offre\n  * @param _index index de l'appel d'offre\n  * @param _desc description du lot\n  * @param _ts timestamp de cloture du lot\n  * @param _cat categorie du lot\n  * @param _suscat  sous categorie du lot\n  * @param _min prix minimum du lot\n  * @param _max prix maximum du lot\n  * @param _uriJson uri du json du lot\n  * @param _uriLinkFile uri du pdf du lot\n  */\n  function createLot(\n    uint _index, \n    string memory _desc, \n    uint _ts,\n    string memory _cat,\n    string memory _suscat,\n    uint _min,\n    uint _max,\n    string memory _uriJson,\n    string memory _uriLinkFile\n    ) external isRegistred  {\n    require(_ts > block.timestamp, \"La date de cloture doit etre superieure a la date actuelle\");\n    require(_min > 0, \"Le prix minimum doit etre superieur a 0\");\n    require(_max > 0, \"Le prix maximum doit etre superieur a 0\");\n    require(_min < _max , \"le prix minimum ne peut pas etre superieur au prix maximum\");\n    require(arrayAO[_index].adressDDO == msg.sender,\"vous etes pas le DDO de cet Appel d offre\");\n    require(arrayAO[_index].lotDeLAO.length < maxLot , \"Vous avez atteint la limite du nombre de lots\");\n    LOT memory lot;\n    lot.adressDDO = msg.sender;\n    lot.idAO = _index;\n    lot.description = _desc;\n    lot.TsCloture = _ts;\n    lot.categorie = _cat;\n    lot.susCategorie = _suscat;\n    lot.minprice = _min;\n    lot.maxprice = _max;\n    lot.URIPDF = _uriLinkFile;\n    arrayLots.push(lot);\n    arrayAO[_index].lastLotId = arrayAO[_index].lastLotId + 1;\n    arrayAO[_index].lotDeLAO.push(lotLength);\n    _mint(address(this), NftId);\n    _setTokenURI(NftId, _uriJson);\n    emit LotCreated(_index, lotLength, msg.sender, NftId,_desc);\n    NftId = NftId + 1;\n    lotLength = lotLength + 1;\n  }\n\n  /**\n  * @dev Retrieves a lot from the `arrayLots` array at a specified index.\n  * @param _index The index of the lot to retrieve.\n  * @return The lot at the specified index, with some fields reset if the\n  *     `TsCloture` field is less than the current block's timestamp.\n  */\n  function getArrayLots(uint _index) external isRegistred view returns (LOT memory) {\n    return arrayLots[_index];\n  }\n\n// ::::::::::::::::::::::::::::::::::::::::::::: PARTICIPATION ::::::::::::::::::::::::::::::::::::::::::::: //\n  /**\n  * @dev Cette fonction permet  un utilisateur enregistr de crer une participation \n  *       un lot en fournissant l'ID du lot, le montant de l'offre et l'URI de \n  *      l'objet non-fongible (NFT) qui sera cr pour l'offre.\n  * @param _idlot L'ID du lot dans lequel l'utilisateur souhaite participer.\n  * @param _price Le montant de l'offre de l'utilisateur.\n  * @param _uri L'URI de l'objet non-fongible (NFT) qui sera cr pour l'offre de l'utilisateur.\n  */\n  function createParticipation(uint _idlot, uint _price, string memory _uri) external isRegistred payable {\n    require(msg.value >= priceLot , \"Veuillez mettre le bon montant\");\n    require(arrayLots[_idlot].TsCloture > block.timestamp, \"l'appel d'offre est termine\");\n    dev.transfer(msg.value);\n    mappingParticipation[msg.sender].push(Participation(_idlot, block.timestamp, _price,false ,false));\n    arrayLots[_idlot].partLengt = arrayLots[_idlot].partLengt + 1;\n    mappingUsers[msg.sender].countParticipation = mappingUsers[msg.sender].countParticipation + 1;\n    _mint(address(this), NftId);\n    _setTokenURI(NftId, _uri);\n    NftId = NftId + 1;\n    emit participation(_idlot , msg.sender, NftId);\n  }\n  \n  /**\n  * @dev Permet de rcuprer une participation pour un utilisateur \n  * @param _index l'index de la participation\n  * @return la participation\n  */\n  function getMyParticipation(uint _index) external isRegistred view returns (Participation memory) {\n    return mappingParticipation[msg.sender][_index];\n  }\n\n  /**\n  * @dev Permet de rcuprer une participation pour n'importe quel utilisateur \n  * @param _addr l'adresse de l'utilisateur\n  * @param _index l'index de la participation\n  * @return la participation\n  */\n  function getParticipation(address _addr,uint _index, uint _indexAo) external isRegistred view returns (Participation memory) {\n    require(arrayLots[_indexAo].TsCloture < block.timestamp, \"l'appel d'offre n'est pas termine\");\n    return mappingParticipation[_addr][_index];\n  }\n\n  /**\n  * @dev Permet de rcuprer une participation pour le owner\n  * @param _addr l'adresse de l'utilisateur\n  * @param _index l'index de la participation\n  * @return la participation\n  */\n  function getParticipationOwner(address _addr,uint _index) external onlyOwner view returns (Participation memory) {\n    return mappingParticipation[_addr][_index];\n  }\n\n  /**\n  * @dev Renvoie la longueur de la participation d'un utilisateur\n  * @param _addr L'adresse de l'utilisateur\n  * @return La longueur de la participation de l'utilisateur\n  */\n  function getParticipationLength(address _addr) external isRegistred view returns (uint) {\n    return mappingParticipation[_addr].length;\n  }\n\n  /**\n  * @dev Supprime une participation\n  * @param _addr Adresse de l'utilisateur\n  * @param _index Index de la participation\n  */\n  function removeParticipation(address _addr, uint _index) external onlyOwner {\n    delete mappingParticipation[_addr][_index];\n  }\n\n  /**\n  * @dev declare une participation winner ou bonne realisation\n  * @param _niveau niveau de 1  2 (1= winner, 2 = bonne realisation)\n  * @param _indexAo, index de l'AO sur lequel porte la participation\n  * @param _indexLot, index du Lot sur lequel porte la participation\n  * @param _index Index du mapping du participant\n  * @param _addr Adresse du gagant \n  * @param _uriJson json  pour le nft\n  */\n  function attribution(uint _niveau, uint _indexAo, uint _indexLot, uint _index, address _addr, string memory _uriJson) external isRegistred {\n    require(arrayAO[_indexAo].adressDDO == msg.sender,\"vous etes pas le DDO de cet Appel d offre\");\n    require(_niveau > 0, \"Le niveau doit etre superieur a zero\");\n    require(_niveau < 3, \"Le niveau doit etre inferieur a 3\");\n    require(arrayLots[_indexAo].TsCloture < block.timestamp, \"l'appel d'offre n'est pas termine\");\n    if (_niveau == 1) {\n      require(arrayLots[_indexAo].isNftAttributionEmit == false, \"le gagant est deja attirbuer\");\n      mappingParticipation[_addr][_index].isWinner = true;\n      arrayLots[_indexLot].isNftAttributionEmit = true;\n      arrayLots[_indexLot].TsAtt = block.timestamp;\n      mappingUsers[_addr].countNFTWinner += 1;\n      arrayLots[_indexLot].winner = _addr;\n      _mint(address(this), NftId);\n      _setTokenURI(NftId, _uriJson);\n      emit winnerAttribution(_indexAo, _index, _addr, NftId);\n      NftId = NftId + 1;\n    } else if ((_niveau == 2) && (mappingParticipation[_addr][_index].isWinner = true)) {\n      require(arrayLots[_indexAo].isNftRealisationEmit == false, \"la realisation est deja faite\");\n      mappingParticipation[_addr][_index].isRealisation = true;\n      arrayLots[_indexLot].isNftRealisationEmit = true;\n      mappingUsers[_addr].countNFTReal += 1;\n      _mint(address(this), NftId);\n      _setTokenURI(NftId, _uriJson);\n      emit RealisationAttribution(_indexAo, _index, _addr, NftId);\n      NftId = NftId + 1;\n    }\n  }\n}",
  "sourcePath": "/Users/sebastienjeanneditdenis/Desktop/Alyra/cours/Semaine-08 Projet Final/Projet#4/truffle/contracts/TenderOnChain.sol",
  "compiler": {
    "name": "solc",
    "version": "0.8.17+commit.8df45f5f.Emscripten.clang"
  },
  "schemaVersion": "3.4.10",
  "updatedAt": "2022-12-11T20:57:56.316Z",
  "networkType": "ethereum",
  "devdoc": {
    "author": "Swuib (sorry is public) and Sebastien HOFF",
    "kind": "dev",
    "methods": {
      "BalanceContrat()": {
        "details": "Retourne le solde du contrat",
        "returns": {
          "_0": "uint"
        }
      },
      "approve(address,uint256)": {
        "details": "See {IERC721-approve}."
      },
      "attribution(uint256,uint256,uint256,uint256,address,string)": {
        "details": "declare une participation winner ou bonne realisation",
        "params": {
          "_addr": "Adresse du gagant ",
          "_index": "Index du mapping du participant",
          "_indexAo": ", index de l'AO sur lequel porte la participation",
          "_indexLot": ", index du Lot sur lequel porte la participation",
          "_niveau": "niveau de 1  2 (1= winner, 2 = bonne realisation)",
          "_uriJson": "json  pour le nft"
        }
      },
      "balanceOf(address)": {
        "details": "See {IERC721-balanceOf}."
      },
      "createAO(string)": {
        "details": "Permet de crer un AO",
        "params": {
          "_name": "Nom de l'AO"
        }
      },
      "createAccount(string)": {
        "details": "Permet de creer un compte",
        "params": {
          "_name": "Le nom de l'utilisateur"
        }
      },
      "createLot(uint256,string,uint256,string,string,uint256,uint256,string,string)": {
        "details": "Ajoute un lot  un appel d'offre",
        "params": {
          "_cat": "categorie du lot",
          "_desc": "description du lot",
          "_index": "index de l'appel d'offre",
          "_max": "prix maximum du lot",
          "_min": "prix minimum du lot",
          "_suscat": "sous categorie du lot",
          "_ts": "timestamp de cloture du lot",
          "_uriJson": "uri du json du lot",
          "_uriLinkFile": "uri du pdf du lot"
        }
      },
      "createParticipation(uint256,uint256,string)": {
        "details": "Cette fonction permet  un utilisateur enregistr de crer une participation        un lot en fournissant l'ID du lot, le montant de l'offre et l'URI de       l'objet non-fongible (NFT) qui sera cr pour l'offre.",
        "params": {
          "_idlot": "L'ID du lot dans lequel l'utilisateur souhaite participer.",
          "_price": "Le montant de l'offre de l'utilisateur.",
          "_uri": "L'URI de l'objet non-fongible (NFT) qui sera cr pour l'offre de l'utilisateur."
        }
      },
      "deleteAccount(address)": {
        "details": "Supprime un utilisateur",
        "params": {
          "_addr": "Adresse de l'utilisateur  supprimer"
        }
      },
      "destroy()": {
        "details": "Permet de dtruire le contrat"
      },
      "editAO(uint256,string)": {
        "details": "permet de modifier le nom d'un appel d'offre",
        "params": {
          "_index": "l'index de l'appel d'offre",
          "_name": "le nouveau nom de l'appel d'offre"
        }
      },
      "editAccount(address,string)": {
        "details": "Permet de modifier le nom d'un utilisateur",
        "params": {
          "_addr": "L'adresse de l'utilisateur",
          "_name": "Le nouveau nom de l'utilisateur"
        }
      },
      "getAccount(address)": {
        "details": "Permet de rcuprer les informations d'un utilisateur",
        "params": {
          "_addr": "Adresse de l'utilisateur"
        },
        "returns": {
          "_0": "Users memory"
        }
      },
      "getAccountForOwner(address)": {
        "details": "Permet de rcuprer les informations d'un utilisateur",
        "params": {
          "_addr": "Adresse de l'utilisateur"
        },
        "returns": {
          "_0": "Users memory"
        }
      },
      "getApproved(uint256)": {
        "details": "See {IERC721-getApproved}."
      },
      "getArrayLots(uint256)": {
        "details": "Retrieves a lot from the `arrayLots` array at a specified index.",
        "params": {
          "_index": "The index of the lot to retrieve."
        },
        "returns": {
          "_0": "The lot at the specified index, with some fields reset if the     `TsCloture` field is less than the current block's timestamp."
        }
      },
      "getMyParticipation(uint256)": {
        "details": "Permet de rcuprer une participation pour un utilisateur ",
        "params": {
          "_index": "l'index de la participation"
        },
        "returns": {
          "_0": "la participation"
        }
      },
      "getParticipation(address,uint256,uint256)": {
        "details": "Permet de rcuprer une participation pour n'importe quel utilisateur ",
        "params": {
          "_addr": "l'adresse de l'utilisateur",
          "_index": "l'index de la participation"
        },
        "returns": {
          "_0": "la participation"
        }
      },
      "getParticipationLength(address)": {
        "details": "Renvoie la longueur de la participation d'un utilisateur",
        "params": {
          "_addr": "L'adresse de l'utilisateur"
        },
        "returns": {
          "_0": "La longueur de la participation de l'utilisateur"
        }
      },
      "getParticipationOwner(address,uint256)": {
        "details": "Permet de rcuprer une participation pour le owner",
        "params": {
          "_addr": "l'adresse de l'utilisateur",
          "_index": "l'index de la participation"
        },
        "returns": {
          "_0": "la participation"
        }
      },
      "isApprovedForAll(address,address)": {
        "details": "See {IERC721-isApprovedForAll}."
      },
      "name()": {
        "details": "See {IERC721Metadata-name}."
      },
      "ownerOf(uint256)": {
        "details": "See {IERC721-ownerOf}."
      },
      "removeParticipation(address,uint256)": {
        "details": "Supprime une participation",
        "params": {
          "_addr": "Adresse de l'utilisateur",
          "_index": "Index de la participation"
        }
      },
      "requestAcountValidation()": {
        "details": "Cette fonction permet de demander la validation d'un compte"
      },
      "requestNewAuditor()": {
        "details": "Demande de passage au statut auditeur"
      },
      "safeTransferFrom(address,address,uint256)": {
        "details": "See {IERC721-safeTransferFrom}."
      },
      "safeTransferFrom(address,address,uint256,bytes)": {
        "details": "See {IERC721-safeTransferFrom}."
      },
      "setAOprice(uint256)": {
        "details": "Permet de modifier le prix pour creation l'AO",
        "params": {
          "_nouveauPrix": "Le nouveau prix de l'AO"
        },
        "returns": {
          "_0": "Le nouveau prix de l'AO"
        }
      },
      "setApprovalForAll(address,bool)": {
        "details": "See {IERC721-setApprovalForAll}."
      },
      "setLotprice(uint256)": {
        "details": "Permet de modifier le prix pour la creation d'un lot",
        "params": {
          "_nouveauPrix": "le nouveau prix du lot"
        },
        "returns": {
          "_0": "le nouveau prix du lot"
        }
      },
      "supportsInterface(bytes4)": {
        "details": "See {IERC165-supportsInterface}."
      },
      "symbol()": {
        "details": "See {IERC721Metadata-symbol}."
      },
      "tokenURI(uint256)": {
        "details": "See {IERC721Metadata-tokenURI}."
      },
      "transferFrom(address,address,uint256)": {
        "details": "See {IERC721-transferFrom}."
      },
      "transfertBalanceSecu(address)": {
        "details": "Transfert tout le solde du contract vers l'adresse _to",
        "params": {
          "_to": "Adresse de destination"
        }
      },
      "transfertBalanceSecuAmount(address,uint256)": {
        "details": "Transfre le montant spcifi depuis le contrat vers l'adresse spcifie.",
        "params": {
          "_amount": "Le montant  transfrer.",
          "_to": "L'adresse vers laquelle effectuer le transfert."
        }
      },
      "updateAccount(address,address)": {
        "details": "Remplace l'adresse d'un utilisateur dans le mapping sans modifier la structure.",
        "params": {
          "_newAddress": "La nouvelle adresse de l'utilisateur.",
          "_oldAddress": "L'ancienne adresse de l'utilisateur."
        },
        "returns": {
          "_0": "bool True si l'adresse a t mise  jour avec succs, false sinon."
        }
      },
      "updateAcountToApproval(address,bool)": {
        "details": "Met  jour le statut d'un utilisateur  approuv",
        "params": {
          "_addr": "Adresse de l'utilisateur  approuver"
        }
      },
      "updateAcountToAuditor(address)": {
        "details": "Ajoute un utilisateur  la liste des auditeurs",
        "params": {
          "_addr": "L'adresse de l'utilisateur  ajouter"
        },
        "returns": {
          "_0": "L'utilisateur ajout"
        }
      }
    },
    "title": "TenderOnChain",
    "version": 1
  },
  "userdoc": {
    "kind": "user",
    "methods": {},
    "notice": "this contract is a contract of connection for the walk of the invitations to tender.",
    "version": 1
  }
}