{
  "contractName": "TenderOnChain",
  "abi": [
    {
      "inputs": [],
      "stateMutability": "nonpayable",
      "type": "constructor"
    },
    {
      "anonymous": false,
      "inputs": [
        {
          "indexed": false,
          "internalType": "uint256",
          "name": "indexAO",
          "type": "uint256"
        },
        {
          "indexed": false,
          "internalType": "string",
          "name": "name",
          "type": "string"
        },
        {
          "indexed": false,
          "internalType": "address",
          "name": "user",
          "type": "address"
        }
      ],
      "name": "AoCreated",
      "type": "event"
    },
    {
      "anonymous": false,
      "inputs": [
        {
          "indexed": false,
          "internalType": "uint256",
          "name": "indexAO",
          "type": "uint256"
        },
        {
          "indexed": false,
          "internalType": "string",
          "name": "name",
          "type": "string"
        },
        {
          "indexed": false,
          "internalType": "address",
          "name": "user",
          "type": "address"
        }
      ],
      "name": "AoEddited",
      "type": "event"
    },
    {
      "anonymous": false,
      "inputs": [
        {
          "indexed": true,
          "internalType": "address",
          "name": "owner",
          "type": "address"
        },
        {
          "indexed": true,
          "internalType": "address",
          "name": "approved",
          "type": "address"
        },
        {
          "indexed": true,
          "internalType": "uint256",
          "name": "tokenId",
          "type": "uint256"
        }
      ],
      "name": "Approval",
      "type": "event"
    },
    {
      "anonymous": false,
      "inputs": [
        {
          "indexed": true,
          "internalType": "address",
          "name": "owner",
          "type": "address"
        },
        {
          "indexed": true,
          "internalType": "address",
          "name": "operator",
          "type": "address"
        },
        {
          "indexed": false,
          "internalType": "bool",
          "name": "approved",
          "type": "bool"
        }
      ],
      "name": "ApprovalForAll",
      "type": "event"
    },
    {
      "anonymous": false,
      "inputs": [
        {
          "indexed": false,
          "internalType": "uint256",
          "name": "indexAO",
          "type": "uint256"
        },
        {
          "indexed": false,
          "internalType": "uint256",
          "name": "indexLOT",
          "type": "uint256"
        },
        {
          "indexed": false,
          "internalType": "address",
          "name": "user",
          "type": "address"
        },
        {
          "indexed": false,
          "internalType": "uint256",
          "name": "NftId",
          "type": "uint256"
        },
        {
          "indexed": false,
          "internalType": "string",
          "name": "name",
          "type": "string"
        }
      ],
      "name": "LotCreated",
      "type": "event"
    },
    {
      "anonymous": false,
      "inputs": [
        {
          "indexed": false,
          "internalType": "uint256",
          "name": "indexAO",
          "type": "uint256"
        },
        {
          "indexed": false,
          "internalType": "uint256",
          "name": "indexLOT",
          "type": "uint256"
        },
        {
          "indexed": false,
          "internalType": "address",
          "name": "winner",
          "type": "address"
        },
        {
          "indexed": false,
          "internalType": "uint256",
          "name": "NftId",
          "type": "uint256"
        }
      ],
      "name": "RealisationAttribution",
      "type": "event"
    },
    {
      "anonymous": false,
      "inputs": [
        {
          "indexed": true,
          "internalType": "address",
          "name": "from",
          "type": "address"
        },
        {
          "indexed": true,
          "internalType": "address",
          "name": "to",
          "type": "address"
        },
        {
          "indexed": true,
          "internalType": "uint256",
          "name": "tokenId",
          "type": "uint256"
        }
      ],
      "name": "Transfer",
      "type": "event"
    },
    {
      "anonymous": false,
      "inputs": [
        {
          "indexed": false,
          "internalType": "uint256",
          "name": "value",
          "type": "uint256"
        },
        {
          "indexed": false,
          "internalType": "address",
          "name": "user",
          "type": "address"
        }
      ],
      "name": "argentRecu",
      "type": "event"
    },
    {
      "anonymous": false,
      "inputs": [
        {
          "indexed": false,
          "internalType": "uint256",
          "name": "indexLOT",
          "type": "uint256"
        },
        {
          "indexed": false,
          "internalType": "address",
          "name": "user",
          "type": "address"
        },
        {
          "indexed": false,
          "internalType": "uint256",
          "name": "NftId",
          "type": "uint256"
        }
      ],
      "name": "participation",
      "type": "event"
    },
    {
      "anonymous": false,
      "inputs": [
        {
          "indexed": false,
          "internalType": "address",
          "name": "user",
          "type": "address"
        }
      ],
      "name": "requestAuditor",
      "type": "event"
    },
    {
      "anonymous": false,
      "inputs": [
        {
          "indexed": false,
          "internalType": "address",
          "name": "user",
          "type": "address"
        }
      ],
      "name": "requestValide",
      "type": "event"
    },
    {
      "anonymous": false,
      "inputs": [
        {
          "indexed": false,
          "internalType": "address",
          "name": "user",
          "type": "address"
        },
        {
          "indexed": false,
          "internalType": "string",
          "name": "name",
          "type": "string"
        }
      ],
      "name": "userAdded",
      "type": "event"
    },
    {
      "anonymous": false,
      "inputs": [
        {
          "indexed": false,
          "internalType": "address",
          "name": "user",
          "type": "address"
        },
        {
          "indexed": false,
          "internalType": "address",
          "name": "auditor",
          "type": "address"
        },
        {
          "indexed": false,
          "internalType": "uint256",
          "name": "time",
          "type": "uint256"
        }
      ],
      "name": "userAudited",
      "type": "event"
    },
    {
      "anonymous": false,
      "inputs": [
        {
          "indexed": false,
          "internalType": "address",
          "name": "user",
          "type": "address"
        }
      ],
      "name": "userAuditor",
      "type": "event"
    },
    {
      "anonymous": false,
      "inputs": [
        {
          "indexed": false,
          "internalType": "address",
          "name": "user",
          "type": "address"
        }
      ],
      "name": "userDeleted",
      "type": "event"
    },
    {
      "anonymous": false,
      "inputs": [
        {
          "indexed": false,
          "internalType": "address",
          "name": "user",
          "type": "address"
        },
        {
          "indexed": false,
          "internalType": "string",
          "name": "name",
          "type": "string"
        }
      ],
      "name": "userUpdated",
      "type": "event"
    },
    {
      "anonymous": false,
      "inputs": [
        {
          "indexed": false,
          "internalType": "uint256",
          "name": "indexAO",
          "type": "uint256"
        },
        {
          "indexed": false,
          "internalType": "uint256",
          "name": "indexLOT",
          "type": "uint256"
        },
        {
          "indexed": false,
          "internalType": "address",
          "name": "winner",
          "type": "address"
        },
        {
          "indexed": false,
          "internalType": "uint256",
          "name": "NftId",
          "type": "uint256"
        }
      ],
      "name": "winnerAttribution",
      "type": "event"
    },
    {
      "inputs": [],
      "name": "aoLength",
      "outputs": [
        {
          "internalType": "uint256",
          "name": "",
          "type": "uint256"
        }
      ],
      "stateMutability": "view",
      "type": "function",
      "constant": true
    },
    {
      "inputs": [
        {
          "internalType": "address",
          "name": "to",
          "type": "address"
        },
        {
          "internalType": "uint256",
          "name": "tokenId",
          "type": "uint256"
        }
      ],
      "name": "approve",
      "outputs": [],
      "stateMutability": "nonpayable",
      "type": "function"
    },
    {
      "inputs": [
        {
          "internalType": "uint256",
          "name": "",
          "type": "uint256"
        }
      ],
      "name": "arrayAO",
      "outputs": [
        {
          "internalType": "address",
          "name": "adressDDO",
          "type": "address"
        },
        {
          "internalType": "string",
          "name": "aoName",
          "type": "string"
        },
        {
          "internalType": "uint8",
          "name": "lastLotId",
          "type": "uint8"
        },
        {
          "internalType": "uint256",
          "name": "createdAt",
          "type": "uint256"
        },
        {
          "internalType": "bool",
          "name": "isOpen",
          "type": "bool"
        }
      ],
      "stateMutability": "view",
      "type": "function",
      "constant": true
    },
    {
      "inputs": [
        {
          "internalType": "address",
          "name": "owner",
          "type": "address"
        }
      ],
      "name": "balanceOf",
      "outputs": [
        {
          "internalType": "uint256",
          "name": "",
          "type": "uint256"
        }
      ],
      "stateMutability": "view",
      "type": "function",
      "constant": true
    },
    {
      "inputs": [],
      "name": "dev",
      "outputs": [
        {
          "internalType": "address payable",
          "name": "",
          "type": "address"
        }
      ],
      "stateMutability": "view",
      "type": "function",
      "constant": true
    },
    {
      "inputs": [
        {
          "internalType": "uint256",
          "name": "tokenId",
          "type": "uint256"
        }
      ],
      "name": "getApproved",
      "outputs": [
        {
          "internalType": "address",
          "name": "",
          "type": "address"
        }
      ],
      "stateMutability": "view",
      "type": "function",
      "constant": true
    },
    {
      "inputs": [
        {
          "internalType": "address",
          "name": "owner",
          "type": "address"
        },
        {
          "internalType": "address",
          "name": "operator",
          "type": "address"
        }
      ],
      "name": "isApprovedForAll",
      "outputs": [
        {
          "internalType": "bool",
          "name": "",
          "type": "bool"
        }
      ],
      "stateMutability": "view",
      "type": "function",
      "constant": true
    },
    {
      "inputs": [],
      "name": "lotLength",
      "outputs": [
        {
          "internalType": "uint256",
          "name": "",
          "type": "uint256"
        }
      ],
      "stateMutability": "view",
      "type": "function",
      "constant": true
    },
    {
      "inputs": [],
      "name": "name",
      "outputs": [
        {
          "internalType": "string",
          "name": "",
          "type": "string"
        }
      ],
      "stateMutability": "view",
      "type": "function",
      "constant": true
    },
    {
      "inputs": [],
      "name": "owner",
      "outputs": [
        {
          "internalType": "address",
          "name": "",
          "type": "address"
        }
      ],
      "stateMutability": "view",
      "type": "function",
      "constant": true
    },
    {
      "inputs": [
        {
          "internalType": "uint256",
          "name": "tokenId",
          "type": "uint256"
        }
      ],
      "name": "ownerOf",
      "outputs": [
        {
          "internalType": "address",
          "name": "",
          "type": "address"
        }
      ],
      "stateMutability": "view",
      "type": "function",
      "constant": true
    },
    {
      "inputs": [],
      "name": "priceAO",
      "outputs": [
        {
          "internalType": "uint256",
          "name": "",
          "type": "uint256"
        }
      ],
      "stateMutability": "view",
      "type": "function",
      "constant": true
    },
    {
      "inputs": [],
      "name": "priceLot",
      "outputs": [
        {
          "internalType": "uint256",
          "name": "",
          "type": "uint256"
        }
      ],
      "stateMutability": "view",
      "type": "function",
      "constant": true
    },
    {
      "inputs": [
        {
          "internalType": "address",
          "name": "from",
          "type": "address"
        },
        {
          "internalType": "address",
          "name": "to",
          "type": "address"
        },
        {
          "internalType": "uint256",
          "name": "tokenId",
          "type": "uint256"
        }
      ],
      "name": "safeTransferFrom",
      "outputs": [],
      "stateMutability": "nonpayable",
      "type": "function"
    },
    {
      "inputs": [
        {
          "internalType": "address",
          "name": "from",
          "type": "address"
        },
        {
          "internalType": "address",
          "name": "to",
          "type": "address"
        },
        {
          "internalType": "uint256",
          "name": "tokenId",
          "type": "uint256"
        },
        {
          "internalType": "bytes",
          "name": "data",
          "type": "bytes"
        }
      ],
      "name": "safeTransferFrom",
      "outputs": [],
      "stateMutability": "nonpayable",
      "type": "function"
    },
    {
      "inputs": [
        {
          "internalType": "address",
          "name": "operator",
          "type": "address"
        },
        {
          "internalType": "bool",
          "name": "approved",
          "type": "bool"
        }
      ],
      "name": "setApprovalForAll",
      "outputs": [],
      "stateMutability": "nonpayable",
      "type": "function"
    },
    {
      "inputs": [
        {
          "internalType": "bytes4",
          "name": "interfaceId",
          "type": "bytes4"
        }
      ],
      "name": "supportsInterface",
      "outputs": [
        {
          "internalType": "bool",
          "name": "",
          "type": "bool"
        }
      ],
      "stateMutability": "view",
      "type": "function",
      "constant": true
    },
    {
      "inputs": [],
      "name": "symbol",
      "outputs": [
        {
          "internalType": "string",
          "name": "",
          "type": "string"
        }
      ],
      "stateMutability": "view",
      "type": "function",
      "constant": true
    },
    {
      "inputs": [
        {
          "internalType": "uint256",
          "name": "tokenId",
          "type": "uint256"
        }
      ],
      "name": "tokenURI",
      "outputs": [
        {
          "internalType": "string",
          "name": "",
          "type": "string"
        }
      ],
      "stateMutability": "view",
      "type": "function",
      "constant": true
    },
    {
      "inputs": [
        {
          "internalType": "address",
          "name": "from",
          "type": "address"
        },
        {
          "internalType": "address",
          "name": "to",
          "type": "address"
        },
        {
          "internalType": "uint256",
          "name": "tokenId",
          "type": "uint256"
        }
      ],
      "name": "transferFrom",
      "outputs": [],
      "stateMutability": "nonpayable",
      "type": "function"
    },
    {
      "inputs": [],
      "name": "BalanceContrat",
      "outputs": [
        {
          "internalType": "uint256",
          "name": "",
          "type": "uint256"
        }
      ],
      "stateMutability": "view",
      "type": "function",
      "constant": true
    },
    {
      "inputs": [
        {
          "internalType": "uint256",
          "name": "_nouveauPrix",
          "type": "uint256"
        }
      ],
      "name": "setAOprice",
      "outputs": [
        {
          "internalType": "uint256",
          "name": "",
          "type": "uint256"
        }
      ],
      "stateMutability": "nonpayable",
      "type": "function"
    },
    {
      "inputs": [
        {
          "internalType": "uint256",
          "name": "_nouveauPrix",
          "type": "uint256"
        }
      ],
      "name": "setLotprice",
      "outputs": [
        {
          "internalType": "uint256",
          "name": "",
          "type": "uint256"
        }
      ],
      "stateMutability": "nonpayable",
      "type": "function"
    },
    {
      "inputs": [],
      "name": "destroy",
      "outputs": [],
      "stateMutability": "nonpayable",
      "type": "function"
    },
    {
      "inputs": [
        {
          "internalType": "address",
          "name": "_to",
          "type": "address"
        }
      ],
      "name": "transfertBalanceSecu",
      "outputs": [],
      "stateMutability": "nonpayable",
      "type": "function"
    },
    {
      "inputs": [
        {
          "internalType": "address",
          "name": "_to",
          "type": "address"
        },
        {
          "internalType": "uint256",
          "name": "_amount",
          "type": "uint256"
        }
      ],
      "name": "transfertBalanceSecuAmount",
      "outputs": [],
      "stateMutability": "nonpayable",
      "type": "function"
    },
    {
      "inputs": [
        {
          "internalType": "string",
          "name": "_name",
          "type": "string"
        }
      ],
      "name": "createAccount",
      "outputs": [],
      "stateMutability": "nonpayable",
      "type": "function"
    },
    {
      "inputs": [
        {
          "internalType": "address",
          "name": "_addr",
          "type": "address"
        },
        {
          "internalType": "string",
          "name": "_name",
          "type": "string"
        }
      ],
      "name": "editAccount",
      "outputs": [],
      "stateMutability": "nonpayable",
      "type": "function"
    },
    {
      "inputs": [],
      "name": "requestNewAuditor",
      "outputs": [],
      "stateMutability": "nonpayable",
      "type": "function"
    },
    {
      "inputs": [],
      "name": "requestAcountValidation",
      "outputs": [],
      "stateMutability": "nonpayable",
      "type": "function"
    },
    {
      "inputs": [
        {
          "internalType": "address",
          "name": "_addr",
          "type": "address"
        }
      ],
      "name": "getAccount",
      "outputs": [
        {
          "components": [
            {
              "internalType": "string",
              "name": "name",
              "type": "string"
            },
            {
              "internalType": "bool",
              "name": "isRegistred",
              "type": "bool"
            },
            {
              "internalType": "bool",
              "name": "isAuditor",
              "type": "bool"
            },
            {
              "internalType": "bool",
              "name": "isApproval",
              "type": "bool"
            },
            {
              "internalType": "address",
              "name": "adresseValidateur",
              "type": "address"
            },
            {
              "internalType": "uint256",
              "name": "dateApprouval",
              "type": "uint256"
            },
            {
              "internalType": "uint256",
              "name": "countNFTWinner",
              "type": "uint256"
            },
            {
              "internalType": "uint256",
              "name": "countNFTReal",
              "type": "uint256"
            },
            {
              "internalType": "uint256",
              "name": "countParticipation",
              "type": "uint256"
            }
          ],
          "internalType": "struct TenderOnChain.Users",
          "name": "",
          "type": "tuple"
        }
      ],
      "stateMutability": "view",
      "type": "function",
      "constant": true
    },
    {
      "inputs": [
        {
          "internalType": "address",
          "name": "_addr",
          "type": "address"
        }
      ],
      "name": "getAccountForOwner",
      "outputs": [
        {
          "components": [
            {
              "internalType": "string",
              "name": "name",
              "type": "string"
            },
            {
              "internalType": "bool",
              "name": "isRegistred",
              "type": "bool"
            },
            {
              "internalType": "bool",
              "name": "isAuditor",
              "type": "bool"
            },
            {
              "internalType": "bool",
              "name": "isApproval",
              "type": "bool"
            },
            {
              "internalType": "address",
              "name": "adresseValidateur",
              "type": "address"
            },
            {
              "internalType": "uint256",
              "name": "dateApprouval",
              "type": "uint256"
            },
            {
              "internalType": "uint256",
              "name": "countNFTWinner",
              "type": "uint256"
            },
            {
              "internalType": "uint256",
              "name": "countNFTReal",
              "type": "uint256"
            },
            {
              "internalType": "uint256",
              "name": "countParticipation",
              "type": "uint256"
            }
          ],
          "internalType": "struct TenderOnChain.Users",
          "name": "",
          "type": "tuple"
        }
      ],
      "stateMutability": "view",
      "type": "function",
      "constant": true
    },
    {
      "inputs": [
        {
          "internalType": "address",
          "name": "_addr",
          "type": "address"
        }
      ],
      "name": "updateAcountToAuditor",
      "outputs": [
        {
          "components": [
            {
              "internalType": "string",
              "name": "name",
              "type": "string"
            },
            {
              "internalType": "bool",
              "name": "isRegistred",
              "type": "bool"
            },
            {
              "internalType": "bool",
              "name": "isAuditor",
              "type": "bool"
            },
            {
              "internalType": "bool",
              "name": "isApproval",
              "type": "bool"
            },
            {
              "internalType": "address",
              "name": "adresseValidateur",
              "type": "address"
            },
            {
              "internalType": "uint256",
              "name": "dateApprouval",
              "type": "uint256"
            },
            {
              "internalType": "uint256",
              "name": "countNFTWinner",
              "type": "uint256"
            },
            {
              "internalType": "uint256",
              "name": "countNFTReal",
              "type": "uint256"
            },
            {
              "internalType": "uint256",
              "name": "countParticipation",
              "type": "uint256"
            }
          ],
          "internalType": "struct TenderOnChain.Users",
          "name": "",
          "type": "tuple"
        }
      ],
      "stateMutability": "nonpayable",
      "type": "function"
    },
    {
      "inputs": [
        {
          "internalType": "address",
          "name": "_addr",
          "type": "address"
        }
      ],
      "name": "deleteAccount",
      "outputs": [],
      "stateMutability": "nonpayable",
      "type": "function"
    },
    {
      "inputs": [
        {
          "internalType": "address",
          "name": "_oldAddress",
          "type": "address"
        },
        {
          "internalType": "address",
          "name": "_newAddress",
          "type": "address"
        }
      ],
      "name": "updateAccount",
      "outputs": [
        {
          "internalType": "bool",
          "name": "",
          "type": "bool"
        }
      ],
      "stateMutability": "nonpayable",
      "type": "function"
    },
    {
      "inputs": [
        {
          "internalType": "address",
          "name": "_addr",
          "type": "address"
        },
        {
          "internalType": "bool",
          "name": "_result",
          "type": "bool"
        }
      ],
      "name": "updateAcountToApproval",
      "outputs": [],
      "stateMutability": "nonpayable",
      "type": "function"
    },
    {
      "inputs": [
        {
          "internalType": "string",
          "name": "_name",
          "type": "string"
        },
        {
          "internalType": "uint256",
          "name": "_amount",
          "type": "uint256"
        }
      ],
      "name": "createAO",
      "outputs": [],
      "stateMutability": "payable",
      "type": "function",
      "payable": true
    },
    {
      "inputs": [
        {
          "internalType": "uint256",
          "name": "_index",
          "type": "uint256"
        },
        {
          "internalType": "string",
          "name": "_name",
          "type": "string"
        }
      ],
      "name": "editAO",
      "outputs": [],
      "stateMutability": "nonpayable",
      "type": "function"
    },
    {
      "inputs": [
        {
          "internalType": "uint256",
          "name": "_index",
          "type": "uint256"
        },
        {
          "internalType": "string",
          "name": "_desc",
          "type": "string"
        },
        {
          "internalType": "uint256",
          "name": "_ts",
          "type": "uint256"
        },
        {
          "internalType": "string",
          "name": "_cat",
          "type": "string"
        },
        {
          "internalType": "string",
          "name": "_suscat",
          "type": "string"
        },
        {
          "internalType": "uint256",
          "name": "_min",
          "type": "uint256"
        },
        {
          "internalType": "uint256",
          "name": "_max",
          "type": "uint256"
        },
        {
          "internalType": "string",
          "name": "_uriJson",
          "type": "string"
        },
        {
          "internalType": "string",
          "name": "_uriLinkFile",
          "type": "string"
        }
      ],
      "name": "createLot",
      "outputs": [],
      "stateMutability": "nonpayable",
      "type": "function"
    },
    {
      "inputs": [
        {
          "internalType": "uint256",
          "name": "_index",
          "type": "uint256"
        }
      ],
      "name": "getArrayLots",
      "outputs": [
        {
          "components": [
            {
              "internalType": "address",
              "name": "adressDDO",
              "type": "address"
            },
            {
              "internalType": "uint256",
              "name": "idAO",
              "type": "uint256"
            },
            {
              "internalType": "string",
              "name": "description",
              "type": "string"
            },
            {
              "internalType": "uint256",
              "name": "TsCloture",
              "type": "uint256"
            },
            {
              "internalType": "address",
              "name": "winner",
              "type": "address"
            },
            {
              "internalType": "bool",
              "name": "isNftAttributionEmit",
              "type": "bool"
            },
            {
              "internalType": "bool",
              "name": "isNftRealisationEmit",
              "type": "bool"
            },
            {
              "internalType": "string",
              "name": "categorie",
              "type": "string"
            },
            {
              "internalType": "string",
              "name": "susCategorie",
              "type": "string"
            },
            {
              "internalType": "uint256",
              "name": "minprice",
              "type": "uint256"
            },
            {
              "internalType": "uint256",
              "name": "maxprice",
              "type": "uint256"
            },
            {
              "internalType": "string",
              "name": "URIPDF",
              "type": "string"
            },
            {
              "internalType": "uint256",
              "name": "partLengt",
              "type": "uint256"
            },
            {
              "internalType": "address[]",
              "name": "part",
              "type": "address[]"
            }
          ],
          "internalType": "struct TenderOnChain.LOT",
          "name": "",
          "type": "tuple"
        }
      ],
      "stateMutability": "view",
      "type": "function",
      "constant": true
    },
    {
      "inputs": [
        {
          "internalType": "uint256",
          "name": "_idlot",
          "type": "uint256"
        },
        {
          "internalType": "uint256",
          "name": "_price",
          "type": "uint256"
        },
        {
          "internalType": "string",
          "name": "_uri",
          "type": "string"
        }
      ],
      "name": "createParticipation",
      "outputs": [],
      "stateMutability": "nonpayable",
      "type": "function"
    },
    {
      "inputs": [
        {
          "internalType": "uint256",
          "name": "_index",
          "type": "uint256"
        }
      ],
      "name": "getMyParticipation",
      "outputs": [
        {
          "components": [
            {
              "internalType": "uint256",
              "name": "idLot",
              "type": "uint256"
            },
            {
              "internalType": "uint256",
              "name": "Tsprice1",
              "type": "uint256"
            },
            {
              "internalType": "uint256",
              "name": "price1",
              "type": "uint256"
            },
            {
              "internalType": "bool",
              "name": "isWinner",
              "type": "bool"
            },
            {
              "internalType": "bool",
              "name": "isRealisation",
              "type": "bool"
            }
          ],
          "internalType": "struct TenderOnChain.Participation",
          "name": "",
          "type": "tuple"
        }
      ],
      "stateMutability": "view",
      "type": "function",
      "constant": true
    },
    {
      "inputs": [
        {
          "internalType": "address",
          "name": "_addr",
          "type": "address"
        },
        {
          "internalType": "uint256",
          "name": "_index",
          "type": "uint256"
        }
      ],
      "name": "getMyParticipationOwner",
      "outputs": [
        {
          "components": [
            {
              "internalType": "uint256",
              "name": "idLot",
              "type": "uint256"
            },
            {
              "internalType": "uint256",
              "name": "Tsprice1",
              "type": "uint256"
            },
            {
              "internalType": "uint256",
              "name": "price1",
              "type": "uint256"
            },
            {
              "internalType": "bool",
              "name": "isWinner",
              "type": "bool"
            },
            {
              "internalType": "bool",
              "name": "isRealisation",
              "type": "bool"
            }
          ],
          "internalType": "struct TenderOnChain.Participation",
          "name": "",
          "type": "tuple"
        }
      ],
      "stateMutability": "view",
      "type": "function",
      "constant": true
    },
    {
      "inputs": [
        {
          "internalType": "address",
          "name": "_addr",
          "type": "address"
        }
      ],
      "name": "getParticipationLength",
      "outputs": [
        {
          "internalType": "uint256",
          "name": "",
          "type": "uint256"
        }
      ],
      "stateMutability": "view",
      "type": "function",
      "constant": true
    },
    {
      "inputs": [
        {
          "internalType": "address",
          "name": "_addr",
          "type": "address"
        },
        {
          "internalType": "uint256",
          "name": "_index",
          "type": "uint256"
        }
      ],
      "name": "removeParticipation",
      "outputs": [],
      "stateMutability": "nonpayable",
      "type": "function"
    },
    {
      "inputs": [
        {
          "internalType": "uint8",
          "name": "_niveau",
          "type": "uint8"
        },
        {
          "internalType": "uint256",
          "name": "_indexAo",
          "type": "uint256"
        },
        {
          "internalType": "uint256",
          "name": "_indexLot",
          "type": "uint256"
        },
        {
          "internalType": "uint256",
          "name": "_index",
          "type": "uint256"
        },
        {
          "internalType": "address",
          "name": "_addr",
          "type": "address"
        },
        {
          "internalType": "string",
          "name": "_uriJson",
          "type": "string"
        }
      ],
      "name": "attribution",
      "outputs": [],
      "stateMutability": "nonpayable",
      "type": "function"
    }
  ],
  "bytecode": "0x60803462000361576001600160401b0390604090808201838111828210176200034b578252600d81526020926c2a22a72222a927a721a420a4a760991b848301528251838101818110838211176200034b5784526003815262544f4360e81b858201528251908282116200034b5760008054926001958685811c9516801562000340575b898610146200032c578190601f95868111620002d9575b5089908683116001146200027557849262000269575b5050600019600383901b1c191690861b1781555b8151938411620002555784548581811c911680156200024a575b888210146200023657838111620001ee575b508692841160011462000188578394959650926200017c575b5050600019600383901b1c191690821b1790555b600780546001600160a01b03191633179055600880546001600160a81b031916741e1adb4bba0470f24b008863e5799daa7369f62c1b179055670de0b6b3a7640000600a5567016345785d8a0000600b55516143dd9081620003678239f35b01519050388062000109565b9190601f1984169685845280842093905b888210620001d65750508385969710620001bc575b505050811b0190556200011d565b015160001960f88460031b161c19169055388080620001ae565b80878596829496860151815501950193019062000199565b8582528782208480870160051c8201928a88106200022c575b0160051c019086905b82811062000220575050620000f0565b83815501869062000210565b9250819262000207565b634e487b7160e01b82526022600452602482fd5b90607f1690620000de565b634e487b7160e01b81526041600452602490fd5b015190503880620000b0565b8480528a85208994509190601f198416865b8d828210620002c25750508411620002a8575b505050811b018155620000c4565b015160001960f88460031b161c191690553880806200029a565b8385015186558c9790950194938401930162000287565b9091508380528984208680850160051c8201928c861062000322575b918a91869594930160051c01915b828110620003135750506200009a565b8681558594508a910162000303565b92508192620002f5565b634e487b7160e01b83526022600452602483fd5b94607f169462000083565b634e487b7160e01b600052604160045260246000fd5b600080fdfe608080604052600436101561001357600080fd5b60003560e01c90816301ffc9a7146131b55750806306fdde0314613112578063081812fc146130f4578063095ea7b314612f7a5780630d3e0822146125b657806316b53e311461254b5780631be6ddee146123e557806323b872dd146123bc5780632413cab61461235f578063298daf5b1461210157806339eb5091146120e35780633cef69c1146120b257806342842e0e1461208a5780634c1b64cb146120025780635136dc8514611eef57806359e203e114611cfa5780635c8b1f6914611cdc578063619df05c146119155780636352211e146118e557806370a082311461184e578063756f1c7d1461183057806382d6ea09146114f557806383197ef0146114c55780638da5cb5b1461149c57806391cca3db1461147357806395666de31461135b57806395d89b411461127c5780639639b2021461125e578063970cbeac14611139578063a22cb46514611074578063b785cc311461101e578063b88d4fde14610fbf578063be2b27d114610f88578063c68fdbd514610e63578063c87b56dd14610df1578063ca489cb914610a36578063cababc71146109dc578063ccfba830146109a5578063d1a52a0a146107c7578063d1cfaa651461076c578063e1eb044e146104aa578063e8f86cd114610447578063e985e9c5146103f1578063ea71159c14610397578063f31bddca146102fc5763fbcbc0f11461021957600080fd5b346102f75760203660031901126102f7576102f3610235613260565b61023d6136e7565b5033600052600e60205261025b60ff6001604060002001541661369b565b60018060a01b03809116600052600e60205260056040600020604051926102818461328c565b61028a82613514565b8452600182015460ff81161515602086015260ff8160081c161515604086015260ff8160101c161515606086015260181c166080840152600281015460a0840152600381015460c0840152600481015460e08401520154610100820152604051918291826133db565b0390f35b600080fd5b346102f75760203660031901126102f757610315613bc2565b5033600052600e60205261033360ff6001604060002001541661369b565b3360005260116020526102f36103586103526004356040600020613ba6565b50613bed565b6040519182918291909160808060a083019480518452602081015160208501526040810151604085015260608101511515606085015201511515910152565b346102f75760003660031901126102f75733600052600e6020526103c560ff6001604060002001541661369b565b7fafe92cf1e686d40d9fe75324acc5793ff623b23896e8b1edd5b36f2a1bed7c206020604051338152a1005b346102f75760403660031901126102f75761040a613260565b610412613276565b9060018060a01b03809116600052600560205260406000209116600052602052602060ff604060002054166040519015158152f35b346102f75760203660031901126102f7576000808080610465613260565b6007546001600160a01b03919061047f90831633146135ba565b4791839183156104a0575b1690f11561049457005b6040513d6000823e3d90fd5b6108fc925061048a565b346102f75760603660031901126102f7576004356044356001600160401b0381116102f7576104dd903690600401613388565b336000526020600e81526001916104fd60ff84604060002001541661369b565b6003610508856138b6565b5001544210156107275733600052601182526040600020906040519161052d836132a8565b8583528383014281526040840190602494853583526060810192600084526080820192600084528554600160401b96878210156107125790610573918c82018155613ba6565b9390936106fd57926105ad926003926105c4979695518355518c8301555160028201550192511515839060ff801983541691151516179055565b51815461ff00191690151560081b61ff0016179055565b600b6105cf876138b6565b50018054918210156106e857906105ea9186820181556138f1565b81546001600160a01b0360039290921b91821b80199091163390921b16179055600a610615866138b6565b5001548481018091116106d357600a61062d876138b6565b50015533600052600e83526005604060002001548481018091116106d357906106759133600052600e855260056040600020015561066d60095430613e95565b600954614219565b6009549283018093116106bf577f19b660527d3ef255bfadfa50d3789ce4bf60be85b6828729ff4cfdf633b8ff0460608585858160095560405192835233908301526040820152a1005b634e487b7160e01b60009081526011600452fd5b82634e487b7160e01b60005260116004526000fd5b83634e487b7160e01b60005260416004526000fd5b88634e487b7160e01b60005260006004526000fd5b89634e487b7160e01b60005260416004526000fd5b60405162461bcd60e51b815260048101839052601b60248201527f6c27617070656c2064276f6666726520657374207465726d696e6500000000006044820152606490fd5b346102f75760403660031901126102f757610785613260565b61078d613bc2565b506007546001600160a01b0391906107a890831633146135ba565b1660005260116020526102f36103586103526024356040600020613ba6565b346102f75760403660031901126102f7576001600160401b036004356024358281116102f7576107fb903690600401613388565b33600052602092600e845260019061081c60ff83604060002001541661369b565b61083a61082885613489565b50546001600160a01b031633146137ef565b8161084485613489565b500191835191821161098f5761085a83546134da565b601f8111610954575b5085601f83116001146108d057508180917f42abd43d969acccaa5e8a072e53c639ce3617513087edde559a847b9fd47c8c7976000936108c5575b501b916000199060031b1c19161790555b6108c06040519283923391846137c1565b0390a1005b86015192508861089e565b601f929192198216968460005281600020916000905b89821061093d575050827f42abd43d969acccaa5e8a072e53c639ce3617513087edde559a847b9fd47c8c79810610924575b5050811b0190556108af565b85015160001960f88460031b161c191690558680610918565b808684958294958b015181550194019201906108e6565b61097f908460005287600020601f850160051c810191898610610985575b601f0160051c0190613662565b86610863565b9091508190610972565b634e487b7160e01b600052604160045260246000fd5b346102f75760203660031901126102f75760206004356109d060018060a01b036007541633146135ba565b80600a55604051908152f35b346102f75760003660031901126102f75733600052600e602052610a0a60ff6001604060002001541661369b565b7faf0ea5a986d535a6d485f06d0956f5737418735d3ea67305e75152b58b8bc80c6020604051338152a1005b346102f75760c03660031901126102f75760043560ff81168091036102f7576084359060249060643582356001600160a01b038086166044358188036102f75760a4356001600160401b0381116102f757610a95903690600401613388565b9233600052602090600e8252600197610ab760ff8a604060002001541661369b565b610ac0876138b6565b5091600380930154421115610da357610ae690610adc89613489565b50541633146137ef565b8015610d5457818111610d0657808903610c0f5750836000526011825280610b12886040600020613ba6565b5001805460ff1916891790556004610b29846138b6565b5001805460ff60a01b1916600160a01b1790556000848152600e83526040902081015488810192908310610bfa577f567cd139ee8a0e5c99190969ecad58a0c13e04b86b8071ec6843d56c02deffb9979695938593600493600e610b9b94610bbb9960005252604060002001556138b6565b5001906001600160601b0360a01b82541617905561066d60095430613e95565b6009546040805192835260208301939093526001600160a01b03969096169181019190915260608101859052608090a182018092116106bf5750600955005b89634e487b7160e01b60005260116004526000fd5b91929160021480610cdc575b610c22575b005b600491610c53918560005260118552610c3f896040600020613ba6565b5001805461ff0019166101001790556138b6565b5001805460ff60a81b1916600160a81b1790556000828152600e8252604090206004015486810192908310610cc75791600e7f833a49d19eb691ffcb62e4d246610f43015ff591e67344eec6852e1b2d3eccae96959492610bbb946000525260046040600020015561066d60095430613e95565b87634e487b7160e01b60005260116004526000fd5b50836000526011835280610cf4886040600020613ba6565b5001805460ff19168917905587610c1b565b60405162461bcd60e51b8152600481018490526021818c01527f4c65206e697665617520646f6974206574726520696e666572696575722061206044820152603360f81b6064820152608490fd5b6084838b6040519162461bcd60e51b83526004830152808201527f4c65206e697665617520646f69742065747265207375706572696575722061206044820152637a65726f60e01b6064820152fd5b60405162461bcd60e51b8152600481018590526021818d01527f6c27617070656c2064276f66667265206e2765737420706173207465726d696e6044820152606560f81b6064820152608490fd5b346102f75760203660031901126102f757600435600081815260026020526040902054610e28906001600160a01b03161515613c31565b60005260066020526102f3610e406040600020613514565b6000604051610e4e816132df565b52604051918291602083526020830190613220565b346102f75760203660031901126102f757600435600f548110156102f757600f6000526006027f8d1108e10bcb7c27dddfc02ed9d693a074039d026cf4ea4240b40f7d581ac8028101546001600160a01b0316610ee17f8d1108e10bcb7c27dddfc02ed9d693a074039d026cf4ea4240b40f7d581ac8038301613514565b9160ff7f8d1108e10bcb7c27dddfc02ed9d693a074039d026cf4ea4240b40f7d581ac804820154169060ff7f8d1108e10bcb7c27dddfc02ed9d693a074039d026cf4ea4240b40f7d581ac8077f8d1108e10bcb7c27dddfc02ed9d693a074039d026cf4ea4240b40f7d581ac8068301549201541690610f72604051958695865260a0602087015260a0860190613220565b9260408501526060840152151560808301520390f35b346102f75760203660031901126102f7576020600435610fb360018060a01b036007541633146135ba565b80600b55604051908152f35b346102f75760803660031901126102f757610fd8613260565b610fe0613276565b606435916001600160401b0383116102f757366023840112156102f757611014610c20933690602481600401359101613351565b9160443591613d40565b346102f75760203660031901126102f757611037613260565b33600052600e60205261105460ff6001604060002001541661369b565b60018060a01b031660005260116020526020604060002054604051908152f35b346102f7576110823661345a565b6001600160a01b03909116903382146110f4573360005260056020526040600020826000526020526110c48160406000209060ff801983541691151516179055565b60405190151581527f17307eab39ab6107e8899845ad3d59bd9653f200f220920489ca2b5937696c3160203392a3005b60405162461bcd60e51b815260206004820152601960248201527f4552433732313a20617070726f766520746f2063616c6c6572000000000000006044820152606490fd5b346102f75760403660031901126102f757611152613260565b60243560018060a01b0361116b816007541633146135ba565b81156112015781471061118a5760008080938193861682f11561049457005b60a460405162461bcd60e51b815260206004820152604460248201527f4c6520636f6e74726174206e27612070617320737566666973616d6d656e742060448201527f646520666f6e647320706f757220656666656374756572206c65207472616e7360648201526319995c9d60e21b6084820152fd5b60405162461bcd60e51b815260206004820152602f60248201527f4c65206d6f6e74616e74206465207472616e736665727420646f69742065747260448201526e065207375706572696575722061203608c1b6064820152608490fd5b346102f75760003660031901126102f7576020600d54604051908152f35b346102f75760003660031901126102f757604051600060018054906112a0826134da565b8085529181811690811561133457506001146112db575b6102f3846112c781860382613315565b604051918291602083526020830190613220565b600081815292507fb10e2d527612073b26eecdfd717e6a320cf44b4afac2b0732d9fcbe2b7fa0cf65b82841061131c5750505081016020016112c7826112b7565b80546020858701810191909152909301928101611304565b60ff191660208087019190915292151560051b850190920192506112c791508390506112b7565b346102f75760203660031901126102f7576102f3611377613260565b61137f6136e7565b506007546001600160a01b0391829161139b90831633146135ba565b1680600052600e602052600160406000200190610100918261ff00198254161790557f50f5507c2428baff49ee7875d073bd487f89a04190c499d0344dfe7a91bfa6546020604051838152a1600052600e60205260056040600020604051936114038561328c565b61140c82613514565b8552600182015460ff81161515602087015260ff8160081c161515604087015260ff8160101c161515606087015260181c166080850152600281015460a0850152600381015460c0850152600481015460e0850152015490820152604051918291826133db565b346102f75760003660031901126102f7576008546040516001600160a01b039091168152602090f35b346102f75760003660031901126102f7576007546040516001600160a01b039091168152602090f35b346102f75760003660031901126102f7576007546001600160a01b03906114ef90821633146135ba565b60085416ff5b346102f75760403660031901126102f75761150e613260565b611516613276565b61152b60018060a01b036007541633146135ba565b6001600160a01b0382166000908152600e602052604090206001015460ff16156117cf5760018060a01b038216600052600e6020526040600020916005604051936115758561328c565b61157e81613514565b8552600181015460ff81161515602087015260ff8160081c161515604087015260ff8160101c161515606087015260018060a01b039060181c166080860152600281015460a0860152600381015460c0860152600481015460e0860152015461010084015260018060a01b0316600052600e602052611600604060002061372d565b60018060a01b0316600052600e60205260406000209080518051906001600160401b03821161098f5761163384546134da565b601f811161179d575b50602090601f831160011461172d5791806005949261010094600092611722575b50508160011b916000199060031b1c19161784555b6116f46001850161169560208401511515829060ff801983541691151516179055565b6040830151815461ff00191690151560081b61ff00161781556060830151815462ff0000191690151560101b62ff000016178155608083015181546301000000600160b81b03191660189190911b6301000000600160b81b0316179055565b60a0810151600285015560c0810151600385015560e081015160048501550151910155602060405160018152f35b01519050868061165d565b908460005260206000209160005b601f1985168110611785575092600594926001926101009583601f1981161061176c575b505050811b018455611672565b015160001960f88460031b161c1916905586808061175f565b9192602060018192868501518155019401920161173b565b6117c990856000526020600020601f850160051c8101916020861061098557601f0160051c0190613662565b8461163c565b60405162461bcd60e51b815260206004820152603360248201527f4c277574696c69736174657572207370656369666965206e27657869737465206044820152727061732064616e73206c65206d617070696e6760681b6064820152608490fd5b346102f75760003660031901126102f7576020600c54604051908152f35b346102f75760203660031901126102f7576001600160a01b0361186f613260565b16801561188e5760005260036020526020604060002054604051908152f35b60405162461bcd60e51b815260206004820152602960248201527f4552433732313a2061646472657373207a65726f206973206e6f7420612076616044820152683634b21037bbb732b960b91b6064820152608490fd5b346102f75760203660031901126102f7576020611903600435613c7d565b6040516001600160a01b039091168152f35b60403660031901126102f7576004356001600160401b0381116102f757611940903690600401613388565b33600052600e60205261195d60ff6001604060002001541661369b565b600a543410611c97576119c1604051602081019060208252611994816119866040820187613220565b03601f198101835282613315565b51902060405160208101906020825260006040820152604081526119b7816132fa565b5190201415613605565b6040519060c082018281106001600160401b0382111761098f576040526020820160006040840152606080840152818152338352426080840152600060a0840152600f54600160401b81101561098f57806001611a219201600f55613489565b919091611c8157835182546001600160a01b0319166001600160a01b03919091161782555180519093906001600160401b03811161098f57611a6660018401546134da565b601f8111611c4c575b506020601f8211600114611bdd578192939495600092611bd2575b50508160011b916000199060031b1c19161760018301555b6002820160ff60408301511660ff19825416179055600382016060820151908151916001600160401b03831161098f57600160401b831161098f57602090611aef8484548186558561379e565b0190600052602060002060005b838110611bbe5786611b2e87600560a089608081015160048501550151151591019060ff801983541691151516179055565b600854600090819081908190602435906001600160a01b0316828215611bb5575bf115610494577fb74032044d2ea8b30e2d9d13f59a2de56d7c7727582e5c17133251d5b2101dbb611b8c600c5492604051918291339086846137c1565b0390a160018101809111611b9f57600c55005b634e487b7160e01b600052601160045260246000fd5b506108fc611b4f565b600190602084519401938184015501611afc565b015190508580611a8a565b6001840160005260206000209060005b601f1984168110611c34575060019394959683601f19811610611c1b575b505050811b016001830155611aa2565b015160001960f88460031b161c19169055858080611c0b565b9091602060018192858b015181550193019101611bed565b611c7b90600185016000526020600020601f840160051c8101916020851061098557601f0160051c0190613662565b85611a6f565b634e487b7160e01b600052600060045260246000fd5b60405162461bcd60e51b815260206004820152601e60248201527f566575696c6c657a206d6574747265206c6520626f6e206d6f6e74616e7400006044820152606490fd5b346102f75760003660031901126102f7576020600a54604051908152f35b346102f75760403660031901126102f757611d13613260565b6001600160401b03906024358281116102f757611d34903690600401613388565b90336000526020600e8152600193611d5560ff86604060002001541661369b565b60405194611da583870184815287611d706040820189613220565b0397611d84601f19998a8101835282613315565b5190206040518581019086825260006040820152604081526119b7816132fa565b60018060a01b038416600052600e8352604060002092855192831161098f57611dce84546134da565b601f8111611ebf575b508096601f8411600114611e3f5750508180917fe99ebf891ecf1848497e78549bd314016c4d1cb85202983ee2949410bc3e605697600093611e34575b501b916000199060031b1c19161790555b6108c060405192839283613679565b870151925088611e14565b83929316968460005281600020916000905b898210611ea8575050827fe99ebf891ecf1848497e78549bd314016c4d1cb85202983ee2949410bc3e60569810611e8f575b5050811b019055611e25565b86015160001960f88460031b161c191690558680611e83565b808684958294958c01518155019401920190611e51565b611ee9908560005282600020601f860160051c81019184871061098557601f0160051c0190613662565b87611dd7565b346102f757611efd3661345a565b9033600052600e60205260ff60016040600020015460081c1615611fbd576001600160a01b03166000818152600e60205260409020600101805462ff0000191692151560101b62ff000016929092179091557f8374119f2a4546ccc495a5cd8d55d891b8c64e342d10ebfd6f7db0fdf141bbb190606090604060002060010180546301000000600160b81b0319163360181b6301000000600160b81b031617905542600260406000200155604051908152336020820152426040820152a1005b60405162461bcd60e51b815260206004820152601b60248201527f566f7573206e27657465732070617320756e20617564697465757200000000006044820152606490fd5b346102f75760203660031901126102f7577fc21b9cfcceff9f2d82efde7cd64d3fe7bfd7f14b9b0020ed54eb6ae56056e9ac602061203e613260565b6007546001600160a01b03919061205890831633146135ba565b1680600052600e82526001604060002001600160ff19825416179055612081604060002061372d565b604051908152a1005b346102f757610c2061209b366133a6565b90604051926120a9846132df565b60008452613d40565b346102f75760003660031901126102f7576120d860018060a01b036007541633146135ba565b602047604051908152f35b346102f75760003660031901126102f7576020600b54604051908152f35b346102f7576020806003193601126102f7576001600160401b03906004358281116102f757612134903690600401613388565b9060018060a01b0360075416331461232f5733600052600e815260018060ff8160406000200154161515146122f1576040516121918382018481528261217d6040820188613220565b0392611d84601f1994858101835282613315565b33600052600e8352816040600020018260ff19825416179055604060002092845195861161098f576121c384546134da565b601f81116122c1575b508091601f87116001146122385750509380806108c09594937f613fa353b26ebe46477a0a021dfe1ee36cebcda84c794fc0623bef188295a3539760009361222d575b501b916000199060031b1c19161790555b6040519182913383613679565b86015192508861220f565b86929196168460005286600020966000905b8282106122aa5750509582916108c0969594937f613fa353b26ebe46477a0a021dfe1ee36cebcda84c794fc0623bef188295a3539810612291575b5050811b019055612220565b85015160001960f88460031b161c191690558680612285565b87840151895597850197928301929081019061224a565b6122eb908560005282600020601f890160051c810191848a1061098557601f0160051c0190613662565b866121cc565b60405162461bcd60e51b8152600481018390526016602482015275159bdd5cc8195d195cc819195a98481a5b9cd8dc9a5d60521b6044820152606490fd5b6064906040519062461bcd60e51b8252600482015260096024820152683830b99037bbb732b960b91b6044820152fd5b346102f75760203660031901126102f7576102f361237b613260565b6123836136e7565b506007546001600160a01b0391829161239f90831633146135ba565b16600052600e60205260056040600020604051926102818461328c565b346102f757610c206123cd366133a6565b916123e06123db8433613ddb565b613cde565b613fe3565b346102f7576020806003193601126102f7576123ff61384d565b5033600052600e8152600161241d60ff82604060002001541661369b565b612428600435613909565b906040519183835260018060a01b039081815116858501528481015160408501526040810151946124676101c0968760608801526101e0870190613220565b95606083015160808701528360808401511660a087015260a0830151151560c087015260c0830151151560e087015260e0830151926124ff6124d26124bb601f199a610100978c8c830301898d0152613220565b9583015195610120968b8b830301888c0152613220565b9482015161014090818a015282015161016090818a015282015194610180958a8a830301878b0152613220565b93810151906101a0918289015201519686840301908601528080875193848152019601926000905b8382106125345786880387f35b845181168852968201969382019390850190612527565b346102f75760403660031901126102f757612564613260565b6007546001600160a01b03919061257e90831633146135ba565b1660005260116020526125976024356040600020613ba6565b611c815760038160008093558260018201558260028201550155600080f35b346102f7576101203660031901126102f7576024356001600160401b0381116102f7576125e7903690600401613388565b606480356001600160401b0381116102f757612607903690600401613388565b60849182356001600160401b0381116102f757612628903690600401613388565b9060e4356001600160401b0381116102f757612648903690600401613388565b93610104356001600160401b0381116102f757612669903690600401613388565b9233600052600e60205261268760ff6001604060002001541661369b565b6044944286351115612f125760a435928315612ec25760c435948515612e715785851015612e0a576126bd610828600435613489565b60036126ca600435613489565b50015460ff60085460a01c161115612db35750506126e661384d565b95338752600435602088015288604088015235606087015260e0860152610100850152610120840152610140830152610160820152601054600160401b81101561098f5780600161273a92016010556138b6565b611c8157815181546001600160a01b0319166001600160a01b03919091161781556020820151600182015560408201518051906001600160401b03821161098f57819061278a60028501546134da565b601f8111612d7e575b50602090601f8311600114612d0c57600092612d01575b50508160011b916000199060031b1c19161760028201555b606082015160038201556004810160018060a01b0360808401511681549060ff60a01b60a0860151151560a01b169060ff60a81b60c0870151151560a81b169269ffffffffffffffffffff60b01b16171717905560e08201518051906001600160401b03821161098f57819061283b60058501546134da565b601f8111612ccc575b50602090601f8311600114612c5a57600092612c4f575b50508160011b916000199060031b1c19161760058201555b6101008201518051906001600160401b03821161098f57819061289960068501546134da565b601f8111612c1a575b50602090601f8311600114612ba857600092612b9d575b50508160011b916000199060031b1c19161760068201555b610120820151600782015561014082015160088201556101608201518051906001600160401b03821161098f5761290b60098401546134da565b601f8111612b68575b50602090601f8311600114612af25791806101a09492600b94600092612ae7575b50508160011b916000199060031b1c19161760098201555b610180840151600a82015501910151908151916001600160401b03831161098f57600160401b831161098f5760209061298b8484548186558561379e565b0190600052602060002060005b838110612aca57858560056129ae600435613489565b500160ff1990600182825416179055600160ff60026129ce600435613489565b50015416019060ff8211611b9f5760ff60026129eb600435613489565b50019216908254161790556003612a03600435613489565b500190600d54825492600160401b84101561098f5783612a2b916001612a4f960181556138f1565b819291549060031b600019811b9283911b1691191617905561066d60095430613e95565b600d54907fc3371d02e598f1d0edee6f539d0aed0da9156c093ce0a8f6fe80e3fcece9719c612aa960095492604051918291600435835286602084015233604084015285606084015260a0608084015260a0830190613220565b0390a160018101809111611b9f5760095560018101809111611b9f57600d55005b82516001600160a01b031681830155602090920191600101612998565b015190508880612935565b906009840160005260206000209160005b601f1985168110612b505750926101a09492600192600b9583601f19811610612b37575b505050811b01600982015561294d565b015160001960f88460031b161c19169055888080612b27565b91926020600181928685015181550194019201612b03565b612b9790600985016000526020600020601f850160051c8101916020861061098557601f0160051c0190613662565b86612914565b0151905086806128b9565b9250600684016000526020600020906000935b601f1984168510612bff576001945083601f19811610612be6575b505050811b0160068201556128d1565b015160001960f88460031b161c19169055868080612bd6565b81810151835560209485019460019093019290910190612bbb565b612c4990600686016000526020600020601f850160051c8101916020861061098557601f0160051c0190613662565b876128a2565b01519050868061285b565b9250600584016000526020600020906000935b601f1984168510612cb1576001945083601f19811610612c98575b505050811b016005820155612873565b015160001960f88460031b161c19169055868080612c88565b81810151835560209485019460019093019290910190612c6d565b612cfb90600586016000526020600020601f850160051c8101916020861061098557601f0160051c0190613662565b87612844565b0151905086806127aa565b9250600284016000526020600020906000935b601f1984168510612d63576001945083601f19811610612d4a575b505050811b0160028201556127c2565b015160001960f88460031b161c19169055868080612d3a565b81810151835560209485019460019093019290910190612d1f565b612dad90600286016000526020600020601f850160051c8101916020861061098557601f0160051c0190613662565b87612793565b6c6f6d627265206465206c6f747360981b88917f566f7573206176657a2061747465696e74206c61206c696d697465206475206e6040519362461bcd60e51b855260206004860152602d6024860152840152820152fd5b7f207375706572696575722061752070726978206d6178696d756d00000000000088917f6c652070726978206d696e696d756d206e6520706575742070617320657472656040519362461bcd60e51b855260206004860152603a6024860152840152820152fd5b660657572206120360cc1b88917f4c652070726978206d6178696d756d20646f69742065747265207375706572696040519362461bcd60e51b85526020600486015260276024860152840152820152fd5b60405162461bcd60e51b815260206004820152602760248201527f4c652070726978206d696e696d756d20646f697420657472652073757065726981890152660657572206120360cc1b81870152fd5b60405162461bcd60e51b815260206004820152603a60248201527f4c61206461746520646520636c6f7475726520646f6974206574726520737570818801527f657269657572652061206c6120646174652061637475656c6c65000000000000818601528390fd5b346102f75760403660031901126102f757612f93613260565b602435906001600160a01b038080612faa85613c7d565b169216918083146130a557803314908115613080575b501561301557600083815260046020526040902080546001600160a01b03191683179055612fed83613c7d565b167f8c5be1e5ebec7d5bd14f71427d1e84f3dd0314c0f7b2291e5b200ac8c7c3b925600080a4005b60405162461bcd60e51b815260206004820152603d60248201527f4552433732313a20617070726f76652063616c6c6572206973206e6f7420746f60448201527f6b656e206f776e6572206f7220617070726f76656420666f7220616c6c0000006064820152608490fd5b9050600052600560205260406000203360005260205260ff6040600020541684612fc0565b60405162461bcd60e51b815260206004820152602160248201527f4552433732313a20617070726f76616c20746f2063757272656e74206f776e656044820152603960f91b6064820152608490fd5b346102f75760203660031901126102f7576020611903600435613ca0565b346102f75760003660031901126102f75760405160008054613133816134da565b80845290600190818116908115611334575060011461315c576102f3846112c781860382613315565b600080805292507f290decd9548b62a8d60345a988386fc84ba6bc95484008f6362f93160ef3e5635b82841061319d5750505081016020016112c7826112b7565b80546020858701810191909152909301928101613185565b346102f75760203660031901126102f7576004359063ffffffff60e01b82168092036102f7576020916380ac58cd60e01b811490811561320f575b81156131fe575b5015158152f35b6301ffc9a760e01b149050836131f7565b635b5e139f60e01b811491506131f0565b919082519283825260005b84811061324c575050826000602080949584010152601f8019910116010190565b60208183018101518483018201520161322b565b600435906001600160a01b03821682036102f757565b602435906001600160a01b03821682036102f757565b61012081019081106001600160401b0382111761098f57604052565b60a081019081106001600160401b0382111761098f57604052565b6101c081019081106001600160401b0382111761098f57604052565b602081019081106001600160401b0382111761098f57604052565b606081019081106001600160401b0382111761098f57604052565b90601f801991011681019081106001600160401b0382111761098f57604052565b6001600160401b03811161098f57601f01601f191660200190565b92919261335d82613336565b9161336b6040519384613315565b8294818452818301116102f7578281602093846000960137010152565b9080601f830112156102f7578160206133a393359101613351565b90565b60609060031901126102f7576001600160a01b039060043582811681036102f7579160243590811681036102f7579060443590565b6020815281516133f961012091826020850152610140840190613220565b9260208101511515604084015260408101511515606084015260608101511515608084015260018060a01b0360808201511660a084015260a081015160c084015260c081015160e084015260e0810151906101009182850152015191015290565b60409060031901126102f7576004356001600160a01b03811681036102f7579060243580151581036102f75790565b600f548110156134c457600690600f600052027f8d1108e10bcb7c27dddfc02ed9d693a074039d026cf4ea4240b40f7d581ac8020190600090565b634e487b7160e01b600052603260045260246000fd5b90600182811c9216801561350a575b60208310146134f457565b634e487b7160e01b600052602260045260246000fd5b91607f16916134e9565b9060405191826000825492613528846134da565b9081845260019485811690816000146135975750600114613554575b505061355292500383613315565b565b9093915060005260209081600020936000915b81831061357f57505061355293508201013880613544565b85548884018501529485019487945091830191613567565b91505061355294506020925060ff191682840152151560051b8201013880613544565b156135c157565b606460405162461bcd60e51b815260206004820152602060248201527f4f776e61626c653a2063616c6c6572206973206e6f7420746865206f776e65726044820152fd5b1561360c57565b60405162461bcd60e51b815260206004820152602860248201527f566f7573206e6520706f7576657a20706173206d6574747265207269656e20636044820152676f6d6d65206e6f6d60c01b6064820152608490fd5b81811061366d575050565b60008155600101613662565b6001600160a01b0390911681526040602082018190526133a392910190613220565b156136a257565b60405162461bcd60e51b815260206004820152601e60248201527f566f7573206e27657465732070617320756e207574696c6973617465757200006044820152606490fd5b604051906136f48261328c565b81606081526101006000918260208201528260408201528260608201528260808201528260a08201528260c08201528260e08201520152565b600560009161373c81546134da565b8061375f575b508260018201558260028201558260038201558260048201550155565b601f811160011461377557508281555b38613742565b8184526020842061379091601f01841c810190600101613662565b82602081208183555561376f565b918181106137ab57505050565b6135529260005260206000209182019101613662565b916137df906040929594958452606060208501526060840190613220565b6001600160a01b03909416910152565b156137f657565b60405162461bcd60e51b815260206004820152602960248201527f766f7573206574657320706173206c652044444f2064652063657420417070656044820152686c2064206f6666726560b81b6064820152608490fd5b6040519061385a826132c3565b816101a060009182815282602082015260609283604083015280848301528060808301528060a08301528060c08301528360e0830152836101008301528061012083015280610140830152836101608301526101808201520152565b6010548110156134c457600c906010600052027f1b6847dc741a1b0cd08d278845f9d819d87b734759afb55fe2de5cb82a9ae6720190600090565b80548210156134c45760005260206000200190600090565b6003613914826138b6565b500154421015613a805760405161392a816132df565b60008152613937826138b6565b50546001600160a01b039081169261394e816138b6565b50600101549161395d826138b6565b5090613968836138b6565b506003015490613977846138b6565b506004015416613986846138b6565b5060040154613994856138b6565b506004015460a81c60ff166139a8866138b6565b50916139b3876138b6565b50936139be886138b6565b5060070154956139cd896138b6565b5060080154976139dc8a6138b6565b50996139e7906138b6565b50600a01549a604051809e6139fb826132c3565b815260200152600201613a0d90613514565b60408d015260608c015260808b015260a01c60ff16151560a08a0152151560c0890152600501613a3c90613514565b60e0880152600601613a4d90613514565b610100870152610120860152610140850152600901613a6b90613514565b6101608401526101808301526101a082015290565b613a89906138b6565b5060405190613a97826132c3565b60018060a01b0390818154168352600191600b838301549260209384870152613ac260028201613514565b60408701526003810154606087015260ff60048201548481166080890152818160a01c16151560a089015260a81c16151560c0870152613b0460058201613514565b60e0870152613b1560068201613514565b61010087015260078101546101208701526008810154610140870152613b3d60098201613514565b610160870152600a810154610180870152016040519384859385845492838152019360005285600020956000915b838310613b8c575050505050613b8392500382613315565b6101a082015290565b875481168652968401968896509481019491840191613b6b565b80548210156134c45760005260206000209060021b0190600090565b60405190613bcf826132a8565b60006080838281528260208201528260408201528260608201520152565b90604051613bfa816132a8565b608060ff6003839580548552600181015460208601526002810154604086015201548181161515606085015260081c161515910152565b15613c3857565b60405162461bcd60e51b815260206004820152601860248201527f4552433732313a20696e76616c696420746f6b656e20494400000000000000006044820152606490fd5b6000908152600260205260409020546001600160a01b03166133a3811515613c31565b600081815260026020526040902054613cc3906001600160a01b03161515613c31565b6000908152600460205260409020546001600160a01b031690565b15613ce557565b60405162461bcd60e51b815260206004820152602d60248201527f4552433732313a2063616c6c6572206973206e6f7420746f6b656e206f776e6560448201526c1c881bdc88185c1c1c9bdd9959609a1b6064820152608490fd5b90613d64939291613d546123db8433613ddb565b613d5f838383613fe3565b6140f4565b15613d6b57565b60405162461bcd60e51b815280613d8460048201613d88565b0390fd5b60809060208152603260208201527f4552433732313a207472616e7366657220746f206e6f6e20455243373231526560408201527131b2b4bb32b91034b6b83632b6b2b73a32b960711b60608201520190565b906001600160a01b038080613def84613c7d565b16931691838314938415613e22575b508315613e0c575b50505090565b613e1891929350613ca0565b1614388080613e06565b909350600052600560205260406000208260005260205260ff604060002054169238613dfe565b15613e5057565b60405162461bcd60e51b815260206004820152601c60248201527f4552433732313a20746f6b656e20616c7265616479206d696e746564000000006044820152606490fd5b6001600160a01b03168015613f4557600082815260026020526040902054613ec9906001600160a01b031615155b15613e49565b600082815260026020526040902054613eec906001600160a01b03161515613ec3565b600081815260036020526040812060018154019055828152600260205260408120826001600160601b0360a01b8254161790557fddf252ad1be2c89b69c2b068fc378daa952ba7f163c4a11628f55a4df523b3ef8180a4565b606460405162461bcd60e51b815260206004820152602060248201527f4552433732313a206d696e7420746f20746865207a65726f20616464726573736044820152fd5b15613f9057565b60405162461bcd60e51b815260206004820152602560248201527f4552433732313a207472616e736665722066726f6d20696e636f72726563742060448201526437bbb732b960d91b6064820152608490fd5b9061400b91613ff184613c7d565b6001600160a01b0393918416928492909183168414613f89565b169182156140a357816140289161402186613c7d565b1614613f89565b7fddf252ad1be2c89b69c2b068fc378daa952ba7f163c4a11628f55a4df523b3ef60008481526004602052604081206001600160601b0360a01b9081815416905583825260036020526040822060001981540190558482526040822060018154019055858252600260205284604083209182541617905580a4565b60405162461bcd60e51b8152602060048201526024808201527f4552433732313a207472616e7366657220746f20746865207a65726f206164646044820152637265737360e01b6064820152608490fd5b9293600093909291803b1561420e5794849161414e9660405180948193630a85bd0160e11b9788845233600485015260018060a01b0380921660248501526044840152608060648401528260209b8c976084830190613220565b0393165af18491816141ca575b506141b9575050503d6000146141b1573d61417581613336565b906141836040519283613315565b81528091833d92013e5b805191826141ae5760405162461bcd60e51b815280613d8460048201613d88565b01fd5b50606061418d565b6001600160e01b0319161492509050565b9091508581813d8311614207575b6141e28183613315565b8101031261420357516001600160e01b03198116810361420357903861415b565b8480fd5b503d6141d8565b505050915050600190565b6000818152600260205260409020549192916001600160a01b03161561434b5760009081526020926006845260408220918151916001600160401b0383116143375761426584546134da565b601f8111614309575b508591601f84116001146142a85783949596509261429d575b50508160011b916000199060031b1c1916179055565b015190503880614287565b9190601f1984169685845280842093905b8882106142f1575050836001959697106142d8575b505050811b019055565b015160001960f88460031b161c191690553880806142ce565b806001859682949686015181550195019301906142b9565b61433190858452878420601f860160051c81019189871061098557601f0160051c0190613662565b3861426e565b634e487b7160e01b82526041600452602482fd5b60405162461bcd60e51b815260206004820152602e60248201527f45524337323155524953746f726167653a2055524920736574206f66206e6f6e60448201526d32bc34b9ba32b73a103a37b5b2b760911b6064820152608490fdfea2646970667358221220a198e8f3f7bfe66ed0d172552354f6aba67a42dd932284b3d152ceff6e1a844864736f6c63430008110033",
  "immutableReferences": {},
  "source": "// SPDX-License-Identifier: BUSL-1.1\npragma solidity 0.8.17;\nimport \"../node_modules/@openzeppelin/contracts/token/ERC721/ERC721.sol\";\nimport \"../node_modules/@openzeppelin/contracts/token/ERC721/extensions/ERC721URIStorage.sol\";\n\n/// @title TenderOnChain\n/// @author Swuib and Sebastien HOFF\n/// @notice This contract ...\ncontract TenderOnChain is ERC721URIStorage {\n\n  constructor() ERC721(\"TENDERONCHAIN\", \"TOC\") {}\n\n  address public owner = msg.sender;                                                // adresse du proprietaire du contract\n  address payable public dev = payable(0x1Adb4BbA0470F24B008863E5799daa7369F62C1b); // adrress du developpeur 1\n\n  uint8 private maxLot = 30;                      // defini le nombre de lot max que peut contenir un lot\n  uint private NftId;                             // defini l'id du nft\n  uint public priceAO = 1 ether;                  // defini le montant  virer pour la creation de l'AO\n  uint public priceLot = 100000000000000000 wei;  // defini le montant  virer pour la participation  un lot\n  uint public aoLength;                           // defini le nombre total AO\n  uint public lotLength;                          // defini le nombre total de lot\n\n  \n  /// @notice  structure des utilisateurs\n  /// @dev  structure des utilisateurs\n  struct Users {\n    string name;                //raison sociale de la societ \n    bool isRegistred;           // vrai si l'utilisateur est enregistr\n    bool isAuditor;             // vrai si l'utilisateur est un validateur d'autentification de societs\n    bool isApproval;            // est vrai si l'auditeur a fait le contrle de cette socit\n    address adresseValidateur;  // adresse du controleur qui a verifi la situation du DDO\n    uint dateApprouval;         // timestamp de la validation ou devalidation du DDO\n    uint countNFTWinner;        // count du nombre de lot gagn\n    uint countNFTReal;          // count du nombre de lot ralis\n    uint countParticipation;    // count du nombre des participations\n  }\n  \n  struct AO {\n    address adressDDO;  // adresse du DDO qui va creer AO\n    string aoName;      // nom de AO\n    uint8 lastLotId;    // le dernier numero de lot creer\n    uint[] lotDeLAO;    // contient les index des lots constituant l'ao\n    uint createdAt;     // date de la creation de AO\n    bool isOpen;        // permet de savoir l'tat de l'AO\n  }\n  \n  struct LOT {\n    address adressDDO ;         // adresse du DDO qui va creer le lot\n    uint idAO;                  // index de AO\n    string description;         // description ou titre du lot \n    uint TsCloture;             // timeStamp Cloture du lot\n    address winner;             // adress de l'attributaire du lot\n    bool isNftAttributionEmit;  // si le nft d'attribution  t mit \n    bool isNftRealisationEmit;  // si le nft de ralisation  t mit\n    string categorie;           // categorie du lot\n    string susCategorie;        // sous categorie du lot\n    uint minprice;              // prix min du lot \n    uint maxprice;              // prix max du lot \n    string URIPDF;              // URL du PDF du IPFS ou sur une SGBD dentralise \n    uint partLengt;             // longueur du tableau des participans \n    address[] part;             // tableau des participants\n  }\n  \n  struct Participation {\n    uint idLot;                 // index du lot\n    uint Tsprice1;              // time stamp au moment ou le soumissionaire fait a proposition\n    uint price1;                // prix pour lequel le soumissionaire realisera le lot \n    bool isWinner;              // si il  ramport le lot\n    bool isRealisation;         // si il  ralis le  lot\n  }\n\n  mapping(address => Users) mappingUsers;\n  AO[] public arrayAO;\n  LOT[] arrayLots; \n  mapping(address => Participation[]) mappingParticipation;\n\n  //###########\n  // The events\n  //###########\n  //un utilisateur a t ajout au array des utilisateurs\n  event userAdded(address user, string name);\n  event userUpdated(address user, string name);\n  event requestAuditor(address user);\n  event requestValide(address user);\n  event userAuditor(address user);\n  event userDeleted(address user);\n  event userAudited(address user, address auditor, uint time);\n  // Appel Offre\n  event AoCreated(uint indexAO , string name , address user);\n  event AoEddited(uint indexAO , string name , address user);\n\n  /**\n  * @dev Event qui est dclench lors de la cration d'un lot\n  * @param indexAO index de l'AO\n  * @param indexLOT index du lot\n  * @param user adresse de l'utilisateur qui a cr le lot\n  */\n  event LotCreated(uint indexAO , uint indexLOT , address user, uint NftId,string name);\n\n  /**\n  * @dev Event qui se dclenche lorsque l'on reoit de l'argent\n  * @param value : montant reu\n  * @param user : adresse de l'utilisateur qui a envoy l'argent\n  */\n  event argentRecu(uint value , address user);\n  event participation(uint indexLOT , address user, uint NftId);\n  event winnerAttribution(uint indexAO ,uint indexLOT , address winner, uint  NftId);\n  event RealisationAttribution(uint indexAO ,uint indexLOT , address winner, uint  NftId);\n\n  //#########\n  // Modifier\n  //#########\n\n  /**\n  * @dev modifier qui verifie si l'utilisateur est bien le propritaire du contrat\n  */\n  modifier onlyOwner() {\n    require(msg.sender == owner, \"Ownable: caller is not the owner\");\n    _;\n  }\n\n  /**\n  * @dev modifier qui verifie si l'utilisateur  bien creer son compte\n  */\n  modifier isRegistred() {\n    require(mappingUsers[msg.sender].isRegistred, \"Vous n'etes pas un utilisateur\");\n    _;\n  }\n\n  /**\n  * @dev modifier qui verifie si l'utilisateur est un auditeur\n  */\n  modifier isAuditor() {\n    require(mappingUsers[msg.sender].isAuditor, \"Vous n'etes pas un auditeur\");\n    _;\n  }\n\n  //##############\n  // The functions\n  //##############\n  // :::::::::::::::::::::::::::::::::::::::::::: PRICE :::::::::::::::::::::::::::::::::::::::::::: //\n\n  /**\n  * @dev Retourne le solde du contrat\n  * @return uint\n  */\n  function BalanceContrat() public view onlyOwner returns (uint){\n    return address(this).balance;\n  }\n\n  /**\n  * @dev Permet de modifier le prix pour creation l'AO\n  * @param _nouveauPrix Le nouveau prix de l'AO\n  * @return Le nouveau prix de l'AO\n  */\n  function setAOprice(uint _nouveauPrix) external onlyOwner returns(uint) {\n    priceAO = _nouveauPrix; \n    return priceAO ; \n  }\n\n  /**\n  * @dev Permet de modifier le prix pour la creation d'un lot\n  * @param _nouveauPrix le nouveau prix du lot\n  * @return le nouveau prix du lot\n  */\n  function setLotprice(uint _nouveauPrix) external onlyOwner returns(uint) {\n    priceLot = _nouveauPrix; \n    return priceLot ; \n  }\n\n  /**\n  * @dev Permet de dtruire le contrat\n  */\n  function destroy() external onlyOwner {\n    selfdestruct(dev);//a verif\n  }\n\n  /**\n  * @dev Transfert tout le solde du contract vers l'adresse _to\n  * @param _to Adresse de destination\n  */\n  function transfertBalanceSecu(address _to) external onlyOwner {\n    payable (_to).transfer(address(this).balance);\n  }\n\n  /**\n  * @dev Transfre le montant spcifi depuis le contrat vers l'adresse spcifie.\n  * @param _to L'adresse vers laquelle effectuer le transfert.\n  * @param _amount Le montant  transfrer.\n  */\n  function transfertBalanceSecuAmount(address _to, uint _amount) external onlyOwner {\n    require(_amount > 0, \"Le montant de transfert doit etre superieur a 0\");\n    require(address(this).balance >= _amount, \"Le contrat n'a pas suffisamment de fonds pour effectuer le transfert\");\n    payable (_to).transfer(_amount);\n  }\n\n  // ::::::::::::::::::::::::::::::::::::::::::::: USER ::::::::::::::::::::::::::::::::::::::::::::: //\n  // ----------------------------------------\n  // User functions for manipulation account: \n  // ----------------------------------------\n\n  /**\n  * @dev Permet de creer un compte\n  * @param _name Le nom de l'utilisateur\n  */\n  function createAccount(string memory _name) external {\n    require(msg.sender != owner, \"pas owner\");\n    require(mappingUsers[msg.sender].isRegistred != true, \"Vous etes deja inscrit\");\n    require(keccak256(abi.encode(_name)) != keccak256(abi.encode(\"\")), \"Vous ne pouvez pas mettre rien comme nom\");\n    mappingUsers[msg.sender].isRegistred = true;\n    mappingUsers[msg.sender].name = _name;\n    emit userAdded(msg.sender,_name);\n  }\n\n  /**\n  * @dev Permet de modifier le nom d'un utilisateur\n  * @param _addr L'adresse de l'utilisateur\n  * @param _name Le nouveau nom de l'utilisateur\n  */\n  function editAccount(address _addr, string memory _name) external isRegistred {\n    require(keccak256(abi.encode(_name)) != keccak256(abi.encode(\"\")), \"Vous ne pouvez pas mettre rien comme nom\");\n    mappingUsers[_addr].name = _name;\n    emit userUpdated(_addr,_name);\n  }\n\n  /**\n  * @dev Demande de passage au statut auditeur\n  */\n  function requestNewAuditor() external isRegistred {\n    emit requestAuditor(msg.sender);\n  }\n\n  /**\n  * @dev Cette fonction permet de demander la validation d'un compte\n  */\n  function requestAcountValidation() external isRegistred {\n    emit requestValide(msg.sender);\n  }\n\n  /**\n  * @dev Permet de rcuprer les informations d'un utilisateur\n  * @param _addr Adresse de l'utilisateur\n  * @return Users memory\n  */\n  function getAccount(address _addr) external isRegistred view returns (Users memory) {\n    return mappingUsers[_addr];\n  }\n\n  // ---------------------------------------\n  // Owner fuctions for user manipulations :\n  // ---------------------------------------\n\n  /**\n  * @dev Permet de rcuprer les informations d'un utilisateur\n  * @param _addr Adresse de l'utilisateur\n  * @return Users memory\n  */\n  function getAccountForOwner(address _addr) external onlyOwner view returns (Users memory) {\n    return mappingUsers[_addr];\n  }\n\n  /**\n  * @dev Ajoute un utilisateur  la liste des auditeurs\n  * @param _addr L'adresse de l'utilisateur  ajouter\n  * @return L'utilisateur ajout\n  */\n  function updateAcountToAuditor(address _addr) external onlyOwner returns (Users memory) {\n    mappingUsers[_addr].isAuditor = true;\n    emit userAuditor(_addr);\n    return mappingUsers[_addr];\n  }\n\n  /**\n  * @dev Supprime un utilisateur\n  * @param _addr Adresse de l'utilisateur  supprimer\n  */\n  function deleteAccount(address _addr) external onlyOwner {\n    require(mappingUsers[_addr].isRegistred = true, \"utilisateur non enregistre\");\n    delete mappingUsers[_addr];\n    emit userDeleted(_addr);\n  }\n\n  /**\n  * @dev Remplace l'adresse d'un utilisateur dans le mapping sans modifier la structure.\n  * @param _oldAddress L'ancienne adresse de l'utilisateur.\n  * @param _newAddress La nouvelle adresse de l'utilisateur.\n  * @return bool True si l'adresse a t mise  jour avec succs, false sinon.\n  */\n  function updateAccount(address _oldAddress, address _newAddress) external onlyOwner returns(bool) {\n    require(mappingUsers[_oldAddress].isRegistred, \"L'utilisateur specifie n'existe pas dans le mapping\");\n    Users memory userData = mappingUsers[_oldAddress];\n    delete mappingUsers[_oldAddress];\n    mappingUsers[_newAddress] = userData;\n    return true;\n  }\n\n  // -----------------------------------------\n  // Auditor fuctions for user manipulations :\n  // -----------------------------------------\n\n  /**\n  * @dev Met  jour le statut d'un utilisateur  approuv\n  * @param _addr Adresse de l'utilisateur  approuver\n  */\n  function updateAcountToApproval(address _addr, bool _result) external isAuditor {\n    mappingUsers[_addr].isApproval = _result;\n    mappingUsers[_addr].adresseValidateur = msg.sender;\n    mappingUsers[_addr].dateApprouval = block.timestamp;\n    emit userAudited(_addr, msg.sender, block.timestamp);\n  }\n\n  // ::::::::::::::::::::::::::::::::::::::::::::: AO ::::::::::::::::::::::::::::::::::::::::::::: //\n\n  /**\n  * @dev Permet de crer un AO\n  * @param _name Nom de l'AO\n  */\n  function createAO(string memory _name, uint _amount) external isRegistred payable {\n    require(msg.value >= priceAO , \"Veuillez mettre le bon montant\");\n    require(keccak256(abi.encode(_name)) != keccak256(abi.encode(\"\")), \"Vous ne pouvez pas mettre rien comme nom\");\n    AO memory ao; \n    ao.aoName = _name;\n    ao.adressDDO = msg.sender;\n    ao.createdAt = block.timestamp;\n    ao.isOpen = false;\n    arrayAO.push(ao);\n    dev.transfer(_amount);\n    emit AoCreated(aoLength,_name,msg.sender);\n    aoLength = aoLength + 1;\n  }\n\n  /**\n  * @dev permet de modifier le nom d'un appel d'offre\n  * @param _index l'index de l'appel d'offre\n  * @param _name le nouveau nom de l'appel d'offre\n  */\n  function editAO(uint _index, string memory _name) external isRegistred {\n    require(arrayAO[_index].adressDDO == msg.sender,\"vous etes pas le DDO de cet Appel d offre\");\n    arrayAO[_index].aoName = _name;\n    emit AoEddited(_index,_name,msg.sender);\n  }\n\n  // ::::::::::::::::::::::::::::::::::::::::::::: LOT ::::::::::::::::::::::::::::::::::::::::::::: //\n\n  /**\n  * @dev Ajoute un lot  un appel d'offre\n  * @param _index index de l'appel d'offre\n  * @param _desc description du lot\n  * @param _ts timestamp de cloture du lot\n  * @param _cat categorie du lot\n  * @param _suscat  sous categorie du lot\n  * @param _min prix minimum du lot\n  * @param _max prix maximum du lot\n  * @param _uriJson uri du json du lot\n  * @param _uriLinkFile uri du pdf du lot\n  */\n  function createLot(\n    uint _index, \n    string memory _desc, \n    uint _ts,\n    string memory _cat,\n    string memory _suscat,\n    uint _min,\n    uint _max,\n    string memory _uriJson,\n    string memory _uriLinkFile\n    ) external isRegistred  {\n    require(_ts > block.timestamp, \"La date de cloture doit etre superieure a la date actuelle\");\n    require(_min > 0, \"Le prix minimum doit etre superieur a 0\");\n    require(_max > 0, \"Le prix maximum doit etre superieur a 0\");\n    require(_min < _max , \"le prix minimum ne peut pas etre superieur au prix maximum\");\n    require(arrayAO[_index].adressDDO == msg.sender,\"vous etes pas le DDO de cet Appel d offre\");\n    require(arrayAO[_index].lotDeLAO.length < maxLot , \"Vous avez atteint la limite du nombre de lots\");\n    LOT memory lot;\n    lot.adressDDO = msg.sender;\n    lot.idAO = _index;\n    lot.description = _desc;\n    lot.TsCloture = _ts;\n    lot.categorie = _cat;\n    lot.susCategorie = _suscat;\n    lot.minprice = _min;\n    lot.maxprice = _max;\n    lot.URIPDF = _uriLinkFile;\n    arrayLots.push(lot);\n    arrayAO[_index].isOpen = true;\n    arrayAO[_index].lastLotId = arrayAO[_index].lastLotId + 1;\n    arrayAO[_index].lotDeLAO.push(lotLength);\n    _mint(address(this), NftId);\n    _setTokenURI(NftId, _uriJson);\n    emit LotCreated(_index, lotLength, msg.sender, NftId,_desc);\n    NftId = NftId + 1;\n    lotLength = lotLength + 1;\n  }\n\n  function getArrayLots(uint _index) external isRegistred view returns (LOT memory) {\n    if (arrayLots[_index].TsCloture > block.timestamp) {\n        address[] memory part = new address[](0);\n      return (LOT)(\n        arrayLots[_index].adressDDO, \n        arrayLots[_index].idAO, \n        arrayLots[_index].description, \n        arrayLots[_index].TsCloture, \n        arrayLots[_index].winner, \n        arrayLots[_index].isNftAttributionEmit, \n        arrayLots[_index].isNftRealisationEmit, \n        arrayLots[_index].categorie, \n        arrayLots[_index].susCategorie, \n        arrayLots[_index].minprice, \n        arrayLots[_index].maxprice, \n        arrayLots[_index].URIPDF, \n        arrayLots[_index].partLengt,\n        part\n      );\n    } else {\n      return arrayLots[_index];\n    }\n  }\n\n// ::::::::::::::::::::::::::::::::::::::::::::: PARTICIPATION ::::::::::::::::::::::::::::::::::::::::::::: //\n  /**\n  * @dev Cette fonction permet  un utilisateur enregistr de crer une participation \n  *       un lot en fournissant l'ID du lot, le montant de l'offre et l'URI de \n  *      l'objet non-fongible (NFT) qui sera cr pour l'offre.\n  * @param _idlot L'ID du lot dans lequel l'utilisateur souhaite participer.\n  * @param _price Le montant de l'offre de l'utilisateur.\n  * @param _uri L'URI de l'objet non-fongible (NFT) qui sera cr pour l'offre de l'utilisateur.\n  */\n  function createParticipation(uint256 _idlot, uint256 _price, string memory _uri) external isRegistred {\n    require(arrayLots[_idlot].TsCloture > block.timestamp, \"l'appel d'offre est termine\");\n    mappingParticipation[msg.sender].push(Participation(_idlot, block.timestamp, _price,false ,false));\n    arrayLots[_idlot].part.push(msg.sender);\n    arrayLots[_idlot].partLengt = arrayLots[_idlot].partLengt + 1;\n    mappingUsers[msg.sender].countParticipation = mappingUsers[msg.sender].countParticipation + 1;\n    _mint(address(this), NftId);\n    _setTokenURI(NftId, _uri);\n    NftId = NftId + 1;\n    emit participation(_idlot , msg.sender, NftId);\n  }\n  \n  /**\n  * @dev Permet de rcuprer une participation\n  * @param _index l'index de la participation\n  * @return la participation\n  */\n  function getMyParticipation(uint _index) external isRegistred view returns (Participation memory) {\n    return mappingParticipation[msg.sender][_index];\n  }\n\n  /**\n  * @dev Permet de rcuprer une participation\n  * @param _addr l'adresse de l'utilisateur\n  * @param _index l'index de la participation\n  * @return la participation\n  */\n  function getMyParticipationOwner(address _addr,uint _index) external onlyOwner view returns (Participation memory) {\n    return mappingParticipation[_addr][_index];\n  }\n\n  /**\n  * @dev Renvoie la longueur de la participation d'un utilisateur\n  * @param _addr L'adresse de l'utilisateur\n  * @return La longueur de la participation de l'utilisateur\n  */\n  function getParticipationLength(address _addr) external isRegistred view returns (uint) {\n    return mappingParticipation[_addr].length;\n  }\n\n  /**\n  * @dev Supprime une participation\n  * @param _addr Adresse de l'utilisateur\n  * @param _index Index de la participation\n  */\n  function removeParticipation(address _addr, uint _index) external onlyOwner {\n    delete mappingParticipation[_addr][_index];\n  }\n\n  /**\n  * @dev declare une participation winner ou bonne realisation\n  * @param _niveau niveau de 1  2 (1= winner, 2 = bonne realisation)\n  * @param _indexAo, index de l'AO sur lequel porte la participation\n  * @param _indexLot, index du Lot sur lequel porte la participation\n  * @param _index Index de la participation\n  * @param _addr Adresse du gagant \n  * @param _uriJson Index de la participation\n  */\n  function attribution(uint8 _niveau, uint256 _indexAo, uint256 _indexLot, uint256 _index, address _addr, string memory _uriJson) external isRegistred {\n    require(arrayLots[_indexAo].TsCloture < block.timestamp, \"l'appel d'offre n'est pas termine\");\n    require(arrayAO[_indexAo].adressDDO == msg.sender,\"vous etes pas le DDO de cet Appel d offre\");\n    require(_niveau > 0, \"Le niveau doit etre superieur a zero\");\n    require(_niveau <= 3, \"Le niveau doit etre inferieur a 3\");\n    if (_niveau == 1) {\n      mappingParticipation[_addr][_index].isWinner = true;\n      arrayLots[_indexLot].isNftAttributionEmit = true;\n      mappingUsers[_addr].countNFTWinner = mappingUsers[_addr].countNFTWinner +1;\n      arrayLots[_indexLot].winner= _addr;\n      _mint(address(this), NftId);\n      _setTokenURI(NftId, _uriJson);\n      emit winnerAttribution(_indexAo, _index, _addr, NftId);\n        NftId = NftId + 1;\n    } else if ((_niveau == 2) && (mappingParticipation[_addr][_index].isWinner = true)) {\n      mappingParticipation[_addr][_index].isRealisation = true;\n      arrayLots[_indexLot].isNftRealisationEmit = true;\n      mappingUsers[_addr].countNFTReal = mappingUsers[_addr].countNFTReal + 1;\n      _mint(address(this), NftId);\n      _setTokenURI(NftId, _uriJson);\n      emit RealisationAttribution(_indexAo, _index, _addr, NftId);\n      NftId = NftId + 1;\n    }\n  }\n}\n",
  "sourcePath": "/Users/sebastienjeanneditdenis/Desktop/Alyra/cours/Semaine-08 Projet Final/Projet#4/truffle/contracts/TenderOnChain.sol",
  "compiler": {
    "name": "solc",
    "version": "0.8.17+commit.8df45f5f.Emscripten.clang"
  },
  "schemaVersion": "3.4.10",
  "updatedAt": "2022-12-08T10:13:29.237Z",
  "networkType": "ethereum",
  "devdoc": {
    "author": "Swuib and Sebastien HOFF",
    "events": {
      "LotCreated(uint256,uint256,address,uint256,string)": {
        "details": "Event qui est dclench lors de la cration d'un lot",
        "params": {
          "indexAO": "index de l'AO",
          "indexLOT": "index du lot",
          "user": "adresse de l'utilisateur qui a cr le lot"
        }
      },
      "argentRecu(uint256,address)": {
        "details": "Event qui se dclenche lorsque l'on reoit de l'argent",
        "params": {
          "user": ": adresse de l'utilisateur qui a envoy l'argent",
          "value": ": montant reu"
        }
      }
    },
    "kind": "dev",
    "methods": {
      "BalanceContrat()": {
        "details": "Retourne le solde du contrat",
        "returns": {
          "_0": "uint"
        }
      },
      "approve(address,uint256)": {
        "details": "See {IERC721-approve}."
      },
      "attribution(uint8,uint256,uint256,uint256,address,string)": {
        "details": "declare une participation winner ou bonne realisation",
        "params": {
          "_addr": "Adresse du gagant ",
          "_index": "Index de la participation",
          "_indexAo": ", index de l'AO sur lequel porte la participation",
          "_indexLot": ", index du Lot sur lequel porte la participation",
          "_niveau": "niveau de 1  2 (1= winner, 2 = bonne realisation)",
          "_uriJson": "Index de la participation"
        }
      },
      "balanceOf(address)": {
        "details": "See {IERC721-balanceOf}."
      },
      "createAO(string,uint256)": {
        "details": "Permet de crer un AO",
        "params": {
          "_name": "Nom de l'AO"
        }
      },
      "createAccount(string)": {
        "details": "Permet de creer un compte",
        "params": {
          "_name": "Le nom de l'utilisateur"
        }
      },
      "createLot(uint256,string,uint256,string,string,uint256,uint256,string,string)": {
        "details": "Ajoute un lot  un appel d'offre",
        "params": {
          "_cat": "categorie du lot",
          "_desc": "description du lot",
          "_index": "index de l'appel d'offre",
          "_max": "prix maximum du lot",
          "_min": "prix minimum du lot",
          "_suscat": "sous categorie du lot",
          "_ts": "timestamp de cloture du lot",
          "_uriJson": "uri du json du lot",
          "_uriLinkFile": "uri du pdf du lot"
        }
      },
      "createParticipation(uint256,uint256,string)": {
        "details": "Cette fonction permet  un utilisateur enregistr de crer une participation        un lot en fournissant l'ID du lot, le montant de l'offre et l'URI de       l'objet non-fongible (NFT) qui sera cr pour l'offre.",
        "params": {
          "_idlot": "L'ID du lot dans lequel l'utilisateur souhaite participer.",
          "_price": "Le montant de l'offre de l'utilisateur.",
          "_uri": "L'URI de l'objet non-fongible (NFT) qui sera cr pour l'offre de l'utilisateur."
        }
      },
      "deleteAccount(address)": {
        "details": "Supprime un utilisateur",
        "params": {
          "_addr": "Adresse de l'utilisateur  supprimer"
        }
      },
      "destroy()": {
        "details": "Permet de dtruire le contrat"
      },
      "editAO(uint256,string)": {
        "details": "permet de modifier le nom d'un appel d'offre",
        "params": {
          "_index": "l'index de l'appel d'offre",
          "_name": "le nouveau nom de l'appel d'offre"
        }
      },
      "editAccount(address,string)": {
        "details": "Permet de modifier le nom d'un utilisateur",
        "params": {
          "_addr": "L'adresse de l'utilisateur",
          "_name": "Le nouveau nom de l'utilisateur"
        }
      },
      "getAccount(address)": {
        "details": "Permet de rcuprer les informations d'un utilisateur",
        "params": {
          "_addr": "Adresse de l'utilisateur"
        },
        "returns": {
          "_0": "Users memory"
        }
      },
      "getAccountForOwner(address)": {
        "details": "Permet de rcuprer les informations d'un utilisateur",
        "params": {
          "_addr": "Adresse de l'utilisateur"
        },
        "returns": {
          "_0": "Users memory"
        }
      },
      "getApproved(uint256)": {
        "details": "See {IERC721-getApproved}."
      },
      "getMyParticipation(uint256)": {
        "details": "Permet de rcuprer une participation",
        "params": {
          "_index": "l'index de la participation"
        },
        "returns": {
          "_0": "la participation"
        }
      },
      "getMyParticipationOwner(address,uint256)": {
        "details": "Permet de rcuprer une participation",
        "params": {
          "_addr": "l'adresse de l'utilisateur",
          "_index": "l'index de la participation"
        },
        "returns": {
          "_0": "la participation"
        }
      },
      "getParticipationLength(address)": {
        "details": "Renvoie la longueur de la participation d'un utilisateur",
        "params": {
          "_addr": "L'adresse de l'utilisateur"
        },
        "returns": {
          "_0": "La longueur de la participation de l'utilisateur"
        }
      },
      "isApprovedForAll(address,address)": {
        "details": "See {IERC721-isApprovedForAll}."
      },
      "name()": {
        "details": "See {IERC721Metadata-name}."
      },
      "ownerOf(uint256)": {
        "details": "See {IERC721-ownerOf}."
      },
      "removeParticipation(address,uint256)": {
        "details": "Supprime une participation",
        "params": {
          "_addr": "Adresse de l'utilisateur",
          "_index": "Index de la participation"
        }
      },
      "requestAcountValidation()": {
        "details": "Cette fonction permet de demander la validation d'un compte"
      },
      "requestNewAuditor()": {
        "details": "Demande de passage au statut auditeur"
      },
      "safeTransferFrom(address,address,uint256)": {
        "details": "See {IERC721-safeTransferFrom}."
      },
      "safeTransferFrom(address,address,uint256,bytes)": {
        "details": "See {IERC721-safeTransferFrom}."
      },
      "setAOprice(uint256)": {
        "details": "Permet de modifier le prix pour creation l'AO",
        "params": {
          "_nouveauPrix": "Le nouveau prix de l'AO"
        },
        "returns": {
          "_0": "Le nouveau prix de l'AO"
        }
      },
      "setApprovalForAll(address,bool)": {
        "details": "See {IERC721-setApprovalForAll}."
      },
      "setLotprice(uint256)": {
        "details": "Permet de modifier le prix pour la creation d'un lot",
        "params": {
          "_nouveauPrix": "le nouveau prix du lot"
        },
        "returns": {
          "_0": "le nouveau prix du lot"
        }
      },
      "supportsInterface(bytes4)": {
        "details": "See {IERC165-supportsInterface}."
      },
      "symbol()": {
        "details": "See {IERC721Metadata-symbol}."
      },
      "tokenURI(uint256)": {
        "details": "See {IERC721Metadata-tokenURI}."
      },
      "transferFrom(address,address,uint256)": {
        "details": "See {IERC721-transferFrom}."
      },
      "transfertBalanceSecu(address)": {
        "details": "Transfert tout le solde du contract vers l'adresse _to",
        "params": {
          "_to": "Adresse de destination"
        }
      },
      "transfertBalanceSecuAmount(address,uint256)": {
        "details": "Transfre le montant spcifi depuis le contrat vers l'adresse spcifie.",
        "params": {
          "_amount": "Le montant  transfrer.",
          "_to": "L'adresse vers laquelle effectuer le transfert."
        }
      },
      "updateAccount(address,address)": {
        "details": "Remplace l'adresse d'un utilisateur dans le mapping sans modifier la structure.",
        "params": {
          "_newAddress": "La nouvelle adresse de l'utilisateur.",
          "_oldAddress": "L'ancienne adresse de l'utilisateur."
        },
        "returns": {
          "_0": "bool True si l'adresse a t mise  jour avec succs, false sinon."
        }
      },
      "updateAcountToApproval(address,bool)": {
        "details": "Met  jour le statut d'un utilisateur  approuv",
        "params": {
          "_addr": "Adresse de l'utilisateur  approuver"
        }
      },
      "updateAcountToAuditor(address)": {
        "details": "Ajoute un utilisateur  la liste des auditeurs",
        "params": {
          "_addr": "L'adresse de l'utilisateur  ajouter"
        },
        "returns": {
          "_0": "L'utilisateur ajout"
        }
      }
    },
    "title": "TenderOnChain",
    "version": 1
  },
  "userdoc": {
    "kind": "user",
    "methods": {},
    "notice": "This contract ...",
    "version": 1
  }
}