{
  "contractName": "TenderOnChain",
  "abi": [
    {
      "inputs": [],
      "stateMutability": "nonpayable",
      "type": "constructor"
    },
    {
      "anonymous": false,
      "inputs": [
        {
          "indexed": false,
          "internalType": "uint256",
          "name": "indexAO",
          "type": "uint256"
        },
        {
          "indexed": false,
          "internalType": "address",
          "name": "user",
          "type": "address"
        }
      ],
      "name": "AoCreated",
      "type": "event"
    },
    {
      "anonymous": false,
      "inputs": [
        {
          "indexed": false,
          "internalType": "uint256",
          "name": "indexAO",
          "type": "uint256"
        },
        {
          "indexed": false,
          "internalType": "address",
          "name": "user",
          "type": "address"
        }
      ],
      "name": "AoEddited",
      "type": "event"
    },
    {
      "anonymous": false,
      "inputs": [
        {
          "indexed": false,
          "internalType": "uint256",
          "name": "indexAO",
          "type": "uint256"
        },
        {
          "indexed": false,
          "internalType": "uint256",
          "name": "indexLOT",
          "type": "uint256"
        },
        {
          "indexed": false,
          "internalType": "address",
          "name": "user",
          "type": "address"
        }
      ],
      "name": "LotCreated",
      "type": "event"
    },
    {
      "anonymous": false,
      "inputs": [
        {
          "indexed": false,
          "internalType": "uint256",
          "name": "indexLOT",
          "type": "uint256"
        },
        {
          "indexed": false,
          "internalType": "address",
          "name": "user",
          "type": "address"
        }
      ],
      "name": "LotEddited",
      "type": "event"
    },
    {
      "anonymous": false,
      "inputs": [
        {
          "indexed": true,
          "internalType": "address",
          "name": "previousOwner",
          "type": "address"
        },
        {
          "indexed": true,
          "internalType": "address",
          "name": "newOwner",
          "type": "address"
        }
      ],
      "name": "OwnershipTransferred",
      "type": "event"
    },
    {
      "anonymous": false,
      "inputs": [
        {
          "indexed": false,
          "internalType": "uint256",
          "name": "value",
          "type": "uint256"
        },
        {
          "indexed": false,
          "internalType": "address",
          "name": "user",
          "type": "address"
        }
      ],
      "name": "argentRecu",
      "type": "event"
    },
    {
      "anonymous": false,
      "inputs": [
        {
          "indexed": false,
          "internalType": "address",
          "name": "user",
          "type": "address"
        }
      ],
      "name": "requestAuditor",
      "type": "event"
    },
    {
      "anonymous": false,
      "inputs": [
        {
          "indexed": false,
          "internalType": "address",
          "name": "user",
          "type": "address"
        }
      ],
      "name": "requestValide",
      "type": "event"
    },
    {
      "anonymous": false,
      "inputs": [
        {
          "indexed": false,
          "internalType": "uint256",
          "name": "codeAction",
          "type": "uint256"
        },
        {
          "indexed": false,
          "internalType": "address",
          "name": "user",
          "type": "address"
        }
      ],
      "name": "transferSecu",
      "type": "event"
    },
    {
      "anonymous": false,
      "inputs": [
        {
          "indexed": false,
          "internalType": "address",
          "name": "user",
          "type": "address"
        },
        {
          "indexed": false,
          "internalType": "string",
          "name": "name",
          "type": "string"
        }
      ],
      "name": "userAdded",
      "type": "event"
    },
    {
      "anonymous": false,
      "inputs": [
        {
          "indexed": false,
          "internalType": "address",
          "name": "user",
          "type": "address"
        },
        {
          "indexed": false,
          "internalType": "address",
          "name": "auditor",
          "type": "address"
        },
        {
          "indexed": false,
          "internalType": "uint256",
          "name": "time",
          "type": "uint256"
        }
      ],
      "name": "userAudited",
      "type": "event"
    },
    {
      "anonymous": false,
      "inputs": [
        {
          "indexed": false,
          "internalType": "address",
          "name": "user",
          "type": "address"
        }
      ],
      "name": "userAuditor",
      "type": "event"
    },
    {
      "anonymous": false,
      "inputs": [
        {
          "indexed": false,
          "internalType": "address",
          "name": "user",
          "type": "address"
        }
      ],
      "name": "userDeleted",
      "type": "event"
    },
    {
      "anonymous": false,
      "inputs": [
        {
          "indexed": false,
          "internalType": "address",
          "name": "user",
          "type": "address"
        },
        {
          "indexed": false,
          "internalType": "string",
          "name": "name",
          "type": "string"
        }
      ],
      "name": "userUpdated",
      "type": "event"
    },
    {
      "inputs": [],
      "name": "AoLentght",
      "outputs": [
        {
          "internalType": "uint256",
          "name": "",
          "type": "uint256"
        }
      ],
      "stateMutability": "view",
      "type": "function",
      "constant": true
    },
    {
      "inputs": [],
      "name": "LotLentght",
      "outputs": [
        {
          "internalType": "uint256",
          "name": "",
          "type": "uint256"
        }
      ],
      "stateMutability": "view",
      "type": "function",
      "constant": true
    },
    {
      "inputs": [],
      "name": "maxLot",
      "outputs": [
        {
          "internalType": "uint8",
          "name": "",
          "type": "uint8"
        }
      ],
      "stateMutability": "view",
      "type": "function",
      "constant": true
    },
    {
      "inputs": [],
      "name": "owner",
      "outputs": [
        {
          "internalType": "address",
          "name": "",
          "type": "address"
        }
      ],
      "stateMutability": "view",
      "type": "function",
      "constant": true
    },
    {
      "inputs": [],
      "name": "priceAO",
      "outputs": [
        {
          "internalType": "uint256",
          "name": "",
          "type": "uint256"
        }
      ],
      "stateMutability": "view",
      "type": "function",
      "constant": true
    },
    {
      "inputs": [],
      "name": "priceLot",
      "outputs": [
        {
          "internalType": "uint256",
          "name": "",
          "type": "uint256"
        }
      ],
      "stateMutability": "view",
      "type": "function",
      "constant": true
    },
    {
      "inputs": [],
      "name": "renounceOwnership",
      "outputs": [],
      "stateMutability": "nonpayable",
      "type": "function"
    },
    {
      "inputs": [
        {
          "internalType": "uint256",
          "name": "",
          "type": "uint256"
        }
      ],
      "name": "tableauAO",
      "outputs": [
        {
          "internalType": "address",
          "name": "adressDDO",
          "type": "address"
        },
        {
          "internalType": "string",
          "name": "aoName",
          "type": "string"
        },
        {
          "internalType": "bool",
          "name": "isPaid",
          "type": "bool"
        },
        {
          "internalType": "uint256",
          "name": "createdAt",
          "type": "uint256"
        }
      ],
      "stateMutability": "view",
      "type": "function",
      "constant": true
    },
    {
      "inputs": [
        {
          "internalType": "uint256",
          "name": "",
          "type": "uint256"
        }
      ],
      "name": "tableauLots",
      "outputs": [
        {
          "internalType": "address",
          "name": "adressDDO",
          "type": "address"
        },
        {
          "internalType": "uint256",
          "name": "idAO",
          "type": "uint256"
        },
        {
          "internalType": "uint256",
          "name": "idLot",
          "type": "uint256"
        },
        {
          "internalType": "string",
          "name": "description",
          "type": "string"
        },
        {
          "internalType": "uint256",
          "name": "TsCloture",
          "type": "uint256"
        },
        {
          "internalType": "address",
          "name": "winner",
          "type": "address"
        },
        {
          "internalType": "bool",
          "name": "isNftAttributionEmit",
          "type": "bool"
        },
        {
          "internalType": "bool",
          "name": "isNftRealisationEmit",
          "type": "bool"
        },
        {
          "internalType": "uint8",
          "name": "idEtapeLot",
          "type": "uint8"
        },
        {
          "internalType": "string",
          "name": "categorie",
          "type": "string"
        },
        {
          "internalType": "string",
          "name": "susCategorie",
          "type": "string"
        },
        {
          "internalType": "uint256",
          "name": "minprice",
          "type": "uint256"
        },
        {
          "internalType": "uint256",
          "name": "maxprice",
          "type": "uint256"
        },
        {
          "internalType": "string",
          "name": "URIPDF",
          "type": "string"
        }
      ],
      "stateMutability": "view",
      "type": "function",
      "constant": true
    },
    {
      "inputs": [
        {
          "internalType": "address",
          "name": "newOwner",
          "type": "address"
        }
      ],
      "name": "transferOwnership",
      "outputs": [],
      "stateMutability": "nonpayable",
      "type": "function"
    },
    {
      "inputs": [],
      "name": "BalanceContrat",
      "outputs": [
        {
          "internalType": "uint256",
          "name": "",
          "type": "uint256"
        }
      ],
      "stateMutability": "view",
      "type": "function",
      "constant": true
    },
    {
      "inputs": [
        {
          "internalType": "uint256",
          "name": "_nouveauPrix",
          "type": "uint256"
        }
      ],
      "name": "setAOprice",
      "outputs": [
        {
          "internalType": "uint256",
          "name": "",
          "type": "uint256"
        }
      ],
      "stateMutability": "nonpayable",
      "type": "function"
    },
    {
      "inputs": [
        {
          "internalType": "uint256",
          "name": "_nouveauPrix",
          "type": "uint256"
        }
      ],
      "name": "setLotprice",
      "outputs": [
        {
          "internalType": "uint256",
          "name": "",
          "type": "uint256"
        }
      ],
      "stateMutability": "nonpayable",
      "type": "function"
    },
    {
      "inputs": [
        {
          "internalType": "string",
          "name": "_name",
          "type": "string"
        }
      ],
      "name": "createAccount",
      "outputs": [],
      "stateMutability": "nonpayable",
      "type": "function"
    },
    {
      "inputs": [
        {
          "internalType": "address",
          "name": "_addr",
          "type": "address"
        },
        {
          "internalType": "string",
          "name": "_name",
          "type": "string"
        }
      ],
      "name": "editAccount",
      "outputs": [],
      "stateMutability": "nonpayable",
      "type": "function"
    },
    {
      "inputs": [
        {
          "internalType": "address",
          "name": "_addr",
          "type": "address"
        }
      ],
      "name": "requestNewAuditor",
      "outputs": [],
      "stateMutability": "nonpayable",
      "type": "function"
    },
    {
      "inputs": [
        {
          "internalType": "address",
          "name": "_addr",
          "type": "address"
        }
      ],
      "name": "requestAcountValidation",
      "outputs": [],
      "stateMutability": "nonpayable",
      "type": "function"
    },
    {
      "inputs": [
        {
          "internalType": "address",
          "name": "_addr",
          "type": "address"
        }
      ],
      "name": "getAccount",
      "outputs": [
        {
          "components": [
            {
              "internalType": "string",
              "name": "name",
              "type": "string"
            },
            {
              "internalType": "bool",
              "name": "isRegistred",
              "type": "bool"
            },
            {
              "internalType": "bool",
              "name": "isAuditor",
              "type": "bool"
            },
            {
              "internalType": "bool",
              "name": "isApproval",
              "type": "bool"
            },
            {
              "internalType": "address",
              "name": "adresseValidateur",
              "type": "address"
            },
            {
              "internalType": "uint256",
              "name": "dateApprouval",
              "type": "uint256"
            }
          ],
          "internalType": "struct TenderOnChain.Users",
          "name": "",
          "type": "tuple"
        }
      ],
      "stateMutability": "view",
      "type": "function",
      "constant": true
    },
    {
      "inputs": [
        {
          "internalType": "address",
          "name": "_addr",
          "type": "address"
        }
      ],
      "name": "getAccountForOwner",
      "outputs": [
        {
          "components": [
            {
              "internalType": "string",
              "name": "name",
              "type": "string"
            },
            {
              "internalType": "bool",
              "name": "isRegistred",
              "type": "bool"
            },
            {
              "internalType": "bool",
              "name": "isAuditor",
              "type": "bool"
            },
            {
              "internalType": "bool",
              "name": "isApproval",
              "type": "bool"
            },
            {
              "internalType": "address",
              "name": "adresseValidateur",
              "type": "address"
            },
            {
              "internalType": "uint256",
              "name": "dateApprouval",
              "type": "uint256"
            }
          ],
          "internalType": "struct TenderOnChain.Users",
          "name": "",
          "type": "tuple"
        }
      ],
      "stateMutability": "view",
      "type": "function",
      "constant": true
    },
    {
      "inputs": [
        {
          "internalType": "address",
          "name": "_addr",
          "type": "address"
        }
      ],
      "name": "updateAcountToAuditor",
      "outputs": [
        {
          "components": [
            {
              "internalType": "string",
              "name": "name",
              "type": "string"
            },
            {
              "internalType": "bool",
              "name": "isRegistred",
              "type": "bool"
            },
            {
              "internalType": "bool",
              "name": "isAuditor",
              "type": "bool"
            },
            {
              "internalType": "bool",
              "name": "isApproval",
              "type": "bool"
            },
            {
              "internalType": "address",
              "name": "adresseValidateur",
              "type": "address"
            },
            {
              "internalType": "uint256",
              "name": "dateApprouval",
              "type": "uint256"
            }
          ],
          "internalType": "struct TenderOnChain.Users",
          "name": "",
          "type": "tuple"
        }
      ],
      "stateMutability": "nonpayable",
      "type": "function"
    },
    {
      "inputs": [
        {
          "internalType": "address",
          "name": "_addr",
          "type": "address"
        }
      ],
      "name": "deleteAccount",
      "outputs": [],
      "stateMutability": "nonpayable",
      "type": "function"
    },
    {
      "inputs": [
        {
          "internalType": "address",
          "name": "_addr",
          "type": "address"
        }
      ],
      "name": "updateAcountToApproval",
      "outputs": [],
      "stateMutability": "nonpayable",
      "type": "function"
    },
    {
      "inputs": [
        {
          "internalType": "string",
          "name": "_name",
          "type": "string"
        }
      ],
      "name": "createAO",
      "outputs": [],
      "stateMutability": "payable",
      "type": "function",
      "payable": true
    },
    {
      "inputs": [
        {
          "internalType": "uint256",
          "name": "_index",
          "type": "uint256"
        },
        {
          "internalType": "string",
          "name": "_name",
          "type": "string"
        }
      ],
      "name": "editAO",
      "outputs": [],
      "stateMutability": "nonpayable",
      "type": "function"
    },
    {
      "inputs": [
        {
          "internalType": "uint256",
          "name": "_index",
          "type": "uint256"
        },
        {
          "internalType": "string",
          "name": "_desc",
          "type": "string"
        },
        {
          "internalType": "uint256",
          "name": "_numeroAO",
          "type": "uint256"
        },
        {
          "internalType": "uint256",
          "name": "_ts",
          "type": "uint256"
        },
        {
          "internalType": "string",
          "name": "_cat",
          "type": "string"
        },
        {
          "internalType": "string",
          "name": "_susCat",
          "type": "string"
        },
        {
          "internalType": "uint256",
          "name": "_min",
          "type": "uint256"
        },
        {
          "internalType": "uint256",
          "name": "_max",
          "type": "uint256"
        },
        {
          "internalType": "string",
          "name": "_uri",
          "type": "string"
        }
      ],
      "name": "addLOT",
      "outputs": [],
      "stateMutability": "nonpayable",
      "type": "function"
    },
    {
      "inputs": [
        {
          "internalType": "uint256",
          "name": "_index",
          "type": "uint256"
        }
      ],
      "name": "getAO",
      "outputs": [
        {
          "internalType": "string",
          "name": "_nom",
          "type": "string"
        },
        {
          "internalType": "address",
          "name": "_addrDDO",
          "type": "address"
        },
        {
          "internalType": "bool",
          "name": "_isPaid",
          "type": "bool"
        }
      ],
      "stateMutability": "view",
      "type": "function",
      "constant": true
    },
    {
      "inputs": [
        {
          "internalType": "address",
          "name": "_addr",
          "type": "address"
        }
      ],
      "name": "transfertBalanceSecu",
      "outputs": [],
      "stateMutability": "nonpayable",
      "type": "function"
    },
    {
      "inputs": [
        {
          "internalType": "uint256",
          "name": "_idlot",
          "type": "uint256"
        }
      ],
      "name": "createParticipation",
      "outputs": [],
      "stateMutability": "nonpayable",
      "type": "function"
    },
    {
      "inputs": [
        {
          "internalType": "address",
          "name": "_addr",
          "type": "address"
        },
        {
          "internalType": "uint256",
          "name": "_index",
          "type": "uint256"
        }
      ],
      "name": "getParticipation",
      "outputs": [
        {
          "components": [
            {
              "internalType": "uint256",
              "name": "idLot",
              "type": "uint256"
            },
            {
              "internalType": "uint256",
              "name": "Tsprice1",
              "type": "uint256"
            },
            {
              "internalType": "uint256",
              "name": "price1",
              "type": "uint256"
            },
            {
              "internalType": "uint256",
              "name": "Tsprice2",
              "type": "uint256"
            },
            {
              "internalType": "uint256",
              "name": "price2",
              "type": "uint256"
            }
          ],
          "internalType": "struct TenderOnChain.Participation",
          "name": "",
          "type": "tuple"
        }
      ],
      "stateMutability": "view",
      "type": "function",
      "constant": true
    },
    {
      "inputs": [
        {
          "internalType": "address",
          "name": "_addr",
          "type": "address"
        }
      ],
      "name": "getParticipationLength",
      "outputs": [
        {
          "internalType": "uint256",
          "name": "",
          "type": "uint256"
        }
      ],
      "stateMutability": "view",
      "type": "function",
      "constant": true
    },
    {
      "inputs": [
        {
          "internalType": "address",
          "name": "_addr",
          "type": "address"
        },
        {
          "internalType": "uint256",
          "name": "_index",
          "type": "uint256"
        }
      ],
      "name": "removeParticipation",
      "outputs": [],
      "stateMutability": "nonpayable",
      "type": "function"
    }
  ],
  "bytecode": "0x6080806040523461007c576000543360018060a01b0382167f8be0079c531659141344cd1fd0a4f28419497f9722a3daafe3b4186f6b6457e0600080a36001600160a81b0319163360ff60a01b191617600f60a11b17600055670de0b6b3a764000060015567016345785d8a00006002556123e190816100828239f35b600080fdfe6080604052600436101561001257600080fd5b60003560e01c806316b53e3114611e955780632294cd8714611e775780632413cab614611e4a578063298daf5b14611c2d57806339eb509114611c0f5780633cef69c114611beb5780634c1b64cb14611b1c57806359e203e1146119275780635c8b1f6914611909578063715018a6146118b05780638da5cb5b146118875780639454338d1461186357806394d9c30f1461176657806395666de3146116cb578063983df4c8146113a55780639a667a4614610c29578063a2473631146109a6578063abaeeebd146108e0578063b785cc31146108a6578063b9e19ded1461086a578063be2b27d114610840578063c6dde4da146107d5578063ccfba830146107ab578063d1a52a0a146105b6578063de1c4498146104af578063deda3d8914610437578063e2d7aaa114610340578063e8f86cd11461031c578063f2788082146102fe578063f2fde38b146102355763fbcbc0f11461017157600080fd5b346102305760203660031901126102305761022c61018d611ef4565b6101956122c3565b503360005260056020526101b360ff60016040600020015416612277565b60018060a01b03809116600052600560205260026040600020604051926101d984611fa4565b6101e2826120e1565b8452600182015460ff81161515602086015260ff8160081c161515604086015260ff8160101c161515606086015260181c166080840152015460a082015260405191829182611f4a565b0390f35b600080fd5b346102305760203660031901126102305761024e611ef4565b610256612353565b6001600160a01b039081169081156102aa57600054826bffffffffffffffffffffffff60a01b821617600055167f8be0079c531659141344cd1fd0a4f28419497f9722a3daafe3b4186f6b6457e0600080a3005b60405162461bcd60e51b815260206004820152602660248201527f4f776e61626c653a206e6577206f776e657220697320746865207a65726f206160448201526564647265737360d01b6064820152608490fd5b34610230576000366003190112610230576020600354604051908152f35b3461023057602036600319011261023057610335611ef4565b5061033e612353565b005b34610230576020366003190112610230576004356006548110156102305760066000526005027ff652222313e28459528d920b65115c16c04f3efc82aaedc97be59f3f377c0d3f8101546001600160a01b03166103be7ff652222313e28459528d920b65115c16c04f3efc82aaedc97be59f3f377c0d4083016120e1565b917ff652222313e28459528d920b65115c16c04f3efc82aaedc97be59f3f377c0d4360ff7ff652222313e28459528d920b65115c16c04f3efc82aaedc97be59f3f377c0d41830154169101546104266040519485948552608060208601526080850190611f0a565b911515604084015260608301520390f35b346102305760203660031901126102305761049e60043561045781612187565b5090610489600160ff600261047e61046e86612187565b50848060a01b0390541695612187565b5001541693016120e1565b91604051938493606085526060850190611f0a565b916020840152151560408301520390f35b34610230576020366003190112610230576104c8611ef4565b33600052600560205260ff60016040600020015460081c1615610571576001600160a01b031660008181526005602090815260409182902060018101805462010000600160b81b03191633601881901b6301000000600160b81b0316919091176201000017909155426002909201829055835194855291840191909152908201527f8374119f2a4546ccc495a5cd8d55d891b8c64e342d10ebfd6f7db0fdf141bbb190606090a1005b60405162461bcd60e51b815260206004820152601b60248201527f566f7573206e27657465732070617320756e20617564697465757200000000006044820152606490fd5b34610230576040366003190112610230576001600160401b03600435602435828111610230576105ea903690600401612016565b3360005260206005815260019061060a60ff836040600020015416612277565b61062861061685612187565b50546001600160a01b031633146122f5565b8161063285612187565b50019280519586116107955761064884546120a7565b601f811161075a575b5081601f87116001146106cb575094806106bb95949381937f8ccb16913133dbcea90d6edb185a43d4a1009b735c51288eb0c08718613d1373986000946106c0575b50501b916000199060031b1c19161790555b6040805191825233602083015290918291820190565b0390a1005b015192508880610693565b909591601f198316968560005282600020926000905b898210610743575050908392916106bb979695947f8ccb16913133dbcea90d6edb185a43d4a1009b735c51288eb0c08718613d1373991061072a575b505050811b0190556106a5565b015160001960f88460031b161c1916905586808061071d565b8087859682949686015181550195019301906106e1565b610785908560005283600020601f890160051c810191858a1061078b575b601f0160051c019061223b565b86610651565b9091508190610778565b634e487b7160e01b600052604160045260246000fd5b346102305760203660031901126102305760206004356107c9612353565b80600155604051908152f35b34610230576020366003190112610230577fafe92cf1e686d40d9fe75324acc5793ff623b23896e8b1edd5b36f2a1bed7c206020610811611ef4565b336000526005825261082d60ff60016040600020015416612277565b6040516001600160a01b039091168152a1005b3461023057602036600319011261023057602060043561085e612353565b80600255604051908152f35b34610230576020366003190112610230577faf0ea5a986d535a6d485f06d0956f5737418735d3ea67305e75152b58b8bc80c6020610811611ef4565b34610230576020366003190112610230576001600160a01b036108c7611ef4565b1660005260086020526020604060002054604051908152f35b34610230576040366003190112610230576108f9611ef4565b6000608060405161090981611fbf565b828152826020820152826040820152826060820152015260018060a01b0316600052600860205260a061094260243560406000206121c2565b5060405161094f81611fbf565b81549182825260018101546020830190815260028201549060408401918252608060046003850154946060870195865201549401938452604051948552516020850152516040840152516060830152516080820152f35b3461023057602036600319011261023057600435600754811015610230576007600052600b027fa66cc928b5edb82af9bd49922954155ab7b0942694bea4ce44661d9a8736c6888101547fa66cc928b5edb82af9bd49922954155ab7b0942694bea4ce44661d9a8736c6898201547fa66cc928b5edb82af9bd49922954155ab7b0942694bea4ce44661d9a8736c68a83015490926001600160a01b039283169290610a727fa66cc928b5edb82af9bd49922954155ab7b0942694bea4ce44661d9a8736c68b82016120e1565b917fa66cc928b5edb82af9bd49922954155ab7b0942694bea4ce44661d9a8736c68c8201547fa66cc928b5edb82af9bd49922954155ab7b0942694bea4ce44661d9a8736c68d830154907fa66cc928b5edb82af9bd49922954155ab7b0942694bea4ce44661d9a8736c68e8401610ae8906120e1565b91610b147fa66cc928b5edb82af9bd49922954155ab7b0942694bea4ce44661d9a8736c68f86016120e1565b937fa66cc928b5edb82af9bd49922954155ab7b0942694bea4ce44661d9a8736c690860154967fa66cc928b5edb82af9bd49922954155ab7b0942694bea4ce44661d9a8736c691870154967fa66cc928b5edb82af9bd49922954155ab7b0942694bea4ce44661d9a8736c69201610b8a906120e1565b986040519b8c9b8c5260208c015260408b01526101c08060608c01528a01610bb191611f0a565b9260808a0152811660a08901528060a01c60ff16151560c08901528060a81c60ff16151560e089015260b01c60ff16610100880152868103610120880152610bf891611f0a565b858103610140870152610c0a91611f0a565b916101608501526101808401528281036101a084015261022c91611f0a565b3461023057610120366003190112610230576024356001600160401b03811161023057610c5a903690600401612016565b6084356001600160401b03811161023057610c79903690600401612016565b60a4356001600160401b03811161023057610c98903690600401612016565b610104356001600160401b03811161023057610cb8903690600401612016565b91336000526005602052610cd660ff60016040600020015416612277565b60e43560c435101561133a57610cf0610616600435612187565b60405193846101c08101106001600160401b036101c087011117610795576101c0850160405260006040860152600060a0860152600060c0860152600060e0860152600061010086015233855260443560208601526060850152606435608085015261012084015261014083015260c43561016083015260e4356101808301526101a0820152600754600160401b81101561079557806001610d95920160075561206c565b61132457815181546001600160a01b0319166001600160a01b03919091161781556020820151600182015560408201516002820155606082015180519092906001600160401b03811161079557610def60038401546120a7565b601f81116112ef575b506020601f82116001146112815781929394600092611276575b50508160011b916000199060031b1c19161760038301555b608081015160048301556005820160018060a01b0360a08301511681549060ff60a01b60c0850151151560a01b1660ff60a81b60e0860151151560a81b169160ff60b01b61010087015160b01b169368ffffffffffffffffff60b81b161717171790556101208101519182516001600160401b03811161079557610eb160068301546120a7565b601f8111611241575b506020601f82116001146111d357819293946000926111c8575b50508160011b916000199060031b1c19161760068201555b6101408201518051906001600160401b03821161079557610f1060078401546120a7565b601f8111611193575b50602090601f831160011461111d5791806101a09492600a94600092611112575b50508160011b916000199060031b1c19161760078201555b61016084015160088201556101808401516009820155019101519081516001600160401b03811161079557610f8782546120a7565b601f81116110e0575b50602092601f821160011461107c5792819293600092611071575b50508160011b916000199060031b1c19161790555b6003610fcd600435612187565b500160045490805490600160401b821015610795576001820180825582101561105b57600052602060002001556004547f02f88b92e9c7ac5a92aadd3812ce280db32c0e77f512519826996b59034731f960606040516044358152836020820152336040820152a16001810180911161104557600455005b634e487b7160e01b600052601160045260246000fd5b634e487b7160e01b600052603260045260246000fd5b015190508380610fab565b601f198216938360005260206000209160005b8681106110c857508360019596106110af575b505050811b019055610fc0565b015160001960f88460031b161c191690558380806110a2565b9192602060018192868501518155019401920161108f565b61110c90836000526020600020601f840160051c8101916020851061078b57601f0160051c019061223b565b83610f90565b015190508680610f3a565b906007840160005260206000209160005b601f198516811061117b5750926101a09492600192600a9583601f19811610611162575b505050811b016007820155610f52565b015160001960f88460031b161c19169055868080611152565b9192602060018192868501518155019401920161112e565b6111c290600785016000526020600020601f850160051c8101916020861061078b57601f0160051c019061223b565b84610f19565b015190508480610ed4565b6006830160005260206000209060005b601f19841681106112295750600193949583601f19811610611210575b505050811b016006820155610eec565b015160001960f88460031b161c19169055848080611200565b9091602060018192858a0151815501930191016111e3565b61127090600684016000526020600020601f840160051c8101916020851061078b57601f0160051c019061223b565b84610eba565b015190508480610e12565b6003840160005260206000209060005b601f19841681106112d75750600193949583601f198116106112be575b505050811b016003830155610e2a565b015160001960f88460031b161c191690558480806112ae565b9091602060018192858a015181550193019101611291565b61131e90600385016000526020600020601f840160051c8101916020851061078b57601f0160051c019061223b565b84610df8565b634e487b7160e01b600052600060045260246000fd5b60405162461bcd60e51b815260206004820152603a60248201527f6c652070726978206d696e696d756d206e65207065757420706173206574726560448201527f207375706572696575722061752070726978206d6178696d756d0000000000006064820152608490fd5b602080600319360112610230576001600160401b0390600435828111610230576113d3903690600401612016565b33600052600582526001926113f160ff856040600020015416612277565b8354341061168657604051611452848201858152826114136040820187611f0a565b0392611427601f1994858101835282611ff5565b51902060405186810190878252600060408201526040815261144881611fda565b51902014156121de565b6040519361145f85611fbf565b8085019160408601600081526060870193606085526080880196815233885242875260065492600160401b938481101561079557808b6114a29201600655612187565b999099611324575189546001600160a01b0319166001600160a01b0391909116178955905180518a8a01929091908883116107955782916114e385546120a7565b601f8111611656575b508791601f84116001146115ed57506000926115e2575b5050600019600383901b1c1916908a1b1790555b600287019051151560ff8019835416911617905560038601925190815194851161079557841161079557819083548585558086106115c5575b50019160005280600020908660005b8581106115b3575085516004880155600354604080518281523360208201529192917fe4059cd84df0f528fe8b13d6f5575830c17790dcc1fc8b7bd904ba01df51577d9190a1810180911161104557600355005b8285519501948185015501879061155f565b6115dc90856000528684600020918201910161223b565b88611550565b015190508b80611503565b8d94929192169185600052886000209260005b8a828210611637575050841161161e575b505050811b019055611517565b015160001960f88460031b161c191690558b8080611611565b91929395968291958786015181550195019301908e9594939291611600565b611680908660005289600020601f860160051c8101918b871061078b57601f0160051c019061223b565b8d6114ec565b60405162461bcd60e51b815260048101849052601e60248201527f566575696c6c657a206d6574747265206c6520626f6e206d6f6e74616e7400006044820152606490fd5b346102305760203660031901126102305761022c6116e7611ef4565b6116ef6122c3565b506116f8612353565b60018060a01b03809116806000526005602052600160406000200161010061ff00198254161790557f50f5507c2428baff49ee7875d073bd487f89a04190c499d0344dfe7a91bfa6546020604051838152a1600052600560205260026040600020604051926101d984611fa4565b346102305760203660031901126102305760043560046117858261206c565b50015442101561181e57336000526008602052604060002090600a42019182421161104557604051916117b783611fbf565b825260208201924284526040830160058152606084019182526080840192600a84528054600160401b811015610795576117f6916001820181556121c2565b9590956113245760049451865551600186015551600285015551600384015551910155600080f35b60405162461bcd60e51b815260206004820152601b60248201527f6c27617070656c2064276f6666726520657374207465726d696e6500000000006044820152606490fd5b3461023057600036600319011261023057602060ff60005460a01c16604051908152f35b34610230576000366003190112610230576000546040516001600160a01b039091168152602090f35b34610230576000366003190112610230576118c9612353565b600080546001600160a01b0319811682556001600160a01b03167f8be0079c531659141344cd1fd0a4f28419497f9722a3daafe3b4186f6b6457e08280a3005b34610230576000366003190112610230576020600154604051908152f35b3461023057604036600319011261023057611940611ef4565b6001600160401b039060243582811161023057611961903690600401612016565b903360005260206005815260019361198260ff866040600020015416612277565b604051946119d28387018481528761199d6040820189611f0a565b03976119b1601f19998a8101835282611ff5565b51902060405185810190868252600060408201526040815261144881611fda565b60018060a01b038416600052600583526040600020928551928311610795576119fb84546120a7565b601f8111611aec575b508096601f8411600114611a6c5750508180917fe99ebf891ecf1848497e78549bd314016c4d1cb85202983ee2949410bc3e605697600093611a61575b501b916000199060031b1c19161790555b6106bb60405192839283612252565b870151925088611a41565b83929316968460005281600020916000905b898210611ad5575050827fe99ebf891ecf1848497e78549bd314016c4d1cb85202983ee2949410bc3e60569810611abc575b5050811b019055611a52565b86015160001960f88460031b161c191690558680611ab0565b808684958294958c01518155019401920190611a7e565b611b16908560005282600020601f860160051c81019184871061078b57601f0160051c019061223b565b87611a04565b34610230576020366003190112610230577fc21b9cfcceff9f2d82efde7cd64d3fe7bfd7f14b9b0020ed54eb6ae56056e9ac6020611b58611ef4565b611b60612353565b6001600160a01b0316600081815260058352604081206001818101805460ff19169091179055805460029190611b95906120a7565b80611bad575b508260018201550155604051908152a1005b601f8111600114611bc357508281555b86611b9b565b818452858420611bde91601f0160051c81019060010161223b565b8285812081835555611bbd565b3461023057600036600319011261023057611c04612353565b602047604051908152f35b34610230576000366003190112610230576020600254604051908152f35b3461023057602080600319360112610230576001600160401b039060043582811161023057611c60903690600401612016565b90336000526005815260018060ff816040600020015416151514611e0c57604051611cac83820184815282611c986040820188611f0a565b03926119b1601f1994858101835282611ff5565b3360005260058352816040600020018260ff19825416179055604060002092845195861161079557611cde84546120a7565b601f8111611ddc575b508091601f8711600114611d535750509380806106bb9594937f613fa353b26ebe46477a0a021dfe1ee36cebcda84c794fc0623bef188295a35397600093611d48575b501b916000199060031b1c19161790555b6040519182913383612252565b860151925088611d2a565b86929196168460005286600020966000905b828210611dc55750509582916106bb969594937f613fa353b26ebe46477a0a021dfe1ee36cebcda84c794fc0623bef188295a3539810611dac575b5050811b019055611d3b565b85015160001960f88460031b161c191690558680611da0565b878401518955978501979283019290810190611d65565b611e06908560005282600020601f890160051c810191848a1061078b57601f0160051c019061223b565b86611ce7565b60405162461bcd60e51b8152600481018390526016602482015275159bdd5cc8195d195cc819195a98481a5b9cd8dc9a5d60521b6044820152606490fd5b346102305760203660031901126102305761022c611e66611ef4565b611e6e6122c3565b506101b3612353565b34610230576000366003190112610230576020600454604051908152f35b34610230576040366003190112610230576001600160a01b03611eb6611ef4565b166000526008602052611ecf60243560406000206121c2565b6113245760048160008093558260018201558260028201558260038201550155600080f35b600435906001600160a01b038216820361023057565b919082519283825260005b848110611f36575050826000602080949584010152601f8019910116010190565b602081830181015184830182015201611f15565b6020815260c060a0611f67845183602086015260e0850190611f0a565b93602081015115156040850152604081015115156060850152606081015115156080850152600180831b0360808201511682850152015191015290565b60c081019081106001600160401b0382111761079557604052565b60a081019081106001600160401b0382111761079557604052565b606081019081106001600160401b0382111761079557604052565b90601f801991011681019081106001600160401b0382111761079557604052565b81601f82011215610230578035906001600160401b038211610795576040519261204a601f8401601f191660200185611ff5565b8284526020838301011161023057816000926020809301838601378301015290565b60075481101561105b57600b906007600052027fa66cc928b5edb82af9bd49922954155ab7b0942694bea4ce44661d9a8736c6880190600090565b90600182811c921680156120d7575b60208310146120c157565b634e487b7160e01b600052602260045260246000fd5b91607f16916120b6565b90604051918260008254926120f5846120a7565b9081845260019485811690816000146121645750600114612121575b505061211f92500383611ff5565b565b9093915060005260209081600020936000915b81831061214c57505061211f93508201013880612111565b85548884018501529485019487945091830191612134565b91505061211f94506020925060ff191682840152151560051b8201013880612111565b60065481101561105b576005906006600052027ff652222313e28459528d920b65115c16c04f3efc82aaedc97be59f3f377c0d3f0190600090565b805482101561105b576000526005602060002091020190600090565b156121e557565b60405162461bcd60e51b815260206004820152602860248201527f566f7573206e6520706f7576657a20706173206d6574747265207269656e20636044820152676f6d6d65206e6f6d60c01b6064820152608490fd5b818110612246575050565b6000815560010161223b565b6001600160a01b03909116815260406020820181905261227492910190611f0a565b90565b1561227e57565b60405162461bcd60e51b815260206004820152601e60248201527f566f7573206e27657465732070617320756e207574696c6973617465757200006044820152606490fd5b604051906122d082611fa4565b600060a083606081528260208201528260408201528260608201528260808201520152565b156122fc57565b60405162461bcd60e51b815260206004820152602960248201527f766f7573206574657320706173206c652044444f2064652063657420417070656044820152686c2064206f6666726560b81b6064820152608490fd5b6000546001600160a01b0316330361236757565b606460405162461bcd60e51b815260206004820152602060248201527f4f776e61626c653a2063616c6c6572206973206e6f7420746865206f776e65726044820152fdfea2646970667358221220c1cba0731e4ac3cffa43aaa3938d80ecceafc1d6c152b40edbb105181802822b64736f6c63430008110033",
  "immutableReferences": {},
  "source": "// SPDX-License-Identifier: BUSL-1.1\npragma solidity 0.8.17;\nimport \"../node_modules/@openzeppelin/contracts/access/Ownable.sol\";\n\n/// @title TenderOnChain\n/// @author Swuib and Sebastien HOFF\n/// @notice This contract ...\ncontract TenderOnChain is Ownable {\n\n  constructor() {\n    maxLot = 30;\n    priceAO = 1 ether;\n    priceLot = 100000000000000000 wei; \n  }\n\n\n  uint8 public maxLot; //defini le nombre de lot max que peut contenir un lot\n  uint public priceAO; //defini le montant  virer pour la creation de l'AO\n  uint public priceLot; //defini le montant  virer pour la participation  un lot\n  uint public AoLentght;\n  uint public LotLentght;\n  \n  /// @notice  structure des utilisateurs\n  /// @dev  structure des utilisateurs\n  struct Users {\n    string name; //raison sociale de la societ \n    //(a voir si plus de data ncessaire que juste le name)\n    bool isRegistred;// vrai si l'utilisateur est enregistr\n    bool isAuditor; // vrai si l'utilisateur est un validateur d'autentification de societs\n    //controle du profil financier par un tiers\n    bool isApproval; //est vrai si l'auditeur a fait le contrle de cette socit\n    address adresseValidateur; //adresse du controleur qui a verifi la situation du DDO\n    uint dateApprouval; // timestamp de la validation ou devalidation du DDO\n  }\n  //on cree un mapping adresse/user\n  mapping(address => Users) mappingUsers;\n\n  struct AO {\n    address adressDDO ; //adresse du DDO qui va creer AO\n    string  aoName;  // nom de AO\n    bool    isPaid; // c'est le booleen qui dit qui  bien payer pour AO (a voir ..)\n    uint[]  lotDeLAO; //contient les index des lots constituant l'ao\n    uint createdAt; // date de la creation de AO\n  }\n  //creation du tableau des appels d'offre\n  AO[] public tableauAO;\n\n  //on ne peut pas faire de mapping AO/user ou AO /adress car on ne respecte plus le le critere d'unicit\n  struct LOT {\n    address adressDDO ; //adresse du DDO qui va creer le lot\n    uint idAO;  // index de AO\n    uint idLot; // ????????????????????????????????????????????????????????????\n    string description; // description ou titre du lot \n    uint TsCloture; // timeStamp Cloture du lot\n    address winner; // adress de l'attributaire du lot\n    bool isNftAttributionEmit;  // si le nft d'attribution  t mit \n    bool isNftRealisationEmit;  // si le nft de ralisation  t mit \n    uint8 idEtapeLot; // ????????????????????????????????????????????????????????????\n    string categorie; // categorie du lot\n    string susCategorie; // sous categorie du lot\n    uint minprice; // prix min du lot \n    uint maxprice; // prix max du lot \n    string URIPDF; //URL du PDF du IPFS ou sur une SGBD dentralise \n  }\n  //creation du tableau des lots\n  //il a t choisi de stocker les lots dans un tableau car nous devons parcourir le tableau pour recuperer avec le frontend la liste des lots\n  LOT[] public tableauLots; \n\n  struct Participation {\n    uint idLot;\n    uint Tsprice1; //timestamp\n    uint price1;\n    uint Tsprice2; //timestamp\n    uint price2;\n  }\n  // a soluce .... \n  // Soumissions[] public tableauSoum;\n  mapping(address => Participation[]) mappingParticipation; // soumi / adress\n  // A TEST ::::::::::::::::::::::::::::::::::::::::::::::::::::::::::::::::::\n\n  // enum etapeAO {\n  //   definitionAO,\n  //   definitionLOT,\n  //   reponseAO,\n  //   depouillementAO,\n  //   aoClos\n  // }\n\n\n  //####################################\n  // The events\n  //####################################\n  event transferSecu(uint codeAction, address user); // ???? je sais pas ce que tu  voulu faire !\n  //un utilisateur a t ajout au tableau des utilisateurs\n  event userAdded(address user, string name);\n  event userUpdated(address user, string name);\n  event requestAuditor(address user);\n  event requestValide(address user);\n  event userAuditor(address user);\n  event userDeleted(address user);\n  event userAudited(address user, address auditor, uint time);\n  // Appel Offre\n  event AoCreated(uint indexAO , address user);\n  event AoEddited(uint indexAO , address user);\n  // nouveau lot cree\n  event LotCreated(uint indexAO , uint indexLOT , address user);\n  event LotEddited(uint indexLOT , address user);\n  // argent recu\n  event argentRecu(uint value , address user);\n\n  //####################################\n  // Modifier\n  //####################################\n\n  // verifie si l'utilisateur  bien creer son compte.\n  modifier isRegistred() {\n    require(mappingUsers[msg.sender].isRegistred, \"Vous n'etes pas un utilisateur\");\n    _;\n  }\n\n  // verifie si l'utilisateur est un utilisateur verificateur.\n  modifier isAuditor() {\n    require(mappingUsers[msg.sender].isAuditor, \"Vous n'etes pas un auditeur\");\n    _;\n  }\n\n  //####################################\n  // The functions\n  //####################################\n  // :::::::::::::::::::::::::::::::::::::::::::: PRICE :::::::::::::::::::::::::::::::::::::::::::: //\n\n  /// @dev afficher la balance du contrat\n  function BalanceContrat() public view onlyOwner returns (uint){\n    return address(this).balance;\n  }\n\n  /// @dev change le prix pour la creation d'un Appel d'offre\n  function setAOprice(uint _nouveauPrix) external onlyOwner returns(uint) {\n    priceAO = _nouveauPrix; \n    return priceAO ; \n  }\n\n  /// @dev change le prix pour la creation d'un lot\n  function setLotprice(uint _nouveauPrix) external onlyOwner returns(uint) {\n    priceLot = _nouveauPrix; \n    return priceLot ; \n  }\n\n  // ::::::::::::::::::::::::::::::::::::::::::::: USER ::::::::::::::::::::::::::::::::::::::::::::: //\n\n  // ------------------------------------------------------\n  // User functions for manipulation account: \n  // ------------------------------------------------------\n\n  // creation de compte utilisateur.\n  function createAccount(string memory _name) external {\n    require(mappingUsers[msg.sender].isRegistred != true, \"Vous etes deja inscrit\");\n    require(keccak256(abi.encode(_name)) != keccak256(abi.encode(\"\")), \"Vous ne pouvez pas mettre rien comme nom\");\n    mappingUsers[msg.sender].isRegistred = true;\n    mappingUsers[msg.sender].name = _name;\n    emit userAdded(msg.sender,_name);\n  }\n\n  // modification du compte utilisateur.\n  function editAccount(address _addr, string memory _name) external isRegistred {\n    require(keccak256(abi.encode(_name)) != keccak256(abi.encode(\"\")), \"Vous ne pouvez pas mettre rien comme nom\");\n    mappingUsers[_addr].name = _name;\n    emit userUpdated(_addr,_name);\n  }\n\n  // A VERIF\n  // demande de passage au statut auditeur. (a voir pour plus d'info pour contacter l'utilisateur)\n  function requestNewAuditor(address _addr) external isRegistred {\n    emit requestAuditor(_addr);\n  }\n\n  // A VERIF\n  // demande de validation des dones du compte par un auditeur. (a voir pour plus d'info pour contacter l'utilisateur)\n  function requestAcountValidation(address _addr) external isRegistred {\n    emit requestValide(_addr);\n  }\n\n  // recuperation des information d'un utilisateur.\n  function getAccount(address _addr) external isRegistred view returns (Users memory) {\n    return mappingUsers[_addr];\n  }\n\n  // ------------------------------------------------------\n  // Owner fuctions for user manipulations :\n  // ------------------------------------------------------\n\n  // recuperation des information d'un utilisateur.\n  function getAccountForOwner(address _addr) external onlyOwner view returns (Users memory) {\n    return mappingUsers[_addr];\n  }\n\n  // passage d'un utilisateur => verificateur.\n  function updateAcountToAuditor(address _addr) external onlyOwner returns (Users memory) {\n    mappingUsers[_addr].isAuditor = true;\n    emit userAuditor(_addr);\n    return mappingUsers[_addr];\n  }\n\n  // supprimer un compte au cas ou !\n  function deleteAccount(address _addr) external onlyOwner {\n    require(mappingUsers[_addr].isRegistred = true, \"utilisateur non enregistre\");\n    delete mappingUsers[_addr];\n    emit userDeleted(_addr);\n  }\n\n  // fonction transfer addr en cas de perte 0x... d'un user \n\n  // ------------------------------------------------------\n  // Auditor fuctions for user manipulations :\n  // ------------------------------------------------------\n\n  // mise a jour des donns de l'utilisateur (vrification utilisateur)\n  function updateAcountToApproval(address _addr) external isAuditor {\n    mappingUsers[_addr].isApproval = true;\n    mappingUsers[_addr].adresseValidateur = msg.sender;\n    mappingUsers[_addr].dateApprouval = block.timestamp;\n    emit userAudited(_addr, msg.sender, block.timestamp);\n  }\n\n  // ::::::::::::::::::::::::::::::::::::::::::::: AO ::::::::::::::::::::::::::::::::::::::::::::: //\n\n  function createAO(string memory _name) external isRegistred payable {\n    require(msg.value >= priceAO , \"Veuillez mettre le bon montant\");\n    require(keccak256(abi.encode(_name)) != keccak256(abi.encode(\"\")), \"Vous ne pouvez pas mettre rien comme nom\");\n    AO memory ao; \n    ao.aoName = _name;\n    ao.adressDDO = msg.sender;\n    ao.createdAt = block.timestamp;\n    tableauAO.push(ao);\n    emit AoCreated(AoLentght,msg.sender);\n    AoLentght = AoLentght + 1;\n  }\n\n  function editAO(uint _index, string memory _name) external isRegistred {\n    require(tableauAO[_index].adressDDO == msg.sender,\"vous etes pas le DDO de cet Appel d offre\");\n    tableauAO[_index].aoName = _name;\n    emit AoEddited(_index,msg.sender);\n  }\n\n  // ::::::::::::::::::::::::::::::::::::::::::::: LOT ::::::::::::::::::::::::::::::::::::::::::::: //\n\n  ///  @dev fonction d'ajout de lot\n  ///  @param _index index du tableauAO, _desc\n  ///  @param _desc description du lot \n  ///  @param _numeroAO ????????????????????????????????\n  ///  @param _ts timestamp de la fin du lot\n  ///  @param _cat categorie du lot\n  ///  @param _susCat sous categorie du lot \n  ///  @param _min prix minimum\n  ///  @param _max prix maximum\n  ///  @param _uri uri du pdf nft du lot\n  function addLOT(\n    uint _index, \n    string memory _desc, \n    uint _numeroAO, \n    uint _ts,\n    string memory _cat,\n    string memory _susCat,\n    uint _min,\n    uint _max,\n    string memory _uri\n    ) external isRegistred  {\n    require(_numeroAO >= 0 , \"Veuillez indiquer un numero AO convenable\"); // pas sur que cela soit necessaire \n    require(_min < _max , \"le prix minimum ne peut pas etre superieur au prix maximum\");\n    require(tableauAO[_index].adressDDO == msg.sender,\"vous etes pas le DDO de cet Appel d offre\");\n\n    //on verifie que le nombre de lot max est pas atteint\n    // require(tableauAO[idAOmem].lotDeLAO.lengh < maxLot , \"Vous avez atteint la limite du nombre de lots\");\n    //on cree un tableau en memory pour recuperer les infos transmise pour la creation du lot\n    LOT memory lot;\n    lot.adressDDO = msg.sender;\n    lot.idAO = _numeroAO;\n    lot.description = _desc;\n    lot.TsCloture = _ts;\n    lot.categorie = _cat;\n    lot.susCategorie = _susCat;\n    lot.minprice = _min;\n    lot.maxprice = _max;\n    lot.URIPDF = _uri;\n    tableauLots.push(lot);\n    // uint indexNouveauLot = tableauLots.length - 1;\n    tableauAO[_index].lotDeLAO.push(LotLentght);\n    //on emet l'event ddi\n    emit LotCreated(_numeroAO, LotLentght, msg.sender);\n    LotLentght = LotLentght + 1;\n  }\n\n\n  // function editLOT(uint _index, string memory _desc) external isRegistred {\n  //   require(tableauLots[_index].adressDDO == msg.sender,\"vous etes pas le DDO de cet Appel d offre\");\n  //   tableauLots[_index].description = _desc;\n  //   emit LotEddited(_index,msg.sender);\n  // }\n\n\n  //  quoi cela sert ??? \n  function getAO(uint _index) public view returns (string memory _nom, address _addrDDO, bool _isPaid ) {\n    return (tableauAO[_index].aoName , tableauAO[_index].adressDDO , tableauAO[_index].isPaid);\n  }\n\n  function transfertBalanceSecu (address _addr)external onlyOwner {\n    //fonction de securite admin pour transfrer tous les fonds vers une adresse de secours\n  }\n// ::::::::::::::::::::::::::::::::::::::::::::: PARTICIPATION ::::::::::::::::::::::::::::::::::::::::::::: //\n\n\n  function createParticipation(uint _idlot) external {\n    require(tableauLots[_idlot].TsCloture > block.timestamp ,\"l'appel d'offre est termine\");\n    mappingParticipation[msg.sender].push(Participation(_idlot,block.timestamp,5,block.timestamp + 10,10));\n  }\n\n  function getParticipation(address _addr,uint _index) external view returns (Participation memory) {\n    return mappingParticipation[_addr][_index];\n  }\n\n  function getParticipationLength(address _addr) external view returns (uint) {\n    return mappingParticipation[_addr].length;\n  }\n\n  function removeParticipation(address _addr, uint _index) external{\n    delete mappingParticipation[_addr][_index];\n  }\n\n\n// :::::::::::::::::::::::::::::::::::::::::::::::::: NFT :::::::::::::::::::::::::::::::::::::::::::::::::: //\n\n// require pour que le createur de AO ne puisse pas participer a son AO\n// le soum a bien payer\n  // function createNftForLot() {\n    \n  // }\n\n  // function createNftForParticipation() {\n\n  // }\n\n  // function createNftForWinner() {\n\n  // }\n\n  // function createNftForWinnerAndAchivment() {\n\n  // }\n\n}\n",
  "sourcePath": "/Users/sebastienjeanneditdenis/Desktop/Alyra/cours/Semaine-08 Projet Final/Projet#4/truffle/contracts/TenderOnChain.sol",
  "compiler": {
    "name": "solc",
    "version": "0.8.17+commit.8df45f5f.Emscripten.clang"
  },
  "schemaVersion": "3.4.10",
  "updatedAt": "2022-12-04T07:48:44.430Z",
  "networkType": "ethereum",
  "devdoc": {
    "author": "Swuib and Sebastien HOFF",
    "kind": "dev",
    "methods": {
      "BalanceContrat()": {
        "details": "afficher la balance du contrat"
      },
      "addLOT(uint256,string,uint256,uint256,string,string,uint256,uint256,string)": {
        "details": "fonction d'ajout de lot",
        "params": {
          "_cat": "categorie du lot",
          "_desc": "description du lot ",
          "_index": "index du tableauAO, _desc",
          "_max": "prix maximum",
          "_min": "prix minimum",
          "_numeroAO": "????????????????????????????????",
          "_susCat": "sous categorie du lot ",
          "_ts": "timestamp de la fin du lot",
          "_uri": "uri du pdf nft du lot"
        }
      },
      "owner()": {
        "details": "Returns the address of the current owner."
      },
      "renounceOwnership()": {
        "details": "Leaves the contract without owner. It will not be possible to call `onlyOwner` functions anymore. Can only be called by the current owner. NOTE: Renouncing ownership will leave the contract without an owner, thereby removing any functionality that is only available to the owner."
      },
      "setAOprice(uint256)": {
        "details": "change le prix pour la creation d'un Appel d'offre"
      },
      "setLotprice(uint256)": {
        "details": "change le prix pour la creation d'un lot"
      },
      "transferOwnership(address)": {
        "details": "Transfers ownership of the contract to a new account (`newOwner`). Can only be called by the current owner."
      }
    },
    "title": "TenderOnChain",
    "version": 1
  },
  "userdoc": {
    "kind": "user",
    "methods": {},
    "notice": "This contract ...",
    "version": 1
  }
}